:020000040800F2
:1000000000100020F5030008710F0008730F0008AE
:1000100000000000000000000000000000000000E0
:10002000000000000000000000000000750F000844
:100030000000000000000000770F0008790F0008A2
:1000400045040008000000004504000845040008BD
:10005000450400084504000845040008450400085C
:10006000000000004504000845040008450400089D
:10007000450400084504000845040008000000008D
:10008000450400080000000000000000850F000883
:1000900000000000950F0008A50F000845040008A7
:1000A00000000000450400080000000045040008AE
:1000B0000000000000000000000000000000000040
:1000C00010B5064C2378002B07D1054B002B02D02E
:1000D000044800E000BF0123237010BD0C00002085
:1000E000000000006C240008044B10B5002B03D066
:1000F0000349044800E000BF10BDC04600000000F6
:10010000100000206C240008002243088B4274D3A6
:1001100003098B425FD3030A8B4244D3030B8B4208
:1001200028D3030C8B420DD3FF22090212BA030C11
:100130008B4202D31212090265D0030B8B4219D3F2
:1001400000E0090AC30B8B4201D3CB03C01A524112
:10015000830B8B4201D38B03C01A5241430B8B425A
:1001600001D34B03C01A5241030B8B4201D30B0343
:10017000C01A5241C30A8B4201D3CB02C01A52416A
:10018000830A8B4201D38B02C01A5241430A8B422D
:1001900001D34B02C01A5241030A8B4201D30B0216
:1001A000C01A5241CDD2C3098B4201D3CB01C01A30
:1001B000524183098B4201D38B01C01A524143093A
:1001C0008B4201D34B01C01A524103098B4201D328
:1001D0000B01C01A5241C3088B4201D3CB00C01A95
:1001E000524183088B4201D38B00C01A524143080D
:1001F0008B4201D34B00C01A5241411A00D2014632
:10020000524110467047FFE701B5002000F0F0F8BA
:1002100002BDC0460029F7D076E7704703460B437E
:100220007FD4002243088B4274D303098B425FD3EF
:10023000030A8B4244D3030B8B4228D3030C8B421B
:100240000DD3FF22090212BA030C8B4202D3121201
:10025000090265D0030B8B4219D300E0090AC30BD6
:100260008B4201D3CB03C01A5241830B8B4201D383
:100270008B03C01A5241430B8B4201D34B03C01A6C
:100280005241030B8B4201D30B03C01A5241C30AE4
:100290008B4201D3CB02C01A5241830A8B4201D355
:1002A0008B02C01A5241430A8B4201D34B02C01A3F
:1002B0005241030A8B4201D30B02C01A5241CDD2E4
:1002C000C3098B4201D3CB01C01A524183098B422F
:1002D00001D38B01C01A524143098B4201D34B0118
:1002E000C01A524103098B4201D30B01C01A52417B
:1002F000C3088B4201D3CB00C01A524183088B4202
:1003000001D38B00C01A524143088B4201D34B00EA
:10031000C01A5241411A00D201465241104670475C
:100320005DE0CA0F00D04942031000D34042534061
:1003300000229C4603098B422DD3030A8B4212D321
:10034000FC22890112BA030A8B420CD38901921153
:100350008B4208D3890192118B4204D389013AD090
:10036000921100E08909C3098B4201D3CB01C01A65
:10037000524183098B4201D38B01C01A5241430978
:100380008B4201D34B01C01A524103098B4201D366
:100390000B01C01A5241C3088B4201D3CB00C01AD3
:1003A000524183088B4201D38B00C01A5241D9D2EB
:1003B00043088B4201D34B00C01A5241411A00D26C
:1003C0000146634652415B10104601D34042002B68
:1003D00000D54942704763465B1000D3404201B5E7
:1003E000002000F005F802BD0029F8D016E770479C
:1003F0007047C0460D4885460D480E490E4A0023F9
:1004000002E0D458C4500433C4188C42F9D30B4AC8
:100410000B4C002301E013600432A242FBD300F036
:10042000C9FD01F0FFFF00F023FCFEE700100020F3
:10043000000000200C000020F02400080C00002028
:1004400088010020FEE70000F0B589B0274B59690C
:100450008020C003014359615A6902400092009A0A
:10046000596980208002014359615A690240019212
:10047000019A5A698021C9020A435A615B690B409B
:100480000293029B1A4F9026F60500223900300095
:1004900001F07BF9174D00224021280001F075F989
:1004A0000323039300240494059403A9300001F06E
:1004B0009FF80397012704970594069403A9300039
:1004C00001F096F8B92303930494059403A9280036
:1004D00001F08EF84023039304970594069403A932
:1004E000280001F085F809B0F0BDC04600100240B8
:1004F000708000000004004870B50400494B026899
:100500009A4208D0484B22689A4244D02268474B0E
:100510009A4264D070BD464B1D785D709B789D42B9
:1005200006D0434BDB78012B08D0414B00229A8048
:100530003F4B9D709A8801329A80E3E73C4B9B8841
:10054000AA208000C01A07D4AA23FF33984207DDEF
:10055000384B69221A70E8E7364B78221A70E4E7C4
:10056000354B5843AA218900FFF758FE334A121A27
:100570005001801A8000801803011B1A980130492D
:10058000FFF7C2FDFA218900FFF7BEFD2D4B186071
:10059000284B1870C9E790200121C00501F0EEF842
:1005A00000280AD00121284801F0E8F800280DD0E1
:1005B0001F4A937901339371A8E7BFF34F8F234B01
:1005C000234ADA60BFF34F8FC046FDE7BFF34F8F7A
:1005D0001E4B1F4ADA60BFF34F8FC046FDE708216C
:1005E000194801F0CBF8002800D093E7104BDB79D5
:1005F000002B00D18EE70821134801F0BFF8002836
:10060000F9D0144B1B78002B07D0012B00D081E7C9
:10061000074A1378013313707CE7054A1378013BCE
:10062000137077E70020004000440140004801407B
:1006300028000020000000201027000050C3000008
:1006400088130000700000200004004800ED00E066
:100650000400FA05B4000020104BD970042802D021
:1006600002280DD07047012905D00029F8D10C4B84
:1006700022221A64F4E70B4B1A78094B1A64F4E748
:10068000012905D00029EDD1054B22229A63E9E723
:10069000044B1A78024B9A63F4E7C0462800002006
:1006A000000400400000002070B5104B00221A70BA
:1006B0000F4BD871802190200902C00501F065F828
:1006C0000C4D01224021280001F05FF80A4C0C215A
:1006D000200001F043FE00220221280001F055F81D
:1006E0000421200001F018FE70BDC046B4000020B7
:1006F00028000020000400487400002070B5104B52
:1007000001221A700F4BD87180219025ED05090246
:10071000280001F03AF8002240210B4801F035F89A
:100720000A4C0421200001F019FE0022802128003B
:1007300001F02BF80C21200001F0EEFD70BDC04649
:10074000B4000020280000200004004874000020AD
:1007500010B5114B00229A710120FFF7CFFF002442
:1007600008E0352B0ED801240CE000210420FFF70F
:1007700073FF0024084B1B78392B0CD8064A92795A
:10078000322AEED0362BF0D8002CF3D001210420F1
:10079000FFF762FFEEE710BD2800002010B5114BF7
:1007A00000229A710120FFF7A9FF002408E0202B06
:1007B0000ED801240CE000210420FFF74DFF002497
:1007C000084B1B78242B0CD8064A9279322AEED09B
:1007D000212BF0D8002CF3D001210420FFF73CFF9F
:1007E000EEE710BD2800002070B5124B0022DA7130
:1007F00080219024E40501320902200000F0C5FFA9
:100800000D4E01224021300000F0BFFF0B4D0C21A6
:10081000280001F0A3FD00220221300000F0B5FF06
:100820000421280001F09AFD00228021200000F020
:10083000ACFF70BD280000200004004874000020B8
:1008400010B51F4B00229A710120FFF72DFF0024E5
:100850001CE0FFF7C9FF1B4B22229A63322000F0F5
:1008600009FC174B1B78242B02D8FFF797FF10BD0C
:10087000FFF76EFFFBE7124B1B78042B14D9012402
:1008800012E000210220FFF7E7FE00240C4B1B784A
:10089000002BECD080210C4800F070FF0028D8D04D
:1008A000074B9B79322BE6D0054B1B78032BE8D9FD
:1008B000002CEBD001210220FFF7CEFEE6E7C04678
:1008C00028000020000400400004004870B5FFF735
:1008D0008BFF9024E40501221021200000F055FF39
:1008E00000222021200000F050FF012240212000A2
:1008F00000F04BFFFA25AD00280000F0BBFB002202
:100900001021200000F041FF01222021200000F0F2
:100910003CFF00224021200000F037FF280000F0BB
:10092000A9FB01221021200000F02FFF012220212D
:10093000200000F02AFF01224021200000F025FFC6
:1009400070BD000010B52C4B0022DA7134E0643029
:1009500000F090FB0AE00020FFF7A6FE264B0022E5
:10096000DA7190204021C00500F00FFF20212348BC
:1009700000F004FF0028EED02AE00020FFF7BEFEC2
:100980001D4B0022DA7190201021C00500F0FDFE01
:1009900080211A4800F0F2FE0028EED09024E405F1
:1009A00001221021200000F0F0FE01224021200051
:1009B00000F0EBFEFFF718FF1021104800F0DEFEFC
:1009C00000280FD020210D4800F0D8FE0028BED00E
:1009D00080210A4800F0D2FE0028DFD1643000F008
:1009E00049FBD5E7FFF772FFFA20C00000F042FB99
:1009F000014B00221A7010BD28000020000400489E
:100A0000FEE7000000B585B019481A4B03600023CB
:100A100043608360C36001220261042141618361FC
:100A2000C36102624362C222FF328262C362036315
:100A3000436300F085FB00280FD10323019380233B
:100A40005B01029380235B05039301A9084800F032
:100A5000C9FC002806D105B000BDE421FF310648DD
:100A6000FFF7CEFFEE21FF310348FFF7C9FFC04675
:100A7000F800002000240140BC24000800B58BB021
:100A80002148224B03600923436000238360EF2247
:100A9000C26003618033836101F062FB002822D1D0
:100AA00000230893099308A9174801F093FC002834
:100AB0001DD1602301933E3B0293002303930593D2
:100AC000042201A9104801F0A5FB002814D10C2232
:100AD00001A90D4801F09EFB002811D10A4800F041
:100AE00023FA0BB000BD0A490A48FFF789FF8221AB
:100AF00089000848FFF784FF07490648FFF780FF91
:100B000006490448FFF77CFF740000200004004001
:100B100001020000BC2400081102000016020000BF
:100B200010B50B480B4B03600B4B436000238360F5
:100B3000E022FF32C260036143618033836101F0D0
:100B4000F5FA002800D110BD04490548FFF758FF09
:100B500044010020004401400F2700003B02000038
:100B6000BC24000810B50A480A4B03600A4B4360D6
:100B7000002383602F22C26003614361836101F01F
:100B8000D5FA002800D110BD04490548FFF738FF09
:100B90003000002000480140E70300004D02000043
:100BA000BC24000810B50A480A4B03600A4B436096
:100BB000002383601722C2600361836101F0B6FAEB
:100BC000002800D110BD05490548FFF719FFC046B0
:100BD000B800002000200040E703000029020000C8
:100BE000BC24000800B591B012230493113B079375
:100BF00009930F3308930A930E3B0C9300230D9334
:100C0000A02292030E920F9304A800F0C5FD0028C5
:100C100021D107230093053B0193002302938023F6
:100C2000DB0003930121684601F01EF8002817D16C
:100C300001F0C4F8FA218900FFF766FA00F0A6FC7B
:100C4000042000F0BFFC012000220021404200F0FF
:100C500063FC11B000BDB021FF310448FFF7D0FEA6
:100C6000DE2149000148FFF7CBFEC046BC24000846
:100C700010B500F0E1F9FFF7B5FFFFF7E5FBFFF76F
:100C8000C1FEFFF7FBFEFFF74BFFFFF76BFFFFF720
:100C900089FFFFF71BFE434800F010FB424801F0BC
:100CA00047F9424801F044F9414801F041F9FFF7A2
:100CB00049FE5DE03B4C200000F090FB3D4B58802E
:100CC000200000F0FBFA59E0643000F0D3F907E0AF
:100CD000902000224021C00500F057FDFFF75EFD87
:100CE0008021354800F04AFD00284DD1334B1B7858
:100CF000252B04D03A2B0ED0002BF1D1E8E7902021
:100D000000221021C00500F040FDC82000F0B2F91B
:100D1000FFF796FDE4E7902000221021C00500F0C7
:100D200034FDC82000F0A6F9FFF78AFDD8E790202F
:100D300000222021C00500F028FDFFF709FD202139
:100D40001D4800F01BFD0028F1D09024E40501228D
:100D50001021200000F019FD01222021200000F0C8
:100D600014FD01224021200000F00FFDFFF73CFDA3
:100D70000A210C4800F0D2FA00289BD080210E48AE
:100D800000F0FCFC00289FD020210B4800F0F6FC6E
:100D90000028DAD1094B1B78392BD6D8643000F003
:100DA00069F9CCE7F8000020B800002044010020D9
:100DB000300000200000002000040048280000202F
:100DC00000B583B0124B9969012211439961996969
:100DD0000A400092009ADA69802149050A43DA61E3
:100DE000DB690B400193019B05200022002140425A
:100DF00000F092FB022000220021404200F08CFB18
:100E0000012000220021404200F086FB03B000BD1B
:100E10000010024000B587B002680E4B9A4201D024
:100E200007B000BD0C4A91698020800001439161A8
:100E3000936903400093009B08230193053B0293B1
:100E4000002303937138FF3801A9C00500F0D0FBDF
:100E5000E6E7C046002401400010024082B002686C
:100E6000074B9A4201D002B07047064AD16902236B
:100E70001943D161D26913400193019BF3E7C04646
:100E8000000400400010024000B585B00368224A0B
:100E9000934207D0214A934217D0214A934227D048
:100EA00005B000BD1F4AD169802040000143D161D7
:100EB000D36903400193019B00220021ED3800F02B
:100EC0002BFB132000F058FBEAE7164A91698020BB
:100ED000800201439161936903400293029B0022C7
:100EE0000021152000F018FB152000F045FBD7E786
:100EF0000C4A91698020C0020143916193690340CB
:100F00000393039B00220021162000F005FB16200E
:100F100000F032FBC4E7C04600200040004401401E
:100F2000004801400010024070B586B002680E4BC8
:100F30009A4201D006B070BD80230193022502952C
:100F400000240394049401260596902001A9C0056D
:100F500000F04EFB0195029503940494059601A9B7
:100F6000024800F045FBE5E70004004000040048AB
:100F70007047FEE77047704710B500F06DF800F05D
:100F800032FB10BD10B5024800F0E1FF10BDC046B5
:100F9000B800002010B5024800F0D9FF10BDC046CF
:100FA0004401002010B5024800F0D1FF10BDC0463A
:100FB00030000020114B1A6801210A431A605A6858
:100FC0000F4802405A601A680E4802401A601A68B8
:100FD0000D4802401A605A680C4802405A60DA6AAA
:100FE0000F208243DA621A6B094802401A635A6B77
:100FF0008A435A6300229A607047C046001002403C
:101000000CB8FF08FFFFF6FEFFFFFBFFFFFFC0FF6E
:10101000ECFEFFFF10B5040000F0D0FEFA218900BD
:10102000FFF772F800F0B2FA0120002221004042DE
:1010300000F072FA002010BD10B5064A13681021A6
:101040000B4313600020FFF7E5FFFFF7B9FE002018
:1010500010BDC04600200240024A136801331360ED
:101060007047C04684010020014B18687047C04695
:101070008401002030B583B00190FFF7F5FF050033
:10108000019C631C00D00134FFF7EEFF401BA0421F
:10109000FAD303B030BD000030B583B004000023A4
:1010A00001930368996803220A40012A0ED09968C7
:1010B000204A114212D19A6801210A439A601E4BBC
:1010C00018681E49FFF720F8019015E01A68D2074A
:1010D0002DD4DA681204EAD5002008E0636C1022EF
:1010E00013436364A36C0F3A1343A364012003B05A
:1010F00030BD019B013B0193019B002BF9D1FFF710
:10110000B3FF050023681B68DB070ED4FFF7ACFFB5
:10111000401B0228F6D9636C102213436364A36C4E
:101120000F3A1343A3640120E1E70020DFE700202A
:10113000DDE7C046170000800800002040420F0095
:1011400070B5041E00D1B0E0436C002B7DD0636C01
:10115000DB0600D5A3E021688B6804221A4000D08A
:101160009DE0636C524803400630FF3003436364E4
:10117000886803230340012B6DD0CB68182083437C
:10118000A0680343CB6021680B699B009B086068E3
:1011900003430B612168CB6846480340CB60A369D9
:1011A0009B03E169C9030B43216A48030343606B56
:1011B000012857D0802040010343E06803432069A1
:1011C000022851D01343226B52001343626A012A52
:1011D0004CD0A26AC221FF318A4202D0E16A0A439E
:1011E00013432168CA681A43CA60A26B802149056B
:1011F0008A420DD0012A0BD0022A09D0032A07D037
:10120000042A05D0052A03D0062A01D0072A0AD1CC
:101210002068416907229143416120684169A56BBB
:101220002A400A4342612268D26823490A409A420E
:101230002BD0636C12229343023A13436364A36C72
:101240000F3A1343A36401202EE0836440228354A9
:10125000FFF7E0FD7BE70B68DB079BD4CB681B0443
:1012600098D48AE71000A7E70422ABE7002903D14E
:10127000802252021343ACE7626C20210A4362646D
:10128000A26C1F390A43A264A3E70023A364636C22
:1012900003229343023A13436364002004E0636C27
:1012A000102213436364012070BD0120FCE7C04697
:1012B000FDFEFFFF1902FEFFE7FF3F8310B50400AC
:1012C00003689B685B0723D44023C35C012B21D0B8
:1012D00040230122C254C369012B14D10020636C46
:1012E0000D4A1A4080235B00134363640023A36408
:1012F0004022A3542368243A1A6022689368042188
:101300000B43936010BDFFF7C7FE0028E7D0F9E755
:101310000220F7E70220F5E7FEF0FFFFF8B5040032
:101320000E004569082D04D00368DB68DB0719D47B
:101330000C25FFF799FE070023681A6815421AD199
:10134000731CF9D0002E04D0FFF78EFEC01BB042F4
:10135000F2D9636C04221343636440230022E254F5
:10136000032007E0436C2022134343644023002200
:10137000C2540120F8BD616C802292000A4362646D
:10138000D968C0221201114213D1226A002A10D159
:101390001A6812070DD59A68520712D45A680C21A0
:1013A0008A435A60636C0C4A13400432FF32134381
:1013B0006364A369002B0DD123680C221A600020FE
:1013C000D8E7636C202213436364A36C1F3A134372
:1013D000A364EEE70020CDE7FEFEFFFF0368186C74
:1013E0007047000030B583B0040000230193403300
:1013F000C35C012B00D181E040230122C254036869
:101400009A68520770D43E4A4868904253D09A6A0C
:1014100001200D68A84002439A62A36B8022520506
:1014200093421ED0012B1CD0022B1AD0032B18D0B4
:10143000042B16D0052B14D0062B12D0072B10D05E
:1014400022685069072303408868984209D0506990
:10145000072398435061206842698D682B401343ED
:1014600043610B681A00103A012A01D9002040E0BC
:10147000244A1268102B09D08023DB031343214A2E
:1014800013600B68102B04D0002032E080231B0473
:10149000F4E71D4B18681D49FEF736FE8300181847
:1014A0004300019302E0019B013B0193019B002B50
:1014B000F9D100201DE09A6A01200D68A8408243FE
:1014C0009A620B681A00103A012A01D9002010E034
:1014D0000C4A1268102B05D00D4B1340094A1360BB
:1014E000002006E00B4BF8E7436C202213434364D3
:1014F000012040230022E25403B030BD0220FBE76C
:1015000001100000082701400800002040420F00A1
:10151000FFFFBFFFFFFF7FFF70B5002811DB8408CE
:10152000134DC034A400625903231840C000FC339B
:101530001E008640B24389010B4083401343635130
:1015400070BDC0B20F220240083A920806329200E3
:10155000084BD3185D6803242040C000FF2214000C
:101560008440A54389010A4082402A435A60E7E744
:1015700000E100E000ED00E01F2318401E3B834027
:10158000014A13607047C04600E100E001380A4B91
:1015900098420FD8094A50600948036A1B021B0A87
:1015A000C02109060B4303620023936007331360D5
:1015B000002070470120FCE7FFFFFF0010E000E083
:1015C00000ED00E0042805D0054A136804218B4390
:1015D00013607047024A136804210B431360F8E755
:1015E00010E000E0704710B5FFF7FCFF10BD0000F1
:1015F000F0B5C64600B582B0002338E0032600E00F
:101600000026AE4035003D430234A400554EA5519E
:10161000554C25684246D4432E0026404A68D203E2
:1016200002D5424615432E004F4D2E606D682E00A8
:1016300026404A68920302D5424615432E004A4D81
:101640006E60AD682E0026404A68D20202D542463E
:1016500015432E00444DAE60ED682C404A6892025E
:1016600002D542462A4314003F4AD46001330A6837
:101670001400DC4071D001259D402A409046F5D0F1
:101680004C68022C01D0122C0ED1DC080834A400C6
:10169000275807261E40B6000F22B24097430A691A
:1016A000B24016003E43265002685F000324260025
:1016B000BE40F643324094464A681440BC406246FD
:1016C000144304604C68621E012A03D9112C01D016
:1016D000122C10D184683440A446CC68BC406246C9
:1016E000144384604468AC434A68120901251540DC
:1016F0009D4025434560C46826408C68BC40344307
:10170000C4604A68D200B1D5184DAE6901242643A1
:10171000AE61AD692C400194019C9C08A51CAD00F4
:10172000104EAF5903251D40AD000F26AE40B74304
:101730009026F605B04200D162E70D4EB04208D0C7
:101740000C4EB04207D00C4EB04200D156E70526F1
:1017500057E7012655E7022653E702B004BC90463E
:10176000F0BDC046000001400004014000100240EE
:101770000004004800080048000C004803690B42C0
:1017800001D1002070470120FCE7002A01D18162CD
:1017900070478161FCE7000070B582B00400036807
:1017A000DB0726D5AE4B5A680C231340042B18D008
:1017B000AB4B5A680C231340082B0ED06368012BE7
:1017C0003CD0002B51D1A64B1A68A6490A401A609A
:1017D0001A68A5490A401A6036E0A14B5B68DB0332
:1017E000ECD59F4B1B689B0303D56368002B00D18E
:1017F000ECE123689B0773D5994B5B680C221A4276
:101800005DD0974B5A680C231340082B53D0E368E4
:10181000002B00D186E0924A136801210B4313602C
:10182000FFF722FC05008E4B1B689B0771D4FFF766
:101830001BFC401B0228F6D90320CAE1884A116824
:1018400080235B020B4313606368002B25D0FFF7F6
:101850000BFC0500824B1B689B03CAD4FFF704FCFA
:10186000401B6428F6D90320B3E1052B09D07C4B3B
:101870001A687C490A401A601A687B490A401A6053
:10188000E2E7774B19688022D2020A431A6019688E
:10189000802252020A431A60D6E7FFF7E5FB0500F3
:1018A0006F4B1B689B03A4D5FFF7DEFB401B64282E
:1018B000F6D903208DE16A4B5B68DB03A7D4684B44
:1018C0001B689B0704D5E368012B01D0012080E150
:1018D00063490B68F82293432269D20013430B60DB
:1018E00023681B0744D5E369002B2ED05C4A536A5A
:1018F00001210B435362FFF7B7FB0500584B5B6AAE
:101900009B0735D4FFF7B0FB401B0228F6D9032014
:101910005FE153490B68F82293432269D2001343D5
:101920000B60DDE74E4A136801218B431360FFF71C
:101930009BFB05004A4B1B689B07D1D5FFF794FB27
:10194000401B0228F6D9032043E1454A536A01218E
:101950008B435362FFF788FB0500414B5B6A9B0793
:1019600006D5FFF781FB401B0228F6D9032030E1A2
:1019700023685B0700D47FE0394BDB69DB001DD4B3
:10198000374AD169802040050143D161D3690340C2
:101990000193019B0125354B1B68DB0510D5A3681E
:1019A000012B21D0002B36D12D4B1A6A01218A43FD
:1019B0001A621A6A03318A431A621AE00025EAE7BA
:1019C0002A4A116880235B000B431360FFF74CFB2E
:1019D0000600264B1B68DB05E1D4FFF745FB801BA7
:1019E0006428F6D90320F4E01D4A136A01210B4351
:1019F0001362A368002B24D0FFF736FB0600184BB8
:101A00001B6A9B0736D4FFF72FFB801B184B9842AD
:101A1000F5D90320DDE0052B09D0114B1A6A01210D
:101A20008A431A621A6A03318A431A62E1E70C4B4D
:101A30001A6A04210A431A621A6A03390A431A62AB
:101A4000D7E7FFF711FB0600054B1B6A9B0711D573
:101A5000FFF70AFB801B064B9842F5D90320B8E03C
:101A600000100240FFFFFEFFFFFFFBFF0070004081
:101A700088130000012D33D02368DB0610D563697D
:101A8000012B33D0053351D1544A536B04218B437E
:101A90005363536BF4318B43A169C9000B43536308
:101AA000236A002B00D193E04C4A51680C220A4073
:101AB000082A00D18FE0022B4FD0484A13684849CA
:101AC0000B401360FFF7D0FA0400444B1B689B01E6
:101AD0007AD5FFF7C9FA001B0228F6D9032078E06F
:101AE0003E4AD3693F490B40D361C5E73B4B5A6B34
:101AF00004210A435A635A6B03390A435A63FFF7B6
:101B0000B3FA0500354B5B6B9B0706D4FFF7ACFAC5
:101B1000401B0228F6D903205BE030494B6BF822CA
:101B20009343A269D20013434B63B9E72B4B5A6B23
:101B300004210A435A635A6B03398A435A63FFF7F5
:101B400093FA0500254B5B6B9B07A9D5FFF78CFA31
:101B5000401B0228F6D903203BE0204A13682049A5
:101B60000B401360FFF780FA05001C4B1B689B01BC
:101B700006D5FFF779FA401B0228F6D9032028E0A2
:101B8000164BDA6A0F218A43E16A0A43DA625A681D
:101B900015490A40A16A606A01430A435A601968FC
:101BA000802252040A431A60FFF75EFA04000B4BCE
:101BB0001B689B0106D4FFF757FA001B0228F6D9D1
:101BC000032006E0002004E0002002E0012000E005
:101BD000002002B070BD0120FBE7C04600100240AB
:101BE000FFFFFFFEFFFFFFEFFFFFC2FF30B589B031
:101BF00004AA194B180032C832C2110002680A60E8
:101C00006A46103313CB13C21B681360134B5A6818
:101C10000C231340042B03D0082B04D0104800E001
:101C2000104809B030BD910C0F23194004A8445C42
:101C30000A49C96A0B406946C95CD30304D50948FF
:101C4000FEF762FA6043ECE763011B1B9801C01AC0
:101C5000C00004192002E4E79C24000800100240A0
:101C600000127A00808D5B0070B505000C004D4BB2
:101C70001A68012313408B420BD24A490B68012298
:101C8000934323430B600B681A40A24201D001200A
:101C900070BD2B689B0706D5434A5368F0218B43E0
:101CA000A9680B4353602B68DB074BD56B68012B8E
:101CB00020D0022B24D03C4A126892076FD53A49B3
:101CC0004A680320824313434B60FFF7CDF90600B7
:101CD0006B68012B1AD0022B26D0334B5B680C2289
:101CE0001A422FD0FFF7C0F9801B304B9842F4D92D
:101CF0000320CDE72C4A12689203E0D40120C7E705
:101D0000294A12689201DAD40120C1E7264B5A68A9
:101D10000C231340042B15D0FFF7A6F9801B234B8F
:101D20009842F3D90320B3E71F4B5A680C231340A2
:101D3000082B07D0FFF798F9801B1C4B9842F3D96A
:101D40000320A5E7174B1A6801231340A3420BD9C0
:101D500014490B680122934323430B600B681A401C
:101D6000A24201D0012093E72B685B0706D50E4AFB
:101D700053680F490B40E9680B435360FFF736FF88
:101D8000094B5A6812090F2313400A4AD35CD84002
:101D9000094B18600020FFF73DF9002078E701208B
:101DA00076E7C04600200240001002408813000081
:101DB000FFF8FFFF8424000808000020014B18688A
:101DC0007047C0460800002030B5036A01229343E3
:101DD0000362036A426884697325AC430D682C432F
:101DE0000225AB438D682B43114DA84205D0114D00
:101DF000A84202D0104DA84205D10825AB43CD68BA
:101E00002B430425AB430A4DA84205D0094DA842F7
:101E100002D0094DA84205D1084D2A404D692A43F8
:101E20008D692A43426084614A684263036230BD1F
:101E3000002C01400044014000480140FFFCFFFF2E
:101E400070B5036A184A13400362036A4268C469A2
:101E50007325AC430E682643144C23408C6824023F
:101E60002343134CA04216D0114CA04205D0114C74
:101E7000A04202D0104CA04207D1104C14404A6935
:101E8000120122438C6925012A434260C6614A68D7
:101E9000C263036270BD0A4C1C40CB681B02234323
:101EA000084C2340E0E7C046FFFEFFFFFFFDFFFFB9
:101EB000002C01400044014000480140FFCFFFFFDB
:101EC000FFF7FFFFFFFBFFFF30B5036A114A134026
:101ED0000362026A4368C4690F4D2C400D682D02ED
:101EE0002C430E4D15408A6812032A430C4DA8421C
:101EF00005D00C4DA84202D00B4DA84204D10B4D89
:101F00002B404D69AD012B434360C4614B680364B2
:101F1000026230BDFFEFFFFFFF8CFFFFFFDFFFFF1F
:101F2000002C01400044014000480140FFBFFFFF7A
:101F30000368DA6801210A43DA60026813680B4318
:101F4000136000207047704770477047704710B5A6
:101F5000040003681A6992070FD5DA6892070CD556
:101F6000032252421A610123037703689B699B078E
:101F700063D0FFF7E9FF0023237723681A6952072C
:101F800012D5DA6852070FD5052252421A61022390
:101F9000237723689A69C0239B001A4253D02000FC
:101FA000FFF7D2FF0023237723681A69120710D5A1
:101FB000DA6812070DD5092252421A6104232377E9
:101FC0002368DB699B0745D02000FFF7BDFF002396
:101FD000237723681A69D20612D5DA68D2060FD59C
:101FE000112252421A61082323772368DA69C02339
:101FF0009B001A4235D02000FFF7A6FF002323776D
:1020000023681A69D20702D5DA68D20730D4236868
:102010001A69120602D5DA68120630D423681A69E2
:10202000520602D5DA68520630D423681A6992063D
:1020300002D5DA68920630D410BDFFF784FF200085
:10204000FFF783FF97E72000FFF77DFF2000FFF7F2
:102050007CFFA7E72000FFF776FF2000FFF775FF62
:10206000B5E72000FFF76FFF2000FFF76EFFC5E721
:10207000022252421A612000FEF73EFAC7E781228F
:1020800052421A61200000F0CCF9C7E741225242C7
:102090001A612000FFF75AFFC7E7212252421A6156
:1020A000200000F0BDF9C7E703681A4A904202D049
:1020B000194A904203D1702293434A681343154A48
:1020C00090420BD0144A904208D0144A904205D056
:1020D000134A904202D0134A904203D1124A13404D
:1020E000CA681343802293434A69134303608B6891
:1020F000C3620B688362074B984205D0084B984235
:1021000002D0084B984201D10B690363012343615C
:102110007047C046002C01400004004000200040F1
:102120000044014000480140FFFCFFFF70B5041E61
:1021300014D03D23C35C002B0AD03D2502236355F8
:10214000211D2068FFF7B0FF01236355002070BDFB
:102150003C330022C254FEF797FEEEE70120F6E77B
:1021600070B5041E14D03D23C35C002B0AD03D255E
:1021700002236355211D2068FFF796FF0123635555
:10218000002070BD3C330022C254FEF767FEEEE72C
:102190000120F6E770B5036A102293430362036AD5
:1021A00042688469164D2C400D682D022543202479
:1021B000A3438C6824012343124CA04216D0114C37
:1021C000A04205D0104CA04202D0104CA04207D132
:1021D0000F4C14404A69920022438C69A600324396
:1021E000426085614A688263036270BD8024A343B4
:1021F0001C00CB681B0123434024A343DFE7C046F8
:10220000FF8CFFFF002C01400044014000480140CA
:10221000FFF3FFFF70B504000D003C23C35C012BEE
:1022200069D03C230121C15401330131C154042A36
:1022300037D019D9082A4AD00C2A2AD12900006897
:10224000FFF742FE2268D16980231B010B43D36153
:102250002268D36929490B40D3612168CB692A6977
:1022600012021343CB6114E0002A12D12900006846
:10227000FFF7AAFD2268936908210B439361226846
:10228000936904398B4393612268936929690B43ED
:1022900093613D230122E254013B0022E2540020DD
:1022A00070BD29000068FFF775FF226891698023DF
:1022B0001B010B4393612268936910490B409361A2
:1022C00021688B692A69120213438B61E1E72900B7
:1022D0000068FFF7B5FD2268D36908210B43D3617D
:1022E0002268D36904398B43D3612268D369296991
:1022F0000B43D361CDE70220D2E7C046FFFBFFFFCF
:1023000010B501248C40036AA3430362036A8A4028
:102310001A43026210BD000010B5040001220068DB
:10232000FFF7EEFF23680A4A934205D0094A934219
:1023300002D0094A934204D1596C802212020A4306
:102340005A642268136801210B431360002010BDFA
:10235000002C0140004401400048014010B5040039
:1023600000220068FFF7CCFF2368144A934217D07D
:10237000134A934214D0134A934211D02368196A26
:10238000114A114207D1196A104A114203D11A6841
:1023900001218A431A603D230122E254002010BD2E
:1023A000196A094A1142E9D1196A084A1142E5D16C
:1023B0005A6C07490A405A64E0E7C046002C0140C5
:1023C0000044014000480140111100004404000095
:1023D000FF7FFFFFF0B53C23C35C012B1ED03C22E6
:1023E000012585543D240223035506687368702730
:1023F000BB437360066873680F683B43736006688D
:10240000B3688027BB43B3600668B36849680B4371
:10241000B3600555002383540020F0BD0220FCE783
:102420007047704770B500260C4D0D4C641BA4100E
:10243000A64209D1002600F019F80A4D0A4C641B87
:10244000A410A64205D170BDB300EB5898470136E1
:10245000EEE7B300EB5898470136F2E7E8240008AE
:10246000E8240008E8240008EC240008F8B5C04679
:10247000F8BC08BC9E467047F8B5C046F8BC08BC1E
:042480009E467047BD
:102484000000000000000000010203040607080920
:102494000000000001020304020304050607080902
:1024A4000A0B0C0D0E0F1010010203040506070899
:1024B400090A0B0C0D0E0F10443A2F4D6F6A65205C
:1024C400646F6B756D656E74792F53444320343893
:1024D4002F5344435F34382F5372632F6D61696EF9
:0424E4002E63000063
:0424E800E9000008FF
:0424EC00C100000823
:0C24F000780064002200000000127A0056
:04000005080003F5F7
:00000001FF
