:020000040800F2
:10000000000001206D9A0008999900089B9900084A
:100010009D9900089F990008A19900080000000020
:100020000000000000000000000000000131000896
:10003000A399000800000000A1310008A59900085C
:10004000B59A0008B59A0008B59A0008B59A000854
:10005000B59A0008B59A0008B59A0008B59A000844
:10006000B59A0008B59A0008B59A0008B59A000834
:10007000B59A0008B59A0008B59A0008B59A000824
:10008000B59A0008B59A0008B59A0008B59A000814
:10009000B59A0008B59A0008B59A0008B59A000804
:1000A000B59A0008B59A0008B59A0008B59A0008F4
:1000B000B59A0008B59A0008B59A0008B59A0008E4
:1000C000B59A0008B59A0008B59A0008B59A0008D4
:1000D000B59A0008B59A0008B59A0008B59A0008C4
:1000E000B59A0008B59A0008B59A0008000000000B
:1000F0000000000000000000000000000000000000
:100100000000000000000000B59A0008B59A000841
:10011000B59A0008B59A0008B59A0008AD9900088C
:10012000B59A0008B59A0008B59A0008B59A000873
:10013000B59A0008BD990008B59A0008B59A00085C
:10014000B59A0008B59A0008B59A0008B59A000853
:10015000000000000000000000000000000000009F
:10016000000000000000000000000000000000008F
:10017000000000000000000000000000000000007F
:10018000000000000000000000000000000000006F
:10019000000000000000000000000000000000005F
:1001A000000000000000000000000000000000004F
:1001B000000000000000000000000000000000003F
:1001C000000000000000000000000000000000002F
:1001D000000000000000000000000000000000001F
:0401E0005FF8E0F1F3
:1001F00010B5054C237833B9044B13B10448AFF361
:1002000000800123237010BD80000020000000004A
:10021000949C000808B5034B1BB103490348AFF396
:10022000008008BD0000000084000020949C0008AD
:1002300053B94AB9002908BF00281CBF4FF0FF314D
:100240004FF0FF3000F074B9ADF1080C6DE904CE49
:1002500000F006F8DDF804E0DDE9022304B07047A1
:100260002DE9F0478C460446089E002B4BD18A426C
:10027000154667D9B2FA82F24AB1C2F1200701FAF3
:1002800002F320FA07F7954047EA030C94404FEA3F
:10029000154EBCFBFEF71FFA85F80EFB17C307FBD4
:1002A00008F9210C41EA0343994509D9EB1807F1F4
:1002B000FF3180F01C81994540F21981023F2B44A7
:1002C000A3EB0903B3FBFEF00EFB103300FB08F1B8
:1002D000A4B244EA0344A14209D92C1900F1FF3326
:1002E00080F00781A14240F2048102382C4440EAA8
:1002F00007400027641A1EB10023D440C6E900431A
:100300003946BDE8F0878B4209D9002E00F0EC8019
:100310000027C6E9000138463946BDE8F087B3FA40
:1003200083F7002F48D18B4202D3824200F2FB8038
:10033000841A61EB030301209C46002EE0D0C6E93D
:10034000004CDDE702B9FFDEB2FA82F2002A40F08B
:100350008F800127491B4FEA15481FFA85F9B1FB29
:10036000F8FE08FB1E1109FB0EF04FEA144C4CEA94
:100370000143984207D9EB180EF1FF3102D298429F
:1003800000F2CD808E461B1AB3FBF8F008FB103349
:1003900009FB00F9A4B244EA0344A14507D92C198A
:1003A00000F1FF3302D2A14500F2B6801846A4EB5B
:1003B000090440EA0E409EE7C7F12005BB4022FA3F
:1003C00005FC4CEA030C21FA05F44FEA1C4EB4FB81
:1003D000FEF91FFA8CF80EFB194420FA05F3B94018
:1003E00009FB08FA19430B0C43EA0444A24502FA3C
:1003F00007F200FA07F30BD91CEB040409F1FF30F4
:1004000080F08880A24540F28580A9F10209644409
:10041000A4EB0A04B4FBFEF00EFB104400FB08FA48
:1004200089B241EA0444A24508D91CEB040400F156
:10043000FF316BD2A24569D90238644440EA0940D1
:10044000A0FB0289A4EB0A044C454146CE4654D396
:1004500051D0002E69D05A1A64EB0E0404FA05F547
:1004600022FA07F3FC401D43C6E90054002747E782
:100470009540C2F1200321FA03F04FEA1548B0FB82
:10048000F8F71FFA85F908FB170024FA03F39140E7
:1004900007FB09FC0B43190C41EA00418C4504FAA7
:1004A00002F407D9691807F1FF3031D28C452FD9F2
:1004B000023F2944A1EB0C01B1FBF8F008FB101C32
:1004C00000FB09FE99B241EA0C418E4507D9691833
:1004D00000F1FF3318D28E4516D902382944A1EB1A
:1004E0000E0140EA07473AE73746304608E70F462D
:1004F000E6E61846FBE64345ABD2B8EB020169EBF2
:100500000C0201389646A4E71846E8E7084695E746
:100510000746CFE781467BE702382C4447E7AEF138
:10052000020E2B442FE7384607E73746E8E600BFC0
:10053000704700BF08B5074A136843F01003136003
:10054000032000F02FF8002009F0E8F909F080F905
:10055000002008BD00200240034A1168034B1B78AD
:100560000B441360704700BF986700200000002014
:10057000014B1868704700BF9867002038B50446E3
:10058000FFF7F6FF0546B4F1FF3F02D0044B1B789E
:100590001C44FFF7EDFF401BA042FAD338BD00BF5B
:1005A00000000020074AD36823F4E0631B041B0CFF
:1005B000000200F4E060184340F0BF6040F40030F7
:1005C000D060704700ED00E030B4174BDB68C3F338
:1005D0000223C3F10704042C28BF04241D1D062D8B
:1005E00018D9033B4FF0FF3505FA04F421EA040162
:1005F000994005FA03F322EA0303194300280BDBB1
:100600000901C9B200F1604000F5614080F80013B3
:1006100030BC70470023E5E700F00F000901C9B2C4
:10062000024B1954F4E700BF00ED00E014ED00E0C8
:1006300000F01F02400901239340024A42F8203093
:10064000704700BF00E100E00138B0F1807F0AD2BE
:10065000064B5860064AF02182F82310002098606B
:1006600007221A6070470120704700BF10E000E0C9
:1006700000ED00E0042805D0054A136823F00403C8
:1006800013607047024A136843F004031360704715
:1006900010E000E058B110B5044643791BB10123C6
:1006A0006371002010BD037109F022F9F7E7012002
:1006B000704700005079137943EA002307480B5034
:1006C000D07893781B0443EA0063507843EA002310
:1006D00012781343024A8B50704700BF408002409B
:1006E00044800240016841F218028B5843F40053E1
:1006F0008B507047016841F218028B5843F0020397
:100700008B50704782B0084B1B68084AA2FB03233A
:100710005B0A00FB03F0019000BF019B5A1E01928F
:10072000002BF9D102B0704718000020D34D6210A1
:1007300010B582B00446002301930268136843F0A9
:100740000803136003681B6801930120FFF7DAFFB9
:100750002368019A1A6002B010BD10B582B0044639
:10076000002301930268136843F0040313600368D5
:100770001B6801930120FFF7C5FF2368019A1A60E7
:1007800002B010BD30B583B0054600230193026866
:1007900041F21804135943F48013135103681B5991
:1007A00001930120FFF7AEFF2B68019A1A5103B0A5
:1007B00030BD000070B59EB0044629B14FF400630F
:1007C000C3604FF480438360E369002B6AD14FF428
:1007D0008063079321680B68394A1A40A368E06870
:1007E00003430798034343F4007313430B602368E8
:1007F0001D680120FFF7C2FE23681D6023684022A8
:100800005A6023685D680120FFF7B8FE23685D60C9
:10081000236800259D602368DD602268936923F0CA
:10082000BE031B041B0C43F08003936123689E6985
:100830000120FFF7A3FE23689E612368DD61236822
:10084000DD690120FFF79AFE2368DD61226841F22D
:10085000180551591B4B0B4043F0087343F0040338
:10086000535123685E590120FFF788FE23685E51CB
:10087000236803F58053144A1A60236803F58053F4
:100880001D680120FFF77AFE236803F580531D6081
:10089000A369012B09D0626900212046FFF70AFFF6
:1008A0001EB070BD0023079394E7216841F21C023B
:1008B0008B5843F4803343F040038B50EBE700BF89
:1008C0000F8120FF233FDEF80020C102F0B490F832
:1008D0004540012C31D0012480F84540022480F8A5
:1008E0004440C162002401E0F96001349C4217D207
:1008F00025014F194FF480164E5140F2F45606FB75
:100900000426BE60C6691EB94E5946F440064E51D3
:100910005D1EA542E8D9651C01EB0515FD60E4E705
:10092000026841F21003D150012380F844300023C3
:1009300080F845301846F0BC70470220FBE7F0B461
:1009400090F84540012C2ED0012480F84540022427
:1009500080F844408162002401E0E96001349C4257
:1009600014D226018D194FF000478F5144F2F456EE
:100970006E6040F2F45606FB0426AE605E1EA64290
:10098000EBD9661C01EB0616EE60E7E7026841F260
:100990000C03D150012380F84430002380F8453007
:1009A0001846F0BC70470220FBE7000090F8453085
:1009B000012B00F08580012380F84530022380F868
:1009C0004430B1B1C36A1A68002A1ADB30B440F26D
:1009D000F45291421DD93B4AA2FB0142920A40F2D5
:1009E000F45404FB121404B10132012A11D0002383
:1009F00047E0012380F84430002280F84520184663
:100A00007047122380F84430002380F845300120DD
:100A100070471A6842F040521A60C36AC1F30C0171
:100A20005960C26A136843F000431360C36ADB680D
:100A3000C362036841F214029A5812F0040F08D0FE
:100A400041F2140204219950026841F2040300218A
:100A5000D150012380F84430002380F845301846F7
:100A600030BC7047C56A2C6844F080542C6011E09B
:100A7000C56A2C6844F000442C60C46AE468C4620F
:100A800001339A42D5D9C56A2C6824F040542C60B1
:100A9000002BE7D0C46A40F2F4556560541E9C42B6
:100AA000E6D1C56A2C6844F000542C60064C04FB67
:100AB000021404F2F454C56AC4F30C046C60D7E762
:100AC000022070470BB002AC0CFAFFFF90F84530E3
:100AD000012B45D0012380F84530022380F84430B3
:100AE00000210AE0036301228263DB68836204E081
:100AF000826B01328263DB688362836A1A68002A30
:100B000026DB072924D801311A6802F44072B2F5B5
:100B1000007FE7D01A6812F4407FE9D04363826B0C
:100B200001328263012A11D01A68C2F30D42043ADD
:100B3000C263026B92680264DB688362012380F8FF
:100B40004430002380F84530184670470363EBE7D4
:100B5000012380F84430002280F845201846704771
:100B6000022070477047704710B50446036841F291
:100B700014029A5812F0400F11D141F214029B58FE
:100B800013F0010F19D1226841F214034FF48031A0
:100B9000D1502268D35813F4004F1BD110BD08F078
:100BA0000BFD226841F214034021D150012384F847
:100BB0004430002384F84530E5E7FFF7D3FF216890
:100BC000012341F214028B5084F84430002384F84E
:100BD0004530D8E72046FFF7C6FF226841F21403EC
:100BE0004FF40041D150012384F84430002384F8AD
:100BF0004530D3E7F8B590F84430DBB2822B33D0E0
:100C000016460546822380F844300268136903F0D3
:100C10001C03048AE402A4B223438C0104F4F864A4
:100C20001C4344F001041461FFF7A2FC074614F0D2
:100C3000010F10D0FFF79CFCC01BB0F5803F02D223
:100C40002B681C69F3E7012385F84430002385F8FD
:100C50004530032007E02B685B699BB233600123BA
:100C600085F844300020F8BD0220FCE790F84430BD
:100C7000DBB2422B32D070B50546422380F84430B7
:100C80000068036903F01C032C8AE402A4B2234326
:100C90008C0104F4F8641C4344F0030492B24261F2
:100CA0002B681C61FFF764FC064614F0010F10D09E
:100CB000FFF75EFC801BB0F5803F02D22B681C69F9
:100CC000F3E7012385F84430002385F845300320FD
:100CD00003E0012385F84430002070BD02207047F6
:100CE00070B582B000230193002800F0F180044623
:100CF00090F8443043B3774B5A6822F400025A60AC
:100D00005A68216A0A435A60236803F580531A68B7
:100D100042F001021A60FFF72BFC0546236803F539
:100D20008052126812F0010F13D0FFF721FC401B14
:100D3000B0F5FA7FF2D9032584F84450002384F8F3
:100D40004530284602B070BD80F8453008F0C8FB39
:100D5000D1E71D6925F01C0500F08CFD5E4B0344B6
:100D60005E4A934255D845F0080523681D614FF44B
:100D7000004200212046FFF779FF0546002850D1A8
:100D8000FF20FFF7FBFB6368002B00F08180FFF77B
:100D9000EFFB064601AA01212046FFF72BFFFFF7D4
:100DA000E7FB801B41F28833984242D8019B13F045
:100DB000040FEFD04FF4805200212046FFF756FF7A
:100DC000002842D1FFF7D4FB064601AA01212046A4
:100DD000FFF710FFFFF7CCFB801B41F288339842EE
:100DE0003BD8019B13F0200FEFD001AA1021204621
:100DF000FFF700FF00283CD1019B13F0040F40D007
:100E00004FF40062E26013F0020F3DD00023A360B4
:100E10004EE0334B0344334A9342A6D845F00C05C9
:100E2000A3E701212046FFF7C5FC012584F84450C3
:100E300087E701212046FFF7BDFC012384F84430F9
:100E4000002384F8453003257BE701212046FFF786
:100E5000B1FC012584F8445073E701212046FFF7D7
:100E6000A9FC012384F84430002384F8453003258D
:100E700067E701212046FFF79DFC012584F84450D7
:100E80005FE70022E260BEE74FF48043A3600FE01B
:100E9000E268C2F3CF02A368C3F34F031A430021F1
:100EA0002046FFF7E3FE58B940F6FF70FFF766FBF8
:100EB00000212046FFF77EFC012384F8443040E700
:100EC00001212046FFF776FC012584F8445038E7DD
:100ED000012536E70000014000D3CEFEBFE1E4006B
:100EE00040F1E9FD3F787D0138B590F84530012BA0
:100EF0001AD00446012580F84550022380F844307A
:100F0000FFF716FC2046FFF728FC2046FFF73AFCC7
:100F10002046FFF7E7FB2046FFF7ECFB84F8445040
:100F2000002084F8450038BD0220FCE7F0B482B010
:100F300000263546A1E0002C59D0012C00D1CE6806
:100F4000FF2B68D88446FF2B68D8AC00DCF8002063
:100F50000F27A74022EA070206FA04F42243CCF83E
:100F600000204A6812F0805F00F086805E4A946933
:100F700044F001049461926902F001020192019A25
:100F8000AC08A71C594A52F8272005F00307BF00F8
:100F90004FF00F0C0CFA07FC22EA0C0C544A90425A
:100FA00042D002F5806290427FD002F5806290428A
:100FB0007DD002F58062904234D0042235E04D4F5E
:100FC000BC4214D00BD94C4FBC4210D007F580372F
:100FD000BC420CD0A7F58017BC42B1D107E0A7F501
:100FE0008017BC4203D007F58037BC42A8D18C687B
:100FF0007CB1012C08D042610826A1E7CE680836F2
:101000009EE7CE680C369BE70261082698E700262B
:1010100096E7042694E700F1040C94E7A5F1080490
:10102000A40093E7032200E00022BA4042EA0C0247
:1010300002342E4F47F824204A6812F4803F38D0FB
:101040002E4C22681A4322604A6812F4003F36D0C0
:101050002A4C62681A4362604A6812F4801F34D0D6
:10106000264CA2681A43A2604A6812F4001F32D0CC
:10107000224CE2681343E36001350F2D31D8012281
:10108000AA400B6813409A42F6D14C68122CB8D093
:1010900095D8022CB2D07FF64EAF032CB7D0112CCE
:1010A0007FF44EAFCE6804364AE70122BDE7022244
:1010B000BBE7124C226822EA03022260C4E70F4C0D
:1010C000626822EA03026260C6E70C4CA26822EA68
:1010D0000302A260C8E7094CE26822EA0303E36066
:1010E000CAE702B0F0BC70470010024000000140A7
:1010F00000080140000021100000311000040140F0
:1011000012B90904016170470161704782B0084B50
:101110001B68084AA2FB03235B0A00FB03F0019053
:1011200000BF019B5A1E0192002BF9D102B07047FB
:1011300018000020D34D621070B582B004460368D9
:1011400013F0010F2CD0AB4B5B6803F00C03042BA6
:101150001DD0A84B5B6803F00C03082B12D0A368CA
:10116000B3F5803F41D0002B55D103F1804303F507
:1011700004331A6822F480321A601A6822F480223A
:101180001A6037E09B4B5B6813F4803FE7D0994BC4
:101190001B6813F4003F03D0A368002B00F01F82EC
:1011A000236813F0020F76D0924B5B6813F00C0F9C
:1011B0005FD0904B5B6803F00C03082B54D063693D
:1011C000002B00F08A808C4B01221A60FFF7D0F9C7
:1011D0000546884B1B6813F0020F75D1FFF7C8F95D
:1011E000401B0228F5D90320FCE1824A136843F42E
:1011F00080331360A36843B3FFF7BAF905467D4B0C
:101200001B6813F4003FCBD1FFF7B2F9401B6428F1
:10121000F5D90320E6E1B3F5A02F09D0754B1A6884
:1012200022F480321A601A6822F480221A60E1E700
:1012300003F18043A3F53C331A6842F480221A601C
:101240001A6842F480321A60D4E7FFF791F9054634
:10125000684B1B6813F4003FA2D0FFF789F9401BCD
:101260006428F5D90320BDE1624B5B6813F4803F2D
:10127000A5D1604B1B6813F0020F04D06369012BEA
:1012800001D00120AEE15B4A136823F0F803A169A5
:1012900043EAC1031360236813F0080F32D0E369F7
:1012A000002B5BD0554B01221A60FFF761F9054610
:1012B000504B5B6A13F0020F21D1FFF759F9401B25
:1012C0000228F5D903208DE14A4A136823F0F80378
:1012D000A16943EAC1031360DDE7474B00221A60AE
:1012E000FFF746F90546434B1B6813F0020FD2D0B7
:1012F000FFF73EF9401B0228F5D9032072E10120D7
:10130000FFF704FF236813F0040F00F09780394BB8
:10131000DB6913F0805F33D1364BDA6942F08052DB
:10132000DA61DB6903F080530193019B0125344BA3
:101330001B6813F4807F25D02369012B36D0002B46
:101340004CD103F1804303F504331A6A22F0010201
:101350001A621A6A22F004021A622CE0274B002259
:101360001A60FFF705F90546224B5B6A13F0020F7E
:10137000C8D0FFF7FDF8401B0228F5D9032031E162
:101380000025D4E71E4A136843F480731360FFF707
:10139000EFF806461A4B1B6813F4807FCCD1FFF799
:1013A000E7F8801B6428F5D903201BE1114A136A72
:1013B00043F001031362236973B3FFF7D9F80646BC
:1013C0000C4B1B6A13F0020F37D1FFF7D1F8801BCB
:1013D00041F288339842F3D9032003E1052B11D061
:1013E000044B1A6A22F001021A621A6A22F00402FD
:1013F0001A62E0E7001002400000424280044242CC
:1014000000700040794B1A6A42F004021A621A6AAC
:1014100042F001021A62CEE7FFF7AAF80646734BC4
:101420001B6A13F0020F08D0FFF7A2F8801B41F2ED
:1014300088339842F3D90320D4E0EDB9E36A002B56
:101440006FD06A4A526812F4803F05D0674A5268EA
:1014500002F00C02082A15D0022B4BD1634B1B68FB
:1014600013F0805F15D0614BDB6A03F0F003626B11
:1014700093420ED00120B5E05C4AD36923F080533B
:10148000D361DBE7594AD26A12F4803FE4D00120ED
:10149000A8E0574B00221A60FFF76AF80546534B45
:1014A0001B6813F0006F06D0FFF762F8401B64283A
:1014B000F5D9032096E04D4AD36A23F0F003616B1F
:1014C0000B43D362D36A23F47063216B0B43D36263
:1014D000474B01221A60FFF74BF80546434B1B6848
:1014E00013F0006F1DD1FFF743F8401B6428F5D9B6
:1014F000032077E03D4AD36A23F48033D3623C4B28
:1015000000221A60FFF734F80546384B1B6813F0C9
:10151000006F06D0FFF72CF8401B6428F5D9032094
:1015200060E0236A002B5CD0304A526802F00C0263
:10153000082A59D0022B11D02E4B00221A60FFF737
:1015400017F80446294B1B6813F0007F45D0FFF7BE
:101550000FF8001B0228F5D9032043E0254B002299
:101560001A60FFF705F80546204B1B6813F0007F53
:1015700006D0FEF7FDFF401B0228F5D9032031E01D
:10158000636AB3F5803F1AD018494B6823F474138B
:10159000626AA06A024313434B60164B01221A6031
:1015A000FEF7E6FF0446114B1B6813F0007F12D1D3
:1015B000FEF7DEFF001B0228F5D9032012E00B4ADC
:1015C000D36A61680B43D362D36A23F00F03E168E7
:1015D0000B43D362D8E7002004E0002002E00120A2
:1015E00000E0002002B070BD0120FBE700100240C7
:1015F000680042426000424230B587B00D46002389
:10160000049302230393032305934FF480730293FF
:101610000A4CA36943F00403A361A36903F0040324
:101620000193019B02A90648FFF780FC616821F045
:1016300070612943616007B030BD00BF00100240F7
:1016400000080140F0B589B0274C04AD94E80F00C4
:1016500007C52B806D46103494E80F0085E80F0015
:10166000224B5B6803F00C02042A03D0082A04D042
:101670001F4800E01F4809B0F0BDC3F3834208A92A
:101680000A4412F8104C13F4803F28D01749CB6A53
:1016900003F00F0308AA134413F8202CCB6A13F4A9
:1016A000803F16D0CB6AC3F303130133CE6AC6F36F
:1016B00003260236A6FB04670E4DA6FB050105FBBB
:1016C0000711A3FB0223FEF7B3FD0D2CD3D1400875
:1016D000D1E7084800FB04F0B0FBF2F0F5E706485C
:1016E00000FB04F0C7E700BFAC9C000800100240FC
:1016F00000127A0040787D0100093D00594B1B68BB
:1017000003F007038B420CD2564A136823F00703F9
:101710000B431360136803F007038B4201D00120D1
:10172000704770B5036813F0020F06D04E4A536835
:1017300023F0F0038468234353600C460546036896
:1017400013F0010F52D04368012B23D0022B28D075
:10175000454A126812F0020F00F0828042494A683E
:1017600022F0030213434B60FEF702FF06466B684C
:10177000012B1DD0022B2AD03B4B5B6813F00C0FC2
:1017800034D0FEF7F5FE801B41F288339842F3D93E
:10179000032064E0344A126812F4003FDED10120D5
:1017A0005DE0314A126812F0007FD7D1012056E087
:1017B0002D4B5B6803F00C03042B17D0FEF7D8FE0B
:1017C000801B41F288339842F2D9032047E0264B30
:1017D0005B6803F00C03082B08D0FEF7C9FE801BE2
:1017E00041F288339842F2D9032038E01D4B1B6840
:1017F00003F00703A3420CD91A4A136823F0070326
:1018000023431360136803F00703A34201D00120B0
:1018100025E02B6813F0040F06D0134A536823F415
:10182000E063E9680B4353602B6813F0080F07D09F
:101830000D4A536823F46053296943EAC103536096
:10184000FFF700FF084B5B68C3F30313074AD35C41
:10185000D840074B1860002008F060F8002070BDE9
:101860000120FCE70020024000100240609E0008BA
:1018700018000020014B1868704700BF18000020B6
:1018800008B5FFF7F7FF044B5B68C3F30223034A75
:10189000D35CD84008BD00BF00100240709E000815
:1018A0000F2303600B4B5A6802F0030242605A6830
:1018B00002F0F00282605A6802F4E062C2605B6883
:1018C000DB0803F4E0630361034B1B6803F00703C9
:1018D0000B60704700100240002002407047026811
:1018E000D36843F00103D3600268136843F0010337
:1018F000136000207047704770477047704710B5FD
:10190000044603681A6912F0020F11D0DA6812F067
:10191000020F0DD06FF002021A61012303770368F2
:101920009B6913F0030F70D0FFF7E6FF00232377C6
:1019300023681A6912F0040F12D0DA6812F0040F4B
:101940000ED06FF004021A610223237723689B698B
:1019500013F4407F5FD02046FFF7CEFF00232377AC
:1019600023681A6912F0080F12D0DA6812F0080F13
:101970000ED06FF008021A61042323772368DB6915
:1019800013F0030F4ED02046FFF7B6FF0023237756
:1019900023681A6912F0100F12D0DA6812F0100FD3
:1019A0000ED06FF010021A61082323772368DB69D9
:1019B00013F4407F3DD02046FFF79EFF002323779E
:1019C00023681A6912F0010F03D0DA6812F0010FD0
:1019D00036D123681A6912F0800F03D0DA6812F04A
:1019E000800F34D123681A6912F0400F03D0DA68EF
:1019F00012F0400F32D123681A6912F0200F03D081
:101A0000DA6812F0200F30D110BDFFF774FF2046C6
:101A1000FFF773FF8AE72046FFF76DFF2046FFF7C9
:101A20006CFF9BE72046FFF766FF2046FFF765FF48
:101A3000ACE72046FFF75FFF2046FFF75EFFBDE7FC
:101A40006FF001021A61204607F05EFEC1E76FF0F9
:101A500080021A61204600F06BF8C3E76FF0400285
:101A60001A612046FFF74AFFC5E76FF020021A61AE
:101A7000204600F05CF8C7E703681F4A90420ED08A
:101A8000B0F1804F0BD0A2F59432904207D002F50E
:101A90008062904203D002F58062904203D123F02D
:101AA00070034A681343144A90420ED0B0F1804F3D
:101AB0000BD0A2F59432904207D002F5806290429A
:101AC00003D002F58062904203D123F44073CA68C8
:101AD000134323F080034A69134303608B68C36296
:101AE0000B688362044B984202D001234361704724
:101AF0000B690363F9E700BF002C0140A8B110B5E2
:101B0000044690F83D305BB1022384F83D30211D3E
:101B10002068FFF7B1FF012384F83D30002010BD9D
:101B200080F83C30FFF7DAFEEEE70120704770479F
:101B30007047842801D00330704700207047EFF3CE
:101B40000580003018BF0120704708B500F018FF6D
:101B5000002008BD08B5FFF7F2FF10B900F054FFF0
:101B600008BD00F057FFFBE7F0B585B00F464468AD
:101B700005680669B0F90800FFF7DBFF03AB0193C6
:101B800000903B46B2B22946204600F0C7FE01282D
:101B900002D1039805B0F0BD0020FBE708B503466D
:101BA00000B90123184601F03DF8002008BD08B532
:101BB000012000F09FFB08BD30B583B000230193E6
:101BC00060B30C460546B1F1FF3F02D019B91C467F
:101BD00001E04FF0FF34FFF7B2FF90B101AA0021FE
:101BE000284600F023FD01281AD1019BD3B10E4BEA
:101BF0004FF080521A60BFF34F8FBFF36F8F0020FA
:101C000008E0002322461946284600F03DFC012842
:101C100002D1002003B030BDFF20FBE78020F9E7B0
:101C2000FF20F7E70020F5E704ED00E010B582B0F3
:101C3000044600230193FFF782FF88B101A92046E3
:101C400000F0C9FB012816D1019BB3B10D4B4FF039
:101C500080521A60BFF34F8FBFF36F8F002008E0F0
:101C600000231A461946204600F07AFA012806D1C8
:101C7000002002B010BDFF20FBE70020F9E7FF20A5
:101C8000F7E700BF04ED00E010B501290DD10322F4
:101C90000021012000F040FA044620B100231A463A
:101CA000194600F05DFA204610BD0024FBE7000055
:101CB00030B583B00023019360B30C460546B1F103
:101CC000FF3F02D019B91C4601E04FF0FF34FFF787
:101CD00036FF90B101AA0021284600F0A7FC012898
:101CE0001AD1019BD3B10E4B4FF080521A60BFF353
:101CF0004F8FBFF36F8F002008E000232246194664
:101D0000284600F0C1FB012802D1002003B030BDFD
:101D1000FF20FBE78020F9E7FF20F7E70020F5E749
:101D200004ED00E010B582B0044600230193FFF7F4
:101D300006FF88B101A9204600F04DFB012816D10D
:101D4000019BB3B10D4B4FF080521A60BFF34F8F20
:101D5000BFF36F8F002008E000231A461946204683
:101D600000F0FEF9012806D1002002B010BDFF20CE
:101D7000FBE70020F9E7FF20F7E700BF04ED00E0F4
:101D800008B500224168006800F0C6F908BD0000EF
:101D900030B585B00446019100230393154602B97E
:101DA0000125FFF7CCFE98B1002303AA01A9204624
:101DB00000F0ABFA012818D1039BC3B10D4B4FF0D3
:101DC00080521A60BFF34F8FBFF36F8F002008E07F
:101DD00000232A4601A9204600F0C2F9012802D1B9
:101DE000002005B030BDFF20FBE7FF20F9E7002011
:101DF000F7E700BF04ED00E070B584B0044602913F
:101E00000023019349B10D46164600230393B2F116
:101E1000FF3F0BD062B91E460AE004AB802243F8B4
:101E2000102D93E8070084E807002BE04FF0FF3601
:101E3000FFF785FEB0B103AA01A9284600F0F6FB22
:101E400001280CD000230093039BB3B1114B4FF03A
:101E500080521A60BFF34F8FBFF36F8F0DE01023D6
:101E60000093F1E70023324601A9284600F00CFB5D
:101E700001280AD066B9002300936B4693E8070057
:101E800084E80700204604B070BD10230093F4E7F7
:101E90004023F1E704ED00E008B501F027F8012840
:101EA00001D001F09FF908BD00F1080343604FF035
:101EB000FF328260C3600361002303607047002328
:101EC0000361704743684B609A688A609A68516002
:101ED00099600861036801330360704730B40D688E
:101EE000B5F1FF3F02D000F1080202E0026904E010
:101EF0001A4653681C68AC42FAD953684B60996023
:101F00008A605160086103680133036030BC704728
:101F100003694268816891608268416851605A68CB
:101F2000824205D0002202611868013818607047AB
:101F300082685A60F6E710B5044601F0F3F8A26B28
:101F4000E36B9A4204D0002401F00EF9204610BD44
:101F50000124F9E710B5044601F0E4F8A36B23B1BE
:101F6000002401F001F9204610BD0124F9E770B505
:101F700004461646856B026C5AB903681BB10020F3
:101F80000135A56370BD406801F016F80023636059
:101F9000F6E76EB9806807F0C2FD226CA3681344AF
:101FA000A3606268934219D32368A3600020E7E727
:101FB000C06807F0B4FD226C5242E3681344E3604A
:101FC00021688B4202D263681A44E260022E01D07B
:101FD0000020D5E725B1013D0020D1E70020CFE763
:101FE0000020CDE7026C72B110B5C3681344C36022
:101FF0004468A34201D30368C3600C46C16820460D
:1020000007F08DFD10BD704738B5054601F08AF820
:1020100095F8454064B203E000F060FF013C64B213
:10202000002C08DD6B6A33B105F1240000F0C0FE1E
:102030000028F3D0F0E7FF2385F8453001F094F84D
:1020400001F070F895F8444064B203E000F046FFF8
:10205000013C64B2002C08DD2B6933B105F110009E
:1020600000F0A6FE0028F3D0F0E7FF2385F8443007
:1020700001F07AF838BD000038B540B94FF0500390
:1020800083F31188BFF36F8FBFF34F8FFEE70446D2
:102090000D4601F047F82168E26B236C03FB021048
:1020A00060600020A063A160013A02FB0313E360BB
:1020B000FF2384F8443084F84530A5B923691BB95F
:1020C00001F052F8012038BD04F1100000F070FE5C
:1020D0000028F5D0084B4FF080521A60BFF34F8FA5
:1020E000BFF36F8FECE704F11000FFF7DDFE04F1A2
:1020F0002400FFF7D9FEE3E704ED00E010B5029BF2
:102100000C4639B11A60D8631C6401211846FFF7E8
:10211000B3FF10BD1B60F6E740B94FF0500383F3E7
:102120001188BFF36F8FBFF34F8FFEE7F0B583B019
:10213000054611B101FB00F000E0002017460C46F7
:10214000483001F03DF9064638B100903B4600F1B9
:10215000480221462846FFF7D1FF304603B0F0BDC4
:10216000F0B585B0019260B1044699B9026C8AB1AC
:102170004FF0500383F31188BFF36F8FBFF34F8F7E
:10218000FEE74FF0500383F31188BFF36F8FBFF367
:102190004F8FFEE7022B0BD1E26B012A08D04FF0E4
:1021A000500383F31188BFF36F8FBFF34F8FFEE7A8
:1021B0001E460F4600F09AFE50B9019B53B14FF0F6
:1021C000500383F31188BFF36F8FBFF34F8FFEE788
:1021D00000253AE0002538E0324639462046FFF730
:1021E000C6FE636A4BB9A8B13B4B4FF080521A60F0
:1021F000BFF34F8FBFF36F8F0CE004F1240000F0AA
:10220000D7FD38B1344B4FF080521A60BFF34F8F77
:10221000BFF36F8F00F0A8FF012005B0F0BD00F004
:10222000A3FF0020F9E702A800F004FE012519E051
:10223000002384F8443021E0002384F8453023E073
:102240002046FFF7E1FE00F075FC00F06BFFA26B8B
:10225000E36B9A42C0D3022EBED0019B002BDED08E
:10226000002DE0D000F080FF00F0C4FB00F05AFF2A
:1022700094F844305BB2B3F1FF3FD9D094F84530C5
:102280005BB2B3F1FF3FD7D000F06EFF01A902A807
:1022900000F0E4FDC8B92046FFF74DFE0028CFD07E
:1022A000019904F1100000F069FD2046FFF7ACFE33
:1022B00000F040FC0028C8D1074B4FF080521A6054
:1022C000BFF34F8FBFF36F8FBFE72046FFF79CFE32
:1022D00000F030FC0020A0E704ED00E048B108B5B4
:1022E000002141600160C1600B460A46FFF738FFDC
:1022F00008BD704710B5024600210120FFF70CFF12
:102300000446FFF7EBFF204610BD2DE9F84360B10E
:10231000044699B9006C88B14FF0500383F31188DB
:10232000BFF36F8FBFF34F8FFEE74FF0500383F380
:102330001188BFF36F8FBFF34F8FFEE7022B0BD1D6
:10234000E06B012808D04FF0500383F31188BFF3EE
:102350006F8FBFF34F8FFEE71F469046894600F010
:10236000B5FFEFF311864FF0500383F31188BFF3ED
:102370006F8FBFF34F8FA26BE36B9A4203D3022F91
:1023800001D000200FE094F845506DB23A4649461E
:102390002046FFF7ECFDB5F1FF3F08D06B1C5BB2A8
:1023A00084F84530012086F31188BDE8F883636A1C
:1023B0005BB104F1240000F0FBFC40B1B8F1000F68
:1023C00007D00120C8F80000EDE70120EBE701206D
:1023D000E9E70120E7E760B170B50446036C8BB113
:1023E0004FF0500383F31188BFF36F8FBFF34F8F0C
:1023F000FEE74FF0500383F31188BFF36F8FBFF3F5
:102400004F8FFEE703682BB30E4600F05FFFEFF33C
:1024100011854FF0500383F31188BFF36F8FBFF323
:102420004F8FA26BE36B934226D994F845305BB291
:102430000132A263B3F1FF3F18D1636AF3B104F133
:10244000240000F0B5FCD8B1E6B10120306085F37E
:10245000118870BD4368002BD6D04FF0500383F332
:102460001188BFF36F8FBFF34F8FFEE701335BB26D
:1024700084F845300120EAE70020E8E70120E6E79C
:102480000120E4E70120E2E72DE9F04184B0019268
:1024900060B1044699B9026C8AB14FF0500383F3DE
:1024A0001188BFF36F8FBFF34F8FFEE74FF05003DC
:1024B00083F31188BFF36F8FBFF34F8FFEE71F4683
:1024C000884600F013FD50B9019B53B14FF0500303
:1024D00083F31188BFF36F8FBFF34F8FFEE70026A2
:1024E0005FE000265DE0E66841462046FFF77AFDA2
:1024F000DFB9013DA563236813B900F0B5FD606045
:10250000236963B104F1100000F052FC38B1464B6E
:102510004FF080521A60BFF34F8FBFF36F8F00F000
:1025200023FE012004B0BDE8F081E660636A002B61
:10253000F5D004F1240000F03BFC0028EFD03A4B2A
:102540004FF080521A60BFF34F8FBFF36F8FE6E7F3
:1025500000F00AFE0020E5E702A800F06BFC01266F
:1025600029E0002384F8443031E0002384F845302A
:1025700033E000F0D7FD606800F0C8FC00F0F4FD27
:102580003BE02046FFF740FD00F0D4FA09E020468A
:10259000FFF73AFD00F0CEFA2046FFF7DBFC0028FB
:1025A00040D100F0BFFDA56B002D9CD1019B002BFD
:1025B000CED0002ED0D000F0D7FD00F01BFA00F0F6
:1025C000B1FD94F844305BB2B3F1FF3FC9D094F849
:1025D00045305BB2B3F1FF3FC7D000F0C5FD01A9A4
:1025E00002A800F03BFC0028D1D12046FFF7B2FC46
:1025F0000028C6D02368002BBBD0019904F1240029
:1026000000F0BCFB2046FFF7FFFC00F093FA002827
:10261000C7D1054B4FF080521A60BFF34F8FBFF305
:102620006F8FBEE700207DE704ED00E02DE9F84361
:1026300060B1044699B9036C8BB14FF0500383F33A
:102640001188BFF36F8FBFF34F8FFEE74FF050033A
:1026500083F31188BFF36F8FBFF34F8FFEE71746E9
:10266000894600F033FEEFF311864FF0500383F3F9
:102670001188BFF36F8FBFF34F8FD4F83880B8F154
:10268000000F1DD094F844506DB249462046FFF724
:10269000A9FC08F1FF33A363B5F1FF3F05D06B1C24
:1026A0005BB284F8443001200BE023696BB104F184
:1026B000100000F07DFB50B15FB10120386000E0F8
:1026C000002086F31188BDE8F8830120F9E7012096
:1026D000F7E70120F5E70000074B9B6A1B6833B161
:1026E000054B9A6AD268D2685268DA627047024B28
:1026F0004FF0FF32DA6270479C00002010B50446AC
:10270000006B00F0D7FE204600F0D4FE10BD2DE98E
:10271000F04780469946089D099F0A9C266B02F166
:102720008042013A06EB820626F0070600230F2BB3
:1027300007D8C85CE21882F83400CA5C0AB10133D9
:10274000F5E7002384F84330062D00D90625E5621D
:1027500065644FF0000AC4F848A0201DFFF7AFFBE6
:1027600004F11800FFF7ABFB2461C5F10705A56173
:102770006462C4F84CA084F850A04A4641463046F2
:1027800000F0ACFC206007B13C60BDE8F0870000C1
:1027900070B5002407E004EB84029300104818444D
:1027A000FFF782FB0134062CF5D90E4C04F1BC0670
:1027B0003046FFF779FB04F1D0052846FFF774FB9C
:1027C00004F11400FFF770FB04F1E400FFF76CFB69
:1027D0002046FFF769FBA662C4F8F85070BD00BF41
:1027E000CC0000209C00002038B5054600F09AFC83
:1027F000264BD3F8FC200132C3F8FC20D3F800317B
:1028000073B1224BD3F804318BB9204BD3F800318C
:10281000DA6AEB6A9A420AD81C4BC3F8005106E008
:102820001A4BC3F80051D3F8FC30012B2AD0174CB7
:10283000D4F808310133C4F80831EB6A01229A4018
:10284000D4F80C110A43C4F80C2104F1300003EB56
:1028500083039A00291D1044FFF734FB00F084FC29
:10286000D4F804316BB1D4F80031DA6AEB6A9A42D9
:1028700007D2074B4FF080521A60BFF34F8FBFF360
:102880006F8F38BDFFF784FFD1E700BF9C000020A9
:1028900004ED00E070B504460E461F4BD3F810510E
:1028A000D3F800010430FFF733FB60B91A4BD3F8BB
:1028B0000021D16A012202FA01F1D3F80C2122EAA7
:1028C0000102C3F80C21B4F1FF3F12D02C44124B8B
:1028D000D3F800315C60A54214D80F4DA86AD5F832
:1028E00000110431FFF7FAFAEB6AA34212D9EC6245
:1028F00010E0002EEAD00848D0F800110431FFF7AC
:10290000E1FA07E0044BD3F8F800D3F800110431E2
:10291000FFF7E4FA70BD00BF9C0000202DE9F043F2
:1029200085B00746884615469946900000F048FD58
:10293000F8B10646542000F043FD0446A8B10663F2
:10294000D4B10023039302940D9B01930C9B00933D
:102950004B462A4641463846FFF7D9FE2046FFF748
:1029600043FF012005B0BDE8F083304600F0A2FD32
:10297000E6E74FF0FF30F5E74FF0FF30F2E70000F9
:1029800000B583B0174B01930023009380221649B2
:102990001648FFF7C3FF012805D0B0F1FF3F17D05D
:1029A00003B05DF804FB4FF0500383F31188BFF3CD
:1029B0006F8FBFF34F8F0E4B4FF0FF32DA62012261
:1029C000C3F804210022C3F8102100F037FCE7E728
:1029D0004FF0500383F31188BFF36F8FBFF34F8F16
:1029E000FEE700BFB8010020789E0008C52C000853
:1029F0009C000020034AD2F818310133C2F8183184
:102A0000704700BF9C000020014BD3F810017047B5
:102A10009C00002008B500F059FC024BD3F81001CF
:102A200008BD00BF9C0000202DE9F041404BD3F8C9
:102A30001831002B6CD13E4BD3F810510135C3F83F
:102A40001051CDB99B6A1B6843B14FF0500383F31B
:102A50001188BFF36F8FBFF34F8FFEE7344B9A6A35
:102A6000D3F8F8109962C3F8F820D3F82021013286
:102A7000C3F82021FFF730FE2D4BDB6AAB423DD976
:102A800000242B4AD2F80031DB6A03EB8303990060
:102A90000A44136B012B42D9012440E00124244B4A
:102AA0009B6A1B6863B3224B9B6ADB68DE687368B2
:102AB0009D422AD306F104084046FFF729FAB36A7B
:102AC0001BB106F11800FFF723FAF36A01229A40BE
:102AD000174FD7F80C110A43C7F80C2107F1300043
:102AE00003EB83039A0041461044FFF7EBF9F26AC7
:102AF000D7F80031DB6A9A42D0D2D0E70024CEE783
:102B00000B4B4FF0FF32DA62BBE7094AD362B8E7FA
:102B1000074AD2F824310133C2F824310024044B8F
:102B2000D3F8283103B101242046BDE8F08100BF6D
:102B30009C000020394BD3F8183143B94FF05003B3
:102B400083F31188BFF36F8FBFF34F8FFEE770B52C
:102B500000F0E8FA314BD3F81821013AC3F81821F4
:102B6000D3F81831002B54D12C4BD3F8FC3023B9B7
:102B7000002400F0F9FA204670BD0024274B5B6961
:102B80002BB3264D2B6ADC6804F11800FFF7C0F95F
:102B9000261D3046FFF7BCF9E36A01229A40D5F8BA
:102BA0000C110A43C5F80C2105F1300003EB830337
:102BB0009A0031461044FFF785F9E26AD5F80031F2
:102BC000DB6A9A42DAD30122C5F82821D6E70CB194
:102BD000FFF782FD114BD3F8244164B1FFF724FFC6
:102BE00018B10E4B0122C3F82821013CF6D10B4B42
:102BF0000022C3F82421094BD3F828315BB1084BDC
:102C00004FF080521A60BFF34F8FBFF36F8F0124D4
:102C1000AFE70024ADE70024ABE700BF9C00002035
:102C200004ED00E010B5B0B104460F4BD3F81831F5
:102C300043B14FF0500383F31188BFF36F8FBFF39D
:102C40004F8FFEE7FFF7D6FE00212046FFF722FE5A
:102C5000FFF770FF38B9054B4FF080521A60BFF391
:102C60004F8FBFF36F8F10BD9C00002004ED00E07C
:102C700038B5134BD3F814310BB3FFF7BBFE104B31
:102C8000D3F8E440FFF756FF002CF2D000F04AFAE8
:102C90000B4CD4F8F030DD68281DFFF739F9D4F873
:102CA000FC30013BC4F8FC30D4F81431013BC4F8CB
:102CB000143100F059FA2846FFF720FDD9E738BD56
:102CC0009C00002008B5FFF7D3FF064B1B6B012BC0
:102CD000F9D9054B4FF080521A60BFF34F8FBFF305
:102CE0006F8FF0E79C00002004ED00E0224BD3F84A
:102CF000183123B1204B0122C3F8282170471E4A06
:102D00000023C2F82831D2F80C31B3FA83F3DBB2D6
:102D1000C3F11F0303EB830081000A44126B42B925
:102D20004FF0500383F31188BFF36F8FBFF34F8FC2
:102D3000FEE710B4104A9900CC18A0001044446B70
:102D40006468446330321944880008300244944275
:102D50000AD0094903EB83039A000A44536BDB68EA
:102D6000C1F8003110BC704761680348142202FBAF
:102D700003025163EDE700BF9C00002040B94FF013
:102D8000500383F31188BFF36F8FBFF34F8FFEE7BC
:102D900010B50C46054BD3F800111831FFF79EF81B
:102DA00001212046FFF776FD10BD00BF9C000020EA
:102DB00038B5C368DC6844B94FF0500383F3118819
:102DC000BFF36F8FBFF34F8FFEE704F1180528465E
:102DD000FFF79EF8154BD3F8183103BB251D284685
:102DE000FFF796F8E36A01219940104AD2F80C01E6
:102DF0000143C2F80C11303203EB830398002946DB
:102E00001044FFF75FF8E26A084BD3F80031DB6A41
:102E10009A4209D90120054BC3F8280138BD29463B
:102E20000348FFF74FF8EEE70020F7E79C0000208B
:102E3000B000002038B1084AD2F820110160D2F861
:102E40001021426070474FF0500383F31188BFF3A5
:102E50006F8FBFF34F8FFEE79C00002038B550B155
:102E6000044689B94FF0500383F31188BFF36F8F85
:102E7000BFF34F8FFEE74FF0500383F31188BFF38A
:102E80006F8FBFF34F8FFEE70D4600F04BF9124BEB
:102E9000D3F810112B68B3F1FF3F19D020680E4A08
:102EA000D2F82021904202D062688A4212D9626828
:102EB000881A834204D8012400F056F9204638BD10
:102EC000521A13442B602046FFF7B4FF0024F3E7A7
:102ED0000024F1E70124EFE79C000020024B0122CF
:102EE000C3F82821704700BF9C000020064BD3F890
:102EF00004313BB1044BD3F818310BB100207047BB
:102F000002207047012070479C00002000284DD00F
:102F100038B50546C26A2649D1F80011C96A8A4205
:102F200016D28169002906DB2149D1F80011C96A4E
:102F3000C1F107018161686902EB820291001D4ABB
:102F40000A44904205D01A4AD2F80021D26AEA62B5
:102F500038BD2C1D2046FEF7DBFFA0B11448D0F889
:102F60000031DB6AEB6201229A40D0F80C110A436F
:102F7000C0F80C21303003EB83039A002146104443
:102F8000FEF7A0FFE4E7EA6A02EB82039900084B30
:102F90000B441B6B002BE1D1012393400449D1F872
:102FA0000C2122EA0302C1F80C21D7E7704700BFC9
:102FB0009C000020CC00002000284DD038B50446ED
:102FC000284AD2F80021824208D04FF0500383F300
:102FD0001188BFF36F8FBFF34F8FFEE7826C42B94A
:102FE0004FF0500383F31188BFF36F8FBFF34F8F00
:102FF000FEE7013A8264C06A616C88422ED07ABBD7
:10300000251D2846FEF784FF78B9E26A1549142386
:1030100003FB02131B6B43B9012303FA02F2D1F83D
:103020000C3123EA0203C1F80C31626CE262C2F196
:103030000703A361012404FA02F10A4BD3F80C013F
:103040000143C3F80C1130332946142000FB023031
:10305000FEF738FF204638BD002070470020FAE711
:103060000020F8E79C000020064BD3F800312BB17C
:10307000044BD3F80021936C01339364014BD3F8D4
:10308000000170479C0000200B4B1B68B3F1FF3F11
:1030900008D04FF0500383F31188BFF36F8FBFF355
:1030A0004F8FFEE74FF0500383F31188BFF36F8F0C
:1030B000BFF34F8FFEE700BF0800002006480068FE
:1030C000006880F3088862B661B6BFF34F8FBFF324
:1030D0006F8F00DF00BF000008ED00E04FF080734D
:1030E00040F8043C21F0010140F8081C034B40F873
:1030F0000C3C40F8202C4038704700BF8930000855
:10310000074B19680868B0E8F00F80F30988BFF32F
:103110006F8F4FF0000080F311884EF00D0E704756
:103120009C0100204FF0500383F31188BFF36F8F91
:10313000BFF34F8F0A4A136801331360012B00D08D
:103140007047084B1B6813F0FF0FF9D04FF0500386
:1031500083F31188BFF36F8FBFF34F8FFEE700BF7C
:103160000800002004ED00E0094B1B6843B94FF054
:10317000500383F31188BFF36F8FBFF34F8FFEE7C8
:10318000013B034A13600BB983F31188704700BFFA
:103190000800002000000000000000000000000007
:1031A000EFF30980BFF36F8F0D4B1A6820E9F00F22
:1031B00010602DE908404FF0500080F31188FFF7B0
:1031C00095FD4FF0000080F31188BDE808401968B4
:1031D0000868B0E8F00F80F30988BFF36F8F70477D
:1031E0009C01002008B54FF0500383F31188BFF312
:1031F0006F8FBFF34F8FFFF717FC18B1034B4FF0E2
:1032000080521A60002383F3118808BD04ED00E0AA
:10321000064B1B68064AA2FB03239B09013B054A98
:103220001360054B07221A60704700BF180000208A
:10323000D34D621014E000E010E000E000B583B070
:103240001E4B1A78D2B20192FF221A701B78DBB2A1
:103250008DF803309DF8033003F05003184A1370C3
:103260000723536009E0164A5368013B53609DF8F9
:1032700003305B00DBB28DF803309DF8033013F0B0
:10328000800FF0D10E4A53681B0203F4E0635360D1
:10329000019BDBB2094A13700A4B1A6842F47002B0
:1032A0001A601A6842F070421A60FFF7B1FF064BCD
:1032B00000221A60FFF702FFFFF7E6FE00E400E0DD
:1032C000C801002020ED00E008000020EFF3058396
:1032D0000F2B0FD9104A9B5CDBB2104A12789A422E
:1032E00008D94FF0500383F31188BFF36F8FBFF3FA
:1032F0004F8FFEE70A4B1B6803F4E063074A5268EE
:10330000934208D94FF0500383F31188BFF36F8FB6
:10331000BFF34F8FFEE77047F0E300E0C8010020E5
:103320000CED00E0104A12F0070F1AD0D11D21F069
:103330000701C1F5C84313440A460C490A6000203E
:1033400048601344083B23F007038B605860186003
:10335000981A50601360C86008614FF000434B61D9
:1033600070474FF4C843E8E7E8010020D00100208F
:1033700010B4124B1A6882421AD359685C188442FE
:1033800003D1406801445960184641684418A2427C
:1033900012D10A4CA468A2420CD052681144416078
:1033A0001A6812680260984200D0186010BC70471A
:1033B0001346DFE70460F6E70260F4E7D00100207F
:1033C00070B50446FFF716FB394B9B68BBB1384B11
:1033D0005B691C4262D1ACB1083414F0070F11D004
:1033E00024F00704083404F007035BB14FF05003E6
:1033F00083F31188BFF36F8FBFF34F8FFEE7FFF7A3
:1034000091FFE4E7002C4BD0294B1B69A34249D321
:10341000274B1D6801E02B4615466A68A24202D27E
:103420002A68002AF7D1224A9268AA423CD01E6834
:1034300008362A681A606B681B1B102B10D92819D4
:1034400010F0070F08D04FF0500383F31188BFF33B
:103450006F8FBFF34F8FFEE743606C60FFF788FF0D
:103460006968134A13695B1A1361D268934201D2E7
:103470000F4AD3600E4B5B690B436B6000232B60DC
:10348000FFF758FB16F0070F10D04FF0500383F3EF
:103490001188BFF36F8FBFF34F8FFEE70026EFE772
:1034A0000026EDE70026EBE70026E9E7304670BD91
:1034B000D001002080B338B50446A0F1080550F8CB
:1034C000042C164949690A4208D14FF0500383F38E
:1034D0001188BFF36F8FBFF34F8FFEE750F8080CD2
:1034E00040B14FF0500383F31188BFF36F8FBFF3E8
:1034F0004F8FFEE722EA010244F8042CFFF77AFA24
:1035000054F8041C054A13690B4413612846FFF75D
:103510002FFFFFF70FFB38BD704700BFD001002021
:1035200000B583B0194B1B6813B1184A506898470F
:10353000174805F038FE07E0DA6899685868904740
:103540000199092000F07CFA114C204605F032FE6A
:1035500001A9104803F030F9204605F024FE019B34
:10356000002BF1D01A78032A04D0042A0AD0022AA8
:10357000EAD1E1E75A68986890470199082000F07D
:103580005FFAE1E75A6898689047DDE7E865002050
:103590009C670020F0650020F8B507460E461546EA
:1035A0000F4805F0DDFD092000F03CFAA0B104460B
:1035B0000223037047608660C5600146084805F035
:1035C00098FD034608B91846F8BD2146092000F0C9
:1035D00037FA4FF0FF33F6E74FF0FF33F3E700BF62
:1035E000F065002008B591F82F3013F0180F03D1C3
:1035F000034AFFF7D1FF08BD024AFFF7CDFFFAE704
:10360000D1860008C58F0008F8B507460E46154656
:10361000124805F0A5FD082000F004FAD0B10446D8
:1036200003230370476086603DB901460B4805F0EF
:1036300060FD034638B91846F8BD0146074805F055
:103640004CFD0023F7E72146082000F0F9F94FF080
:10365000FF33F0E74FF0FF33EDE700BFF0650020E8
:1036600030B583B005460C4600F02FF80A480560D7
:1036700044600621083005F01EFD084805F082FD73
:10368000032300934FF4806300220549054805F0A9
:1036900096FD03B030BD00BFE86500209C670020A8
:1036A00021350008809E0008030A43EA002080B20A
:1036B0007047030203F47F0343EA0063020A02F443
:1036C0007F42134343EA1060704708B505F04EFD92
:1036D00000F03CF800F096F900F0D1F903F0DAF8C8
:1036E00000F0FEFC03F042F808BD000030B4164ABA
:1036F0001368556801885A1890420DD014795CB946
:10370000954209D0104CA468944217D05A5A0280AE
:10371000C41A5A5A1A44548041885A1890420BD0FD
:1037200014794CB9084CA46884420AD004885C52CD
:10373000D21A01880B445A8030BC7047024A90600C
:10374000E4E7014CA260F1E7F465002010B50B4BF3
:1037500023F003030A4803604FF4C8611980002274
:103760005A801A715A18426001241471A3F8401645
:10377000518083600C3005F005FD10BDBB67002053
:10378000F465002010B338B50446114B1B68834222
:1037900003D80F4B5B68834204D805F023FD05F086
:1037A0002DFD38BD0A4D05F10C0005F0FCFCA4F11F
:1037B0000800002304F8043CAB68834200D9A860E9
:1037C000FFF794FF034805F0F5FCEAE7704700BFF8
:1037D000F4650020006600202DE9F0410546CC1C70
:1037E000A4B224F00304A4B20B2C04D9B4F5C86F1E
:1037F00002D9002540E00C24334B1B68AB4237D87C
:10380000314A5268AA4233D9A5F10807FF1ABFB25C
:1038100035F8086CF61BB6B2083EB6B2B44250D8C2
:103820002AD0DFF8A48008F10C0005F0BCFCD8F821
:10383000002035F8083CD118087920BBD05AE3198C
:103840009BB208339BB2D8F808408C4217D0D118ED
:1038500000240C71D0524F8025F8083CD15AB1F5A4
:10386000C86F01D00A445380184805F0A3FC03E058
:1038700005F0B8FC05F0C2FC2846BDE8F081D1187F
:10388000C8F80810E3E704F11403B342ECD8E319D5
:103890009BB208339BB2D1180B488068884201D98B
:1038A000094881600020087135F8080CD0524F801B
:1038B00025F8083CD15AB1F5C86FD5D00A445380D9
:1038C000D2E70025D8E700BFF4650020006600209D
:1038D00000285CD0F8B504460334A4B224F00304F5
:1038E000A4B20B2C0CD9B4F5C86F52D82A4D05F1EF
:1038F0000C0005F058FC2868AB681B1A9BB21BE053
:103900000C24F3E701232B71234B9B68AB4209D0B6
:10391000224805F04FFC05F1080037E01E4A126806
:103920001B8813441A791AB11B4A52689A42F5D17E
:10393000194A9360ECE72B881F462646C4F5C861F8
:103940008B421FD2C51829790029F4D1C25AD21B43
:10395000083AB242EFD31436B242D3D3E21892B24D
:10396000083292B2811800240C712C8884524B804A
:103970002A8001232B71835AB3F5C86FC4D0184431
:103980004280C1E7054805F015FC0020F8BD002085
:1039900070470020FAE700BFF465002000660020B1
:1039A00010B5044605F01EFCA3681C682CB1226803
:1039B0001A6005F023FC204610BD05F01FFC002412
:1039C000F9E738B505460C4605F00CFCAB681B68FA
:1039D0002360AB681C6005F011FC38BD83680022D1
:1039E0001A604368033323F0030307E08168096822
:1039F000196081680B6001880B4401324188914253
:103A0000F4DC704710B5002406E0054B53F82400A1
:103A1000FFF7E4FF0134A4B20C2CF6D910BD00BFAF
:103A2000CC9C00080C2806D808B5044B53F820009D
:103A3000FFF7B6FF08BD0020704700BFCC9C000810
:103A40000C2807D831B108B5034B53F82000FFF715
:103A5000B8FF08BD704700BFCC9C000811F0010FF3
:103A60000CD008B5436823B190F82F3013F0080F3D
:103A700000D108BD011D04F037FBFAE7704770471D
:103A800070B582B00D46C1B10A68019242680199D1
:103A9000914210D00446061D01A9304601F018F8E5
:103AA00001A9304603F09AF85DB12B6863600121EB
:103AB0002046FFF7D3FF02B070BD034A126801929F
:103AC000E4E70023F2E700BF209E000811B10B6875
:103AD000C36070470023FBE711B10B688360704738
:103AE0000023FBE7F8B5044617461E460D4609B10C
:103AF0000B6863B929462046FFF7C2FF39462046C6
:103B0000FFF7EAFF31462046FFF7E0FFF8BD114618
:103B1000FFF7E2FF31462046FFF7D8FF294620464F
:103B2000FFF7AEFFF2E70000F8B504460025456058
:103B30008560C56080F82F500562032580F8245009
:103B4000069DC5610A4E35786F1C377080F832507B
:103B5000089D0561FFF7C6FF2046079B984728B9D7
:103B6000044B1A6822601C602046F8BD0020FCE768
:103B700038660020C09E0020014B1860704700BFCF
:103B8000C49E002008B590F82F3013F0010F06D125
:103B900043F0010380F82F3013F0040F00D108BD6B
:103BA0000321FFF75BFFFAE708B590F82F3013F019
:103BB000010F06D003F0FE0380F82F3013F0080F3A
:103BC00000D108BD04F008FAFBE7002939D00B4604
:103BD000002838D030B400290BDB8CB2017B45685B
:103BE00071B103290CD0013989B201291BD90120F7
:103BF00014E04C42A4B24189A142EFD201200DE071
:103C0000EA1A426000F110018A4209D39BB242894C
:103C10001A444281028913440381002030BC70475A
:103C200045600120FAE7002B05DB002B0DDD72B1AA
:103C3000ED1A4560EAE74189A142F6D3ED1A4560E5
:103C4000E4E700207047002070470120E6E70120EC
:103C5000E4E7000010B505F0C5FA0C4B1C78E4B29F
:103C600001221A7005F0CAFA04B110BD00221146F3
:103C70000748FFF7C9FC0028F7D005F0B3FA034B5B
:103C800000221A7005F0BAFAEFE700BFC89E0020C4
:103C9000C53C000810B505F0A5FA084B00221A70C3
:103CA00005F0ACFA064B1C683CB1206F08B9E4681B
:103CB000FAE700F067FA0023236710BDC89E0020D2
:103CC000D09E002008B5FFF7E5FF08BD70B4039C47
:103CD000042827D8DFE800F0030B05070900362089
:103CE00006E00E2004E0002002E0002000E0222098
:103CF000033020F003000E18BDF81050AE4213D868
:103D000000251D605CB12044586002205873198161
:103D100059811A730122DA81184670BC704700205D
:103D20005860F2E70020F8E70020F6E708B5002227
:103D3000FFF74BFF08BD08B50122FFF746FF08BD9E
:103D400070B560B3044600260BE0032A1DD0013A8B
:103D500092B2012A1ED92046FFF714FD0136F6B2B1
:103D60002C46ECB105F03EFAE589013DADB2E581A6
:103D700005F044FAA5B92568227B637B13F0020F96
:103D8000E3D0236920469847E8E721460C20FFF757
:103D900057FEE3E721460B20FFF752FEDEE7002641
:103DA000304670BD2DE9F041042800F28B80DFE839
:103DB00000F0030B05070900362406E00E2404E09A
:103DC000002402E0002400E0222417460D46032AC6
:103DD0007AD8DFE802F0486A6A020C20FFF722FE78
:103DE0000646002835D007730023036004F1100352
:103DF0000344033323F0030343600581E11C21F0F6
:103E00000301C1F51471A94228BF294689B2418135
:103E10000123C3816D1A8046002D3FDD0C20FFF782
:103E200001FE0446C0B10773002343730360C8F862
:103E30000000ABB20381B3F5147F28BF4FF41473B5
:103E4000438100F1100242600122C281ED1A8046D6
:103E5000E2E7FFF7FFFE25E0FFF7FCFE3046FFF745
:103E60006FFF26461EE004F1130020F0030083B22A
:103E7000C81C80B220F00300184480B2FFF728FD70
:103E8000064678B104F110030344033323F003031F
:103E90004360058145810023036007730123F3819B
:103EA000002373733046BDE8F0810B20FFF7BAFDA5
:103EB00006460028F6D00023436005814581036053
:103EC0000773EBE70026EDE70026EBE738B504467D
:103ED000008988421CD90D4607E0EB1A9DB20B1AE7
:103EE0009BB222891344238124686389AB42F4D3B3
:103EF000227B2AB9AB4203D0637B13F0020F08D0B8
:103F000065812581206808B1FFF71AFF002323602F
:103F100038BD6368191B89B2294489B22046FFF76E
:103F20005BFC0446ECE7002302E001339BB200682F
:103F30000028FAD11846704748B110B5044605F07C
:103F400051F9E3890133E38105F058F910BD704759
:103F500098B1034609B110B405E070470A891C897D
:103F600022441A81034618680028F7D11A89088963
:103F700002441A81196010BC7047704710B50C4696
:103F8000FFF7E6FF2046FFF7D7FF10BD00284FD010
:103F90002DE9F0410E46074600294CD002890B89D5
:103FA0009A424BD34FF00008454610E05B1B9CB291
:103FB00015E03F680FB1002526E0002E41D1002515
:103FC00022E033682BB36FF005002FE06EB37B89DE
:103FD000591B7489A4EB08029142E7DB94B278681C
:103FE000716822464144284405F099FD2544ADB24C
:103FF00044441FFA84F87B897289424502D83668A6
:104000004FF00008AB42D4D01EB1728933899A4276
:10401000D7D0002FDAD07A893B899A42D6D13B6833
:10402000002BD3D06FF0050000E00020BDE8F08148
:104030006FF00F0070476FF00F00F7E76FF00F00A1
:10404000F4E76FF00F00F1E72DE9F04128B30F46D8
:104050009046054629B3002613E06A89D21A94B225
:10406000A04500D24446696822461944B81905F0B3
:1040700056FD2644B6B2A8EB04041FFA84F80023C8
:104080002D68B8F1000F09D045B1002BE5D0698942
:104090009942E2D85B1A9BB2F2E700263046BDE8AF
:1040A000F0810026FAE700E0C06828B1836F8B42F8
:1040B000FAD100238367F7E77047000038B505465B
:1040C000012407E0054B53F8243029461868FFF710
:1040D000EAFF0134032CF5D938BD00BF9C9D0008D0
:1040E000704730B4456A048D2A19C16A438EB3F50E
:1040F000866F94BFCB1801F58663D31A002B03DBC0
:104100004485501A30BC70476B1A002B03DD002227
:1041100042851046F6E7491B41850020F2E710B5BD
:104120000446027D038D194489B20185B1F5066FFD
:1041300009D94FF4066303852046FFF7D2FFB0F597
:10414000067F0ADA10BD0029F6D1072A01D0092A14
:10415000F2D14FF406632385EEE7A37E43F002031A
:10416000A376204601F0ECFFECE750B110B5044611
:10417000406808B1FFF7E4FD21460320FFF760FC2B
:1041800010BD704738B110B50468FFF7EEFF204648
:10419000002CF9D110BD704738B505460320FFF754
:1041A00041FC044650B128686968AA68EB68206041
:1041B0006160A260E3606068FFF7BEFE204638BD24
:1041C00038B5037DE3B10A2B1AD0012B18D0044671
:1041D000406F18B1FFF7B4FD00236367206FFFF74E
:1041E000D1FF002525674FF6FF732386A06EFFF7EA
:1041F000C9FFE06EFFF7C6FFA566E566A4F8645048
:1042000038BD00002DE9F04182B0AB4A136801339C
:104210001360AA4A137801331370A94B1C68002657
:104220001EE1E4681CE194F84230062B40F0248142
:10423000012547E0204602F06AF900284FD100230B
:1042400084F8943094F89530062B4AD8013384F8DA
:104250009530002536E0B4F93020002A01DB013228
:104260002286E26E72B3B4F93000B4F94020904275
:1042700028DB02290CD0B4F93C10B4F93E2002EB43
:10428000E10290490B441B7E02FA03F3A4F840308C
:1042900000232386B4F85C30B4F84820934228BF4A
:1042A00013465B08A4F84A30618E4A0092B29342EA
:1042B00001D2A4F84A20A4F84810204602F08CF855
:1042C00000E00125237D062B0DD0227A12F0080F85
:1042D00043D0042B14D0072B12D000273EE000253A
:1042E000F0E70025EEE7A27E12F0100FEDD0216A74
:1042F000714A1268521A282AE7D90135EDB2E4E76B
:104300006D4B1A68236AD21AD4F8901001F5242351
:1043100003F6B8436C48A0FB0303B2EB531F03D969
:104320000135EDB2012719E094F89630674800FB9B
:1043300003136549A1FB0313B2EB531F01D80027F8
:104340000CE0204602F0B7F8002838D194F89630F7
:10435000013384F89630002700E00027206F50B129
:10436000554B1A68236AD21AB4F9403003EB430361
:1043700059008A4225D2237D032B27D0092B2ED02A
:10438000002D35D1E568E37E0133DBB2E376227F91
:10439000934263D30023E3764D4A1370D4F88830F8
:1043A000002B53D0214620699847494B1B78002B9E
:1043B0007FF433AF00284BD026462C4650E0002730
:1043C000CCE7FFF7DFFE00232367D4E7216A3A4AF0
:1043D0001268521A282AD1D90135EDB2CEE7226AE5
:1043E000354B1B689B1AF02BCAD90135EDB2C7E7D4
:1043F000D4F88C502046FFF7E3FEC6B1E368F360C3
:10440000CFB9D4F81080E76821460120FFF718FBE8
:104410002F4B00221A701DB16FF00C014046A847C7
:104420002B4B1B78002B7FF4F8AE3C4618E0E2687B
:10443000234B1A60E4E7616AE06C238B0193E38A03
:104440000093231D224601F083FFDAE70020ACE74A
:10445000204601F075FE26462C4601E026462C46F5
:1044600034B3217D627F154B1B789A423FF4D9AE5D
:10447000637702293FF4D7AE94F842300C2B3FF417
:1044800020AF94F89550002D3FF4E5AE013D0D4B63
:104490001D442A7C94F89430934202D2013384F86C
:1044A000943094F894309342BFF4C4AE002509E7E9
:1044B000084B1D681CE000BFD49E00203966002018
:1044C000D09E00209C9D0008D34D6210F82401006E
:1044D000CC9E0020E09E00202846FFF771FE8CB1A4
:1044E000EB68E360EE6829460120FFF7A9FA35463C
:1044F00065B12A6A074B1B689B1AF02BECD82C4637
:10450000ED68F5E7EA68044B1A60EBE702B0BDE836
:10451000F08100BFD49E0020E09E002010B50C4624
:1045200003688B4205D04BB1DA68A24204D013462F
:10453000F9E7DB68036001E0E268DA600023E3602A
:104540002046FFF73DFE237D0A2B05D0012B03D02B
:10455000A37E13F0010F03D100232375E38210BD66
:1045600043F00203A376204601F0EAFDF4E70000E1
:1045700030B583B0044621B1037D042B0BD0072B4B
:1045800009D0237D072B00F29F80DFE803F048620B
:104590006F7B879D9D90636FB3B1238B0193E38AFB
:1045A0000093231D2246616AE06C01F0D1FE204693
:1045B000FFF706FE454B1B68A3420AD07BB1DA68C1
:1045C000A2420AD01346F9E7238DB3F5066FE4D172
:1045D000D7E7DA683D4B1A6001E0E268DA60002351
:1045E000E3603B4B01221A70237D042B09D0394B29
:1045F0001B68A3420FD021460120FFF721FA0025B6
:1046000049E00A232375344B1A68E2601C6002F00B
:1046100073F800253FE001F0F5FB00253BE0E38A5D
:104620008BB12E4B1B68A34205D053B1DA68A2426E
:1046300005D01346F9E7DA68284B1A6001E0E26812
:10464000DA600023E36021460120FFF7F9F9002535
:1046500021E02046FFF732FD21462148FFF75EFFAB
:1046600021460220FFF7ECF9002514E02146174807
:10467000FFF754FF0120164B18702146FFF7E0F9B1
:10468000002508E0204601F0FEFC054608B9052398
:10469000237504B1A5B1284603B030BD204601F012
:1046A000F2FC05460028F4D105232375F1E72046E6
:1046B00001F0E9FC05460028EBD109232375E8E762
:1046C000204601F03DFDE6E70025E4E7D09E00200E
:1046D000CC9E0020E49E0020E09E0020DC9E002076
:1046E000D89E002008B5037D012B03D0837E43F0C4
:1046F000100383760121FFF73BFF08BD10B5084684
:1047000012B953B1002007E014461189FFF707FDE5
:104710002046FFF715FB002010BDFFF7E3FFFBE786
:10472000F8B50446466F777B00234367D0F8805086
:10473000DDB1324601460069A8470546EDB917F0DC
:10474000200F20D0238DB3F5066F01D001332385D0
:10475000D4F88060BEB100231A4621462069B047D4
:1047600010F10D0F0FD105460DE000233246014632
:104770001846FFF7C3FF0546E0E715F10D0F02D01D
:1047800066676FF004052846F8BD000070B5174A4B
:10479000137801331370164B1C680CE043F00203CE
:1047A000A376204601F0CCFCA37E23F00303A3767E
:1047B0000CE0E5682C46BCB1627F0C4B1B789A423A
:1047C000F7D06377A37E13F0010FE7D1E568636F3D
:1047D000002BEFD0074E002333702046FFF7A0FFD9
:1047E0003378002BE6D0D6E770BD00BF39660020D5
:1047F000D09E0020CC9E002008B5FFF7C7FF064AD8
:1048000053780133DBB2537013F0010F00D108BDB0
:10481000FFF7F8FCFBE700BF396600202DE9F04701
:1048200082B00446037D0A2B18D00D46D0F84C8088
:10483000D0F82490D0F88C600769002B39D1B0F8FB
:1048400016A0BAF1000F3ED0254B1B6883420ED054
:104850009BB1DA68A2420ED01346F9E7014621481F
:10486000FFF75CFE21460120FFF7EAF81EE0DA6858
:104870001B4B1A6001E0E268DA600025E560AA4699
:10488000E06E08B1FFF77EFCA06E08B1FFF77AFC7E
:10489000206F08B1FFF776FCBDB921460120FFF774
:1048A000CFF81EB16FF00C013846B04702B0BDE83A
:1048B000F087B0F816A001460B48FFF72FFE0B4B10
:1048C00001221A70DCE70025DAE7238B0193CDF88B
:1048D00000A0231D22464946404601F039FDDCE791
:1048E000DC9E0020E09E0020D09E0020CC9E002078
:1048F00008B50121FFF792FF08BD000010B50A4B73
:104900001B680024204600E0DB6843B1196A074AAF
:104910001268521AA242F7D314461846F4E708B1B7
:10492000FFF7E6FF10BD00BFE09E0020D49E0020F0
:1049300070B5024610F0800F00D07F220B4B1B6831
:10494000002420461BB908B1FFF7D2FF70BD5D7D82
:10495000954208D81E6A06490968891BA14202D3FC
:104960002A460C461846DB68ECE700BFD09E0020C4
:10497000D49E002038B50446084603E0C568FFF71A
:10498000B7FF284628B1026823689A42F6D0C0686B
:10499000F8E738BD38B50C4B1B6800210D4600E028
:1049A000DB685BB11A7D8242FAD11C6A074A126841
:1049B000121B8A42F4D311461D46F1E71DB10021B6
:1049C0002846FFF72BFF38BDD09E0020D49E002044
:1049D000034B5868034A126810445860704700BF80
:1049E0000C000020D49E002038B505460120FFF7BA
:1049F00019F80446002831D074B3982200212046CB
:104A000005F098F865754FF48663A4F860304FF4AC
:104A1000066363852385FF23A3724FF406736386C1
:104A20000623A4F84030E3874FF6FF732386012363
:104A3000A4F84830FFF7CCFF6065E0646064A065CF
:104A4000174B1B682362174B1B786377164BC4F810
:104A50008030164BC4F89030204638BDFFF74EFF2B
:104A60000120FEF7DFFF04460028C5D10920FFF72B
:104A700091FF0120FEF7D6FF04460028BCD1082094
:104A8000FFF788FF0120FEF7CDFF04460028B3D1D1
:104A90002846FFF74DFF0120FEF7C4FF0446ABE7B1
:104AA000D49E002039660020FD46000800DD6D0020
:104AB00010B50446084603F0B7FD30B1C38C23B1EE
:104AC000283B9BB29C4228BF1C46204610BD0000DC
:104AD00008B338B50446026802B938BD0D460E4B1E
:104AE0001968FFF747FF0D4B19682046FFF742FF93
:104AF000002DF2D02B68002BEFD0094B1B6800E093
:104B00001346002BE9D0DA68186821688842F7D18B
:104B100029681960F4E77047D09E0020DC9E0020D1
:104B2000D89E00200D4B196879B11A469B88D2880F
:104B300093420AD310B45C1C08488480DBB2D2B222
:104B40009B1ADBB2C85C10BC7047044A936891881A
:104B5000481C90800B44187D704700BF3C660020C5
:104B600038B51D4B9B89002B35D004461A4B0022CB
:104B70009A80194B9A889B899A422CD2FFF7D2FFD0
:104B80000128F6D038B302281BD1FFF7CBFF042849
:104B900021D1114A93880233928993421BDCFFF79B
:104BA000C1FF85B22D02ADB2FFF7BCFF80B2054355
:104BB0006B1E9BB2B3F5067F01D34FF40675658675
:104BC000D7E7FFF7AFFF012805D9034A93880344CD
:104BD000023B9380CDE738BD3C6600201B4B9B7B9E
:104BE00013F0040F30D130B583B013F0020F1AD098
:104BF000164B1969436ACA1A002A1ADB028D13443C
:104C0000CB1A002B15DC11488368114A848A1D8851
:104C100001955B880093134604322144806901F0BA
:104C200097FB03B030BD13F0010F02D0094B1B6896
:104C30000362064B9B8A002BF3D0837E43F0020372
:104C4000837601F07DFAECE7704700BF3C660020F8
:104C5000B0670020D49E0020394B9B7B13F0040FDB
:104C60006CD170B582B0044613F0100F04D113F06C
:104C7000020F11D102B070BD314B9C68314A9D8A40
:104C80001969986923880193638800931346043255
:104C9000294401F05DFBEDE7407DFFF7A5FE0546E9
:104CA00000283BD0284B5A6902601B694360E38AA5
:104CB000C382234EB3681B880383032303753369C0
:104CC0005A1C4262C262013B036523690361846727
:104CD000237A03F00C0303721C4B1A68C26018603D
:104CE00001F00AFD1A4B01221A702846FFF738FF1F
:104CF000B368DB89A5F85C30A5F85E30A5F84A30CA
:104D0000291D688EFFF7D4FE68861221284601F01F
:104D100061F970B9284601F013FAABE7002CA9D06D
:104D2000A369002BA6D04FF0FF32002120699847DD
:104D3000A0E700212846FFF771FD9BE7704700BF01
:104D40003C660020B0670020A0670020D09E0020B5
:104D5000CC9E002070B505460C46C3689889FEF7C6
:104D6000A3FC10F0010F12D02046FFF70BFA00242D
:104D70002C6070BDEB689E890120FEF795FCEB6806
:104D80003043988126682046FFF7EFF934468CB10E
:104D90002B89114A12691344E1684A682089024448
:104DA0009B1A002B06DB8889FEF77EFC10F0010FB2
:104DB000E8D0DFE7002CDBD02B89074A11690B44D0
:104DC000E26852689B1A002BD2DD521A91B22981F7
:104DD0006868FFF77BF8CBE73C660020F8B504462F
:104DE000057D974B9B7B13F0100F00F03A81B0F8D4
:104DF0005C00626D8718216D914B1B69CE1A002EE5
:104E000020DB994213D08E4989698A4215D08C4B98
:104E10009B69616C5A1A002A37DD012A03D4E26CBF
:104E20009A1A002A61DD204601F050F9F4E0844925
:104E30008969511A0029E6DA04E0814A9268D28928
:104E40009042E4D27E4A9268D28991B2A4F85C2062
:104E5000B4F85E00814201D9A4F85E202365784B46
:104E60009B69636549B994F89530002BCFD184F8DC
:104E70009430012384F89530C9E794F89530002BDD
:104E8000C5D0002384F89530C1E76D4A928A2AB9CB
:104E9000626DB4F85C000244BA4203D0002384F887
:104EA0004330B9E0B4F93020002AF7DB8B42F5D16A
:104EB00094F84330FF2B02D0013384F8433094F848
:104EC0004330032B0AD9B4F84820638E13449BB2B5
:104ED0009A4280F0A180A4F848309DE0032B40F076
:104EE0009B80204601F0B8FA96E0A27E12F0040FF3
:104EF00006D022F00402A276B4F84A20A4F8482092
:104F0000002184F84210B4F93C00E28F02EBE00289
:104F1000A4F8402084F843106364032D38D9B4F812
:104F20004820B4F84A309A4207D2638E13449BB2A9
:104F30009A422DD2A4F848302AE0638E03FB03F393
:104F400093FBF2F39BB213449BB29A4220D2A4F893
:104F500048301DE000231E443544394B9B69ED1A4F
:104F6000002D27DCE56E2B68E3666868FEF7DBFF43
:104F70006868FEF7D8FFB4F86230181AA4F8620027
:104F80002B892F4A918B0B4493832846FFF7EDF82A
:104F9000E36E7BB1DB685868FEF78BFB0546E36E7A
:104FA0001E89DB689889FEF77FFB10F0030FD1D0D4
:104FB0000123D0E7E36E23B1002323860023E376A9
:104FC0002AE04FF6FF732386F8E7A4F8643010E078
:104FD00000231F443E44AD1B002D33DB184B9B695F
:104FE000E26C9B1A002B2DDCA56E2B68A366002BB0
:104FF000EBD06868FEF797FF6868FEF794FFB4F897
:105000006230181AA4F862002B890D4A918B0B4468
:1050100093832846FFF7A9F8A36E9BB1084A9569C8
:10502000DB685868FEF745FB0646A36E1F89DB6800
:105030009889FEF739FB10F0030FC9D00123C8E7A8
:105040003C660020B4F86030A24A928B1344A4F866
:105050006030636B2BB1A26B9E498969521A002A9A
:1050600026DB9C4B9B8A002B00F08C82227D062A3B
:1050700000F28882616A974A12698D1A012D04D460
:105080001344CB1A0133002B33DD521A002A58DBAC
:10509000904B1969626A8B1A002B05DB238D134430
:1050A000CB1A0133002B51DD204601F00FF879E2D5
:1050B000894A1268D21A92B2B4F93C10A2EBE1020A
:1050C00092B213B2114409B2A187002B0EDBB4F9DE
:1050D0003E20A3EBA2039BB213449BB2E38703EBF6
:1050E000E103A4F8403000236363BAE7524213B2ED
:1050F000EDE7784B586A2B464289AA421CDA0189AF
:10510000ADB24D1BA9B204E09B1A0181002242817D
:10511000006842899A42F7DB5B4219B2FEF706FE4D
:10512000616A6C4A13695B1A9BB2108D0344138544
:105130001161D36A5960ABE7694209B2FEF7F6FD27
:10514000EEE7A37E43F00203A376A1E7914208D0E5
:10515000204600F0BBFF256F002D00F05181002696
:1051600071E15C4B1D8DDB6A9889FEF79DFA10F0AA
:10517000030F14D001232B449BB2564A9382228DF5
:1051800093420ED8236F002B4CD0524BDB6A988988
:10519000FEF78AFA10F0010F41D1256F6DE0002370
:1051A000E9E74C4BDB6A9889FEF77EFA10F0010FB5
:1051B0001FD1228D474B1A85DB6A9889FEF774FA56
:1051C00010F0020F03D0434A138D013B1385414D6C
:1051D000298D686AFEF77AFE2E8DEB6A9889FEF7B4
:1051E00063FA10F0030F14D001231E44394B9E8242
:1051F000C8E7384EF36A988920F47C55ADB2FEF7C3
:1052000053FA00F03E00FEF74FFAF36A2843988104
:10521000CFE70023E9E703682367FEF7A6FF206FC7
:105220000028F8D12B4DAA8A2B6913446362238D81
:105230009B1A23852046FEF754FF6B6A1A8912B128
:105240002B6300236B62234BDB6A9889FEF72CFAF1
:1052500010F0010F00F08E801E4A92F8343043F0B7
:10526000200382F8343085E000231F44194B9F82CD
:105270002E682846FEF779FF35467DB3154A938A96
:1052800012691344E9684A68288902449B1A002B72
:1052900024DB8889FEF708FA10F0010FE8D00D4BE7
:1052A000DB6A9889FEF700FA10F0020FE0D1094E90
:1052B000F36A9F890120FEF7F7F9F36A3843988172
:1052C000378DF36A9889FEF7EFF910F0030FCBD012
:1052D0000123CAE73C660020D49E002045B1A74BBD
:1052E00019699B8A0B44EA6852689B1A002B01DCFF
:1052F000256797E7521AA14B1A85DB6A9889FEF752
:10530000D3F910F0020F03D09C4A138D013B138593
:105310009A4E318D706AFEF7D9FD378DF36A988900
:10532000FEF7C2F910F0030F04D001231F44934B82
:105330009F82DDE70023F9E700232DE000233CE016
:105340008E4B196300236B60EB689889FEF7ACF90C
:1053500010F0010F09D0894A92F8343043F020034D
:1053600082F83430237D042B39D02B6823672846FC
:10537000FEF7FBFE256F002D34D0EA685368616AA2
:105380008B422FD17D490B612E899089FEF78CF9D4
:1053900010F0030FD0D001231E44636A33446362CC
:1053A000EB689889FEF780F92E89EB689889FEF7FB
:1053B0007BF910F0030FC1D001231E44238D9B1BEA
:1053C00023852046FEF78DFE69680B89002BBBD034
:1053D0006A4B186B0028B3D0FEF7BAFDB2E707237B
:1053E0002375C2E7A37E13F0010F05D003F0FE037F
:1053F00043F00203A376D5E043F00103A376D1E0A6
:105400005F48FEF7C9FE2067CCE05C4B1A8D2B8904
:105410009A4240F2C7805A48FEF7BEFE0346002873
:1054200000F0C0802EB1306029461846FFF792FC8C
:10543000B8E02067F8E7991A002934DB29682E467E
:1054400000293AD00D46002D00F0AC80E868426893
:105450004A4B1B699A42D8D0002EECD0F1684968BB
:10546000591A0129EAD4991A01310029E6DC444885
:10547000FEF792FE0446002800F09480F368596815
:1054800032890A443D4B1B69D21A002A05DD5B1A9A
:1054900099B231817068FEF719FD346029462046C3
:1054A000FFF758FC7EE03648FEF776FE002879D0FC
:1054B00020672946FFF74EFC74E09B1A002B01DCA5
:1054C0000D46C0E78089FEF7EFF810F0010F69D1B3
:1054D0002B48FEF761FE2860002863D0EB6859680E
:1054E0002A890A44254B1B69D21A002A3DDC234A2B
:1054F000938A12691344626A218D0A449B1A002B15
:1055000050DD2B68DB689889FEF7CEF810F0010FAC
:105510000FD02B68DB68988920F47C56B6B2FEF772
:10552000C3F800F03E00FEF7BFF82B68DB6830439D
:105530009881626A238D13449BB22A680F490969D6
:105540005B1A13812B6819895868FEF7BFFC2B681A
:105550001C89DB689889FEF7A7F810F0030F0BD0C1
:1055600001231C44054B9C821CE05B1A99B22981E3
:105570006868FEF7ABFCBAE70023F2E73C66002060
:105580005C660020084B1B69626A991A002905DBDA
:10559000218D0A449B1A0133002B03DDA37E43F0C7
:1055A0000203A376F8BD00BF3C66002070B582B050
:1055B000AD4B9B7B13F0040F2FD0037D022B0FD03C
:1055C000426AA94B1B699A4219D0991A0029C0F264
:1055D0002682018D0A449B1A002B0ADD002505E076
:1055E000C26CA14B9B699A4209D00025284602B0A3
:1055F00070BD837E43F0020383760025F6E79A4A66
:1056000092F8343043F0080382F83430837E23F07C
:10561000010383766FF00D05E8E713F0020F0AD05F
:10562000037D023BDBB2012B05D9837E43F00203ED
:1056300083760025DAE7837E13F0100F02D18B4BBF
:105640001B6803620446002380F89630FFF788FA4F
:10565000237D023B072B00F2E481DFE813F0080012
:105660007E00F2000B016201F2009101C4017E4B49
:105670009B7B03F01202122A04D013F0100F57D1B3
:105680000025B3E7626C0132774989698A42F4D117
:10569000754A1369581C6062E06261649268D2893D
:1056A000A4F85C20A4F85E20013B23650423237545
:1056B000E118608EFFF7FCF96086B4F85C30A4F85E
:1056C0004A30430041F21C12934238BF1346800017
:1056D000834228BF0346A4F84830B4F86230013B47
:1056E000A4F86230E06ED8B10368E366FEF73DFDD2
:1056F000E36ECBB10023238684F84230D4F88430A3
:1057000043B10022214620699847054610F10D0F4C
:105710003FF46CAFA37E43F00203A376002565E758
:10572000A06E0368A366E1E74FF6FF732386E5E703
:105730004D4B9D684E4A9E8A196998692B88019342
:105740006B88009313460432314400F001FE0025BB
:105750002586204600F040FE48E7434B9B7B13F034
:10576000100F5DD0404B9869636CC31A012B03D4B2
:10577000E36CC31A002B0FDD3B4B9C683C4A9D8AAF
:1057800019692388019363880093134604322944DE
:1057900000F0DEFD002529E704232375A36F8BB1FC
:1057A0009B6993B10022214620699847054678B14C
:1057B00015F10D0F3FF41AAF2046FFF799F86FF07F
:1057C0000C0513E76FF00505F2E76FF00F05EFE743
:1057D0002046FFF703FBB4F85C30A4F84A30224BB4
:1057E0009B8B13B1013B204A9383628E530041F29D
:1057F0001C118B4238BF0B469200934228BF1346C0
:10580000A4F84830184B93F8343013F0200F3FF4CD
:10581000EDAEA37E43F00203A37607232375E5E6EE
:1058200013F0020F00F0FF80636A013B0E4A126919
:10583000934201D00025D9E6204600F0E5FD002581
:10584000D4E62046FFF7CAFA074B93F8343013F03A
:10585000200F00F0EA80A37E43F00203A376072323
:1058600023750025C2E600BF3C660020D49E0020C0
:10587000B06700202046FFF7B1FA704B93F8343040
:1058800013F0200F38D06D4B9B7B13F0100F04D01A
:10589000E26C6A4B9B699A4207D0A37E43F00203F5
:1058A000A376082323750025A0E6A36E002BF4D170
:1058B000A37E43F00203A3762046FEF781FC604BF3
:1058C0001B68A34205D03BB1DA68A24211D013464F
:1058D000F9E7DA685A4B1A605A4B01221A700A2308
:1058E0002375594B1A68E2601C6000F005FF002523
:1058F0007CE6E268DA60EFE7504B9B7B13F0100F19
:1059000000F09580E26C4D4B9B699A4201D00025D6
:105910006CE6A36E0BB1002568E60623237500250F
:1059200064E62046FFF75AFA444B93F8343013F0FC
:10593000200F01D1002559E6A37E43F00203A37690
:105940002046FEF73DFC3E4B1B68A34205D053B1F9
:10595000DA68A24205D01346F9E7DA68384B1A60D4
:1059600001E0E268DA60374B01221A700A232375DE
:10597000354B1A68E2601C6000F0BEFE002535E67B
:105980002046FFF72BFA2D4B9B7B13F0100F50D0C6
:10599000E26C2A4B9B699A4201D0002526E6A36E51
:1059A0000BB1002522E62046FEF70AFC244B1B68BB
:1059B000A34205D053B1DA68A24205D01346F9E7F5
:1059C000DA681F4B1A6001E0E268DA601D4B0122C1
:1059D0001A700A2323751C4B1A68E2601C6000F0E1
:1059E0008BFE002502E62046FFF7F8F9134B9B7B60
:1059F00013F0100F1FD0E26C104B9B699A4201D03C
:105A00000025F3E5A36E0BB10025EFE50B4A92F8F4
:105A1000343043F0100382F834300025E6E50025E9
:105A2000E4E50025E2E50025E0E50025DEE50025CA
:105A3000DCE50025DAE50025D8E500BF3C6600205E
:105A4000D09E0020CC9E0020E09E0020F0B583B0C8
:105A5000044642689A4B9A604389132B0BD9994BA1
:105A60001968586902F083FF28B9964B5B6903F007
:105A7000F003E02B04D12046FEF762F903B0F0BD3D
:105A80008F4B9B689889FDF70FFEC0F30F3189009B
:105A9000C9B21329EFD989B223899942EBD8A1F170
:105AA00014039BB2864A9381002010606289914260
:105AB00034D8834AD38049422046FEF737F9804DD7
:105AC000AE683088FDF7F0FD3080AE687088FDF775
:105AD000EBFD7080AE687068FDF7EBFD70602861CB
