:020000040800F2
:1000000000A00020D90E00088D26000893260008C5
:10001000992600089F260008A52600080000000079
:10002000000000000000000000000000AB260008F7
:10003000B926000800000000C7260008D5260008E1
:10004000290F0008290F0008290F0008290F0008B0
:10005000290F0008290F0008290F0008290F0008A0
:10006000290F0008290F0008290F0008290F000890
:10007000290F0008290F0008290F0008290F000880
:10008000290F0008290F0008290F0008290F000870
:10009000290F0008290F0008290F0008290F000860
:1000A000290F0008290F0008290F0008290F000850
:1000B000290F0008290F0008290F0008290F000840
:1000C000290F0008290F0008290F0008290F000830
:1000D000290F0008290F0008290F0008290F000820
:1000E000290F0008290F0008290F0008290F000810
:1000F000290F0008290F0008290F0008290F000800
:10010000000000000000000000000000290F0008AF
:10011000290F0008290F0008E1260008F52600082D
:10012000290F0008290F0008290F0008290F0008CF
:10013000290F0008290F000800000000000000003F
:10014000290F0008290F0008290F000800000000EF
:10015000000000000000000000000000000000009F
:100160000000000000000000290F0008290F00080F
:10017000290F00080000000000000000000000003F
:0801800000000000290F000837
:1001880010B5054C237833B9044B13B10448AFF3C9
:1001980000800123237010BD8000002000000000B3
:1001A80078D6000808B5034B1BB103490348AFF3E1
:1001B800008008BD000000008400002078D60008F8
:1001C80081F0004102E000BF83F0004330B54FEA00
:1001D80041044FEA430594EA050F08BF90EA020F6D
:1001E8001FBF54EA000C55EA020C7FEA645C7FEA00
:1001F800655C00F0E2804FEA5454D4EB5555B8BF23
:100208006D420CDD2C4480EA020281EA030382EA93
:10021800000083EA010180EA020281EA0303362D25
:1002280088BF30BD11F0004F4FEA01314FF4801CF8
:100238004CEA113102D0404261EB410113F0004F0A
:100248004FEA03334CEA133302D0524263EB4303C1
:1002580094EA050F00F0A780A4F10104D5F1200E5F
:100268000DDB02FA0EFC22FA05F2801841F10001BA
:1002780003FA0EF2801843FA05F359410EE0A5F18E
:1002880020050EF1200E012A03FA0EFC28BF4CF0BF
:10029800020C43FA05F3C01851EBE37101F0004575
:1002A80007D54FF0000EDCF1000C7EEB00006EEB82
:1002B8000101B1F5801F1BD3B1F5001F0CD349080C
:1002C8005FEA30004FEA3C0C04F101044FEA445263
:1002D80012F5800F80F09A80BCF1004F08BF5FEAEA
:1002E800500C50F1000041EB045141EA050130BDCA
:1002F8005FEA4C0C404141EB010111F4801FA4F16D
:100308000104E9D191F0000F04BF01460020B1FAC1
:1003180081F308BF2033A3F10B03B3F120020CDAF9
:100328000C3208DD02F1140CC2F10C0201FA0CF0D7
:1003380021FA02F10CE002F11402D8BFC2F1200C3C
:1003480001FA02F120FA0CFCDCBF41EA0C019040F2
:10035800E41AA2BF01EB0451294330BD6FEA04043B
:100368001F3C1CDA0C340EDC04F11404C4F1200226
:1003780020FA04F001FA02F340EA030021FA04F338
:1003880045EA030130BDC4F10C04C4F1200220FA8F
:1003980002F001FA04F340EA0300294630BD21FACD
:1003A80004F0294630BD94F0000F83F4801306BF93
:1003B80081F480110134013D4EE77FEA645C18BF87
:1003C8007FEA655C29D094EA050F08BF90EA020F1E
:1003D80005D054EA000C04BF1946104630BD91EA16
:1003E800030F1EBF0021002030BD5FEA545C05D119
:1003F8004000494128BF41F0004130BD14F5800458
:100408003CBF01F5801130BD01F0004545F0FE41CB
:1004180041F470014FF0000030BD7FEA645C1ABF00
:10042800194610467FEA655C1CBF0B46024650EA37
:10043800013406BF52EA033591EA030F41F4002163
:1004480030BD00BF90F0000F04BF0021704730B5E9
:100458004FF4806404F132044FF000054FF00001BE
:1004680050E700BF90F0000F04BF0021704730B57F
:100478004FF4806404F1320410F0004548BF404254
:100488004FF000013EE700BF42004FEAE2014FEAA9
:1004980031014FEA02701FBF12F07F4393F07F4F84
:1004A80081F06051704792F0000F14BF93F07F4FB6
:1004B800704730B54FF4607401F0004521F00041F9
:1004C80020E700BF50EA010208BF704730B54FF07F
:1004D80000050AE050EA010208BF704730B511F084
:1004E800004502D5404261EB41014FF4806404F1BC
:1004F80032045FEA915C3FF4DCAE4FF003025FEA3E
:10050800DC0C18BF03325FEADC0C18BF033202EBC5
:10051800DC02C2F1200300FA03FC20FA02F001FA1F
:1005280003FE40EA0E0021FA02F11444C1E600BFBE
:1005380070B54FF0FF0C4CF4E06C1CEA11541DBF71
:100548001CEA135594EA0C0F95EA0C0F00F0DEF83C
:100558002C4481EA030621EA4C5123EA4C5350EA21
:10056800013518BF52EA033541F4801143F4801372
:1005780038D0A0FB02CE4FF00005E1FB02E506F003
:100588000042E0FB03E54FF00006E1FB03569CF058
:10059800000F18BF4EF0010EA4F1FF04B6F5007F5E
:1005A80064F5407404D25FEA4E0E6D4146EB0606D0
:1005B80042EAC62141EA55514FEAC52040EA5E5059
:1005C8004FEACE2EB4F1FD0C88BFBCF5E06F1ED803
:1005D800BEF1004F08BF5FEA500E50F1000041EB3A
:1005E800045170BD06F0004646EA010140EA0200E7
:1005F80081EA0301B4EB5C04C2BFD4EB0C0541EA09
:10060800045170BD41F480114FF0000E013C00F31D
:10061800AB8014F1360FDEBF002001F0004170BD41
:10062800C4F10004203C35DA0C341BDC04F114045A
:10063800C4F1200500FA05F320FA04F001FA05F2E6
:1006480040EA020001F0004221F0004110EBD370B3
:1006580021FA04F642EB06015EEA430E08BF20EADF
:10066800D37070BDC4F10C04C4F1200500FA04F382
:1006780020FA05F001FA04F240EA020001F0004114
:1006880010EBD37041F100015EEA430E08BF20EA87
:10069800D37070BDC4F1200500FA05F24EEA020ECF
:1006A80020FA04F301FA05F243EA020321FA04F0FE
:1006B80001F0004121FA04F220EA020000EBD370B5
:1006C8005EEA430E08BF20EAD37070BD94F0000FB5
:1006D8000FD101F00046400041EB010111F4801FE9
:1006E80008BF013CF7D041EA060195F0000F18BF9A
:1006F800704703F00046520043EB030313F4801FD6
:1007080008BF013DF7D043EA0603704794EA0C0F8F
:100718000CEA135518BF95EA0C0F0CD050EA4106A5
:1007280018BF52EA4306D1D181EA030101F0004122
:100738004FF0000070BD50EA410606BF104619464A
:1007480052EA430619D094EA0C0F02D150EA013656
:1007580013D195EA0C0F05D152EA03361CBF104697
:1007680019460AD181EA030101F0004141F0FE4136
:1007780041F470014FF0000070BD41F0FE4141F4BA
:10078800780170BD70B54FF0FF0C4CF4E06C1CEABA
:1007980011541DBF1CEA135594EA0C0F95EA0C0F6F
:1007A80000F0A7F8A4EB050481EA030E52EA03352A
:1007B8004FEA013100F088804FEA03334FF080554B
:1007C80045EA131343EA12634FEA022245EA111578
:1007D80045EA10654FEA00260EF000419D4208BF29
:1007E800964244F1FD0404F5407402D25B084FEAD6
:1007F8003202B61A65EB03055B084FEA32024FF482
:1008080080104FF4002CB6EB020E75EB030E22BFDE
:10081800B61A754640EA0C005B084FEA3202B6EB9E
:10082800020E75EB030E22BFB61A754640EA5C004D
:100838005B084FEA3202B6EB020E75EB030E22BFDD
:10084800B61A754640EA9C005B084FEA3202B6EBDE
:10085800020E75EB030E22BFB61A754640EADC009D
:1008680055EA060E18D04FEA051545EA16754FEAFF
:1008780006164FEAC30343EA52734FEAC2025FEA1D
:100888001C1CC0D111F4801F0BD141EA00014FF0AC
:1008980000004FF0004CB6E711F4801F04BF01437D
:1008A8000020B4F1FD0C88BFBCF5E06F3FF6AFAE99
:1008B800B5EB030C04BFB6EB020C5FEA500C50F129
:1008C800000041EB045170BD0EF0004E4EEA1131AC
:1008D80014EB5C04C2BFD4EB0C0541EA045170BDB3
:1008E80041F480114FF0000E013C90E645EA060EF7
:1008F8008DE60CEA135594EA0C0F08BF95EA0C0F25
:100908003FF43BAF94EA0C0F0AD150EA01347FF46C
:1009180034AF95EA0C0F7FF425AF104619462CE743
:1009280095EA0C0F06D152EA03353FF4FDAE1046A6
:10093800194622E750EA410618BF52EA43067FF4F7
:10094800C5AE50EA41047FF40DAF52EA43057FF487
:10095800EBAE12E74FF0FF3C06E000BF4FF0010C92
:1009680002E000BF4FF0010C4DF804CD4FEA410CF6
:100978007FEA6C5C4FEA430C18BF7FEA6C5C1BD0C3
:1009880001B050EA410C0CBF52EA430C91EA030F44
:1009980002BF90EA020F0020704710F1000F91EAA1
:1009A800030F58BF994208BF90422CBFD8176FEA6F
:1009B800E37040F0010070474FEA410C7FEA6C5C3D
:1009C80002D150EA013C07D14FEA430C7FEA6C5C44
:1009D800D6D152EA033CD3D05DF8040B704700BF70
:1009E8008446104662468C461946634600E000BFBE
:1009F80001B5FFF7B7FF002848BF10F1000F01BD90
:100A08004DF808EDFFF7F4FF0CBF012000205DF85A
:100A180008FB00BF4DF808EDFFF7EAFF34BF0120DF
:100A280000205DF808FB00BF4DF808EDFFF7E0FF78
:100A380094BF012000205DF808FB00BF4DF808EDC9
:100A4800FFF7CEFF94BF012000205DF808FB00BF30
:100A58004DF808EDFFF7C4FF34BF012000205DF812
:100A680008FB00BF4FEA410C7FEA6C5C02D150EAF8
:100A7800013C0AD14FEA430C7FEA6C5C02D152EA8E
:100A8800033C02D14FF0000070474FF0010070475F
:100A98004FEA410212F5001215D211D56FF478739E
:100AA800B3EB625212D94FEAC12343F0004343EA41
:100AB800505311F0004F23FA02F018BF404270471C
:100AC8004FF00000704750EA013005D111F00040A6
:100AD80008BF6FF0004070474FF00000704700BF3C
:100AE8004A0011D212F5001211D20DD56FF47873A5
:100AF800B3EB62520ED44FEAC12343F0004343EAFA
:100B0800505323FA02F070474FF00000704750EA44
:100B1800013002D14FF0FF3070474FF000007047AE
:100B28004FEA4102B2F1E04324BFB3F5001CDCF107
:100B3800FE5C0DD901F0004C4FEAC0024CEA50703F
:100B4800B2F1004F40EB830008BF20F0010070476E
:100B580011F0804F21D113F13872BCBF01F0004071
:100B6800704741F480114FEA5252C2F11802C2F1A3
:100B7800200C10FA0CF320FA02F018BF40F0010024
:100B88004FEAC1234FEAD32303FA0CFC40EA0C00D6
:100B980023FA02F34FEA4303CCE77FEA625307D113
:100BA80050EA01331EBF4FF0FE4040F4400070474A
:100BB80001F0004040F0FE4040F40000704700BFE4
:100BC80053B94AB9002908BF00281CBF4FF0FF31AC
:100BD8004FF0FF3000F07AB9ADF1080C6DE904CEA2
:100BE80000F006F8DDF804E0DDE9022304B0704700
:100BF8002DE9F0478C460D460446089E002B51D13E
:100C08008A4217466DD9B2FA82FEBEF1000F0BD0A8
:100C1800CEF1200C01FA0EF520FA0CFC02FA0EF7C0
:100C28004CEA050C00FA0EF44FEA174A250CBCFBF7
:100C3800FAF81FFA87F90AFB18CC45EA0C4508FBB5
:100C480009F3AB420AD9ED1908F1FF3280F023818C
:100C5800AB4240F22081A8F102083D44ED1AA4B24B
:100C6800B5FBFAF00AFB105544EA054400FB09F904
:100C7800A14509D9E41900F1FF3380F00A81A145A3
:100C880040F2078102383C44A4EB090440EA0840DA
:100C98000021002E61D024FA0EF400233460736022
:100CA800BDE8F0878B4207D9002E54D0002186E892
:100CB80021000846BDE8F087B3FA83F1002940F027
:100CC8008E80AB4202D3824200F2FA80841A65EB2E
:100CD80003050120AC46002E3FD086E81010BDE881
:100CE800F08712B90127B7FBF2F7B7FA87FEBEF112
:100CF800000F34D1EB1B3A0C1FFA87FC0121B3FB20
:100D0800F2F8250C02FB183345EA03450CFB08F3FF
:100D1800AB4207D9ED1908F1FF3002D2AB4200F21D
:100D2800D1808046ED1AA3B2B5FBF2F002FB105554
:100D380043EA05440CFB00FCA44507D9E41900F17B
:100D4800FF3302D2A44500F2B8801846A4EB0C0485
:100D580040EA08409DE731463046BDE8F087CEF1CD
:100D6800200405FA0EF307FA0EF720FA04F83A0CF5
:100D780025FA04F448EA0308B4FBF2F14FEA1845EF
:100D880002FB11441FFA87FC45EA044501FB0CF3FA
:100D9800AB4200FA0EF409D9ED1901F1FF3080F0E9
:100DA8008A80AB4240F2878002393D44EB1A1FFA31
:100DB80088F5B3FBF2F002FB103345EA034500FB6C
:100DC8000CF3AB4207D9ED1900F1FF386FD2AB42F3
:100DD8006DD902383D44EB1A40EA01418FE7C1F171
:100DE800200722FA07F88B4005FA01F448EA0303C2
:100DF80020FA07FE4FEA134CFD404EEA040EB5FBFD
:100E0800FCF94FEA1E440CFB19551FFA83F844EA13
:100E1800054509FB08F4AC4202FA01F200FA01FAAE
:100E280008D9ED1809F1FF3043D2AC4241D9A9F1F4
:100E380002091D442D1B1FFA8EFEB5FBFCF00CFBAE
:100E480010554EEA054400FB08F8A04507D9E418F8
:100E580000F1FF3529D2A04527D902381C4440EAC1
:100E68000940A4EB0804A0FB02894C45C6464D4640
:100E780015D312D056B1BAEB0E0364EB050404FA8D
:100E880007F7CB401F43CC40376074600021BDE8B2
:100E9800F0871846F8E69046E0E6C245EAD2B8EB95
:100EA800020E69EB03050138E4E72846D7E7404618
:100EB80091E78146BEE7014678E702383C4445E7BA
:100EC800084608E7A8F102083D442BE7704700BF31
:100ED800DFF834D00D480E490E4A002302E0D458FA
:100EE800C4500433C4188C42F9D30B4A0B4C00236A
:100EF80001E013600432A242FBD301F001FC0CF0C4
:100F080073FA00F037FDFEE700A000200000002083
:100F18008000002030DE00088000002098140020A7
:100F2800FEE7000080B588B000AF3B4683E80300C9
:100F380007F10C0300221A605A609A60DA601A619D
:100F48000023BB60BB783B737B787B730023BB7348
:100F58000023BB610023FB6107F10C030022194643
:100F68000F4804F07AF90346002B01D001F0A2F9EA
:100F780001233B7201237B720123BB722023FB7286
:100F880007F1080300221946054804F081FA0346D0
:100F9800002B01D001F08EF900BF2037BD4680BD7F
:100FA8000410002080B58AB000AF786007F12003F4
:100FB80000221A609A8007F10C0300221A605A6016
:100FC8009A60DA601A610023BB6007F10C03002203
:100FD8001946144804F0FEF907F1080300221946DF
:100FE800104804F0FCFAFB7A87F825307B7A87F8FA
:100FF8002430BB7A87F823303B7B87F822307B7B11
:1010080087F82130BB7B87F820307B681A4607F1C8
:101018002003186810609B88938078682837BD463D
:1010280080BD00BF0410002080B582B000AF034629
:101038000A46FB8013467B71FB88642B21D97B7998
:10104800012B04D0022B13D0002B09D042E00C2135
:10105800224805F0CBFB4FF08042FB88136439E04F
:1010680000211F4805F0C2FB1E4AFB88536331E08C
:1010780004211B4805F0BAFB1A4AFB88936300BF9A
:1010880028E07B79012B04D0022B18D0002B0BD041
:1010980020E04FF0804300221A64002208214FF01C
:1010A800904002F035F815E000210D4805F09EFC4F
:1010B800002240214FF0904002F02AF80AE0042173
:1010C800074805F093FC002280214FF0904002F081
:1010D8001FF800BF00BF0837BD4680BD881000203C
:1010E800500F002000040040F0B59FB018AF7860A2
:1010F8007B681B68BC4A934240F04882BB4B1B7913
:10110800102B00F04382BA4B93F89031042B00F275
:101118003D8201A252F823F0351100080712000899
:10112800E7130008E7130008E7130008AF4B1A8815
:10113800AF4B1B889A4240F22482AC4B1B8818465E
:10114800AB4B93F890311946A94A0B469B000B44C8
:101158009B0013441B881C46A54B93F890311946F5
:10116800A34A0B469B000B449B00134464331B8823
:101178002344984280F205829C4B5A889C4B93F8F2
:10118800903118469A4903469B0003449B000B4440
:10119800C8331B889A4240F2F481944B5B88184606
:1011A800934B93F890311946914A0B469B000B4498
:1011B8009B001344C8331B881C468D4B93F8903111
:1011C80019468B4A0B469B000B449B00134403F5BE
:1011D80096731B882344984280F2D381844B012262
:1011E80083F89021824B93F89031184608F000F963
:1011F8007E4BFF221A807D4BFF225A80C1E11023CB
:10120800BB750023FB756EE0784B1A88784B93F812
:1012180090311C46F97D764823469B0023445B00A9
:101228000B4430F813309A425AD9704B1B881C462D
:101238006F4B93F890311846FA7D6D4903469B0031
:1012480003445B00134431F813301D46684B93F890
:1012580090311846FA7D664903469B0003445B00BB
:10126800134430335B000B449B882B449C4237DA91
:101278005E4B5A885E4B93F890311C46F97D5C486A
:1012880023469B0023445B000B44643330F813303F
:101298009A4225D9554B5B881C46554B93F890319B
:1012A8001846FA7D524903469B0003445B001344E9
:1012B800643331F813301D464D4B93F8903118467E
:1012C800FA7D4B4903469B0003445B001344943367
:1012D8005B000B449B882B449C4201DAFB7DBB7569
:1012E800FB7D0133FB75FB7D032B8DD9BB7D102B5B
:1012F80000F04981BB7D032B6AD801A252F823F084
:10130800191300086113000889130008B1130008B5
:10131800374B002283F89021364E374B0FAC1D46D1
:101328000FCD0FC40FCD0FC42B682360334A0DAB0C
:101338001068186092889A806D4606F110040FCCE8
:101348000FC50FCC0FC50FCC0FC523682B6096E8CF
:101358000F0008F0B1FD3BE0284B1A680021114648
:101368001A795B791B021A43002362F30F030846BC
:10137800194608F02BFF1E4B022283F8902127E024
:101388001F4B1A68002111461A795B791B021A4310
:10139800002362F30F030846194607F037FB144B86
:1013A800032283F8902113E0154B1A680021114697
:1013B8001A795B791B021A43002362F30F0308466C
:1013C800194607F023FB0A4B042283F8902100BF3B
:1013D800074B93F89031184608F00AF8D3E0102329
:1013E800BB750023FB757CE0001400400C0E002048
:1013F800D41000209C00002050140020FC0D002078
:1014080080100020834B1A88834B93F890311C4638
:10141800F97D814823469B0023445B000B4430F848
:1014280013309A425AD97B4B1B881C467A4B93F847
:1014380090311846FA7D784903469B0003445B00C7
:10144800134431F813301D46734B93F89031184606
:10145800FA7D714903469B0003445B001344303313
:101468005B000B449B882B449C4237DA694B5A88B3
:10147800694B93F890311C46F97D674823469B00D9
:1014880023445B000B44643330F813309A4225D967
:10149800604B5B881C46604B93F890311846FA7D88
:1014A8005D4903469B0003445B001344643331F8F1
:1014B80013301D46584B93F890311846FA7D56491B
:1014C80003469B0003445B00134494335B000B44C6
:1014D8009B882B449C4201DAFB7DBB75FB7D013365
:1014E800FB75FB7D012B8DD94A4B10221A71BB7DF0
:1014F800102B4AD0BB7D002B02D0012B0BD044E02F
:10150800454B012283F89021434B93F890311846BC
:1015180007F06EFF34E0404B93F89031022B0FD167
:101528003E4B1A68002111461A795B791B021A434F
:10153800002362F30F0308461946FFF7F3FC14E093
:10154800374B384A1168196092889A80344B1A6868
:10155800002111461A795B791B021A43002362F3B2
:101568000F030846194606F0F3FE2B4B012283F8B9
:101578009021294B93F89031184607F039FF00BFA6
:1015880003E000BF02E000BF00E000BF7B681B680B
:10159800254A934240F0E681244B93ED047A234B8D
:1015A800D3ED007A77EE677A214BC3ED017A1F4BB2
:1015B80093ED027A1D4BD3ED007A77EE677A1C4BD8
:1015C800C3ED007A194B93ED067A184BD3ED007AE8
:1015D80077EE677A164BC3ED027A01237B750023F9
:1015E8003B7500237B7521E17B7D002B02D0012B0D
:1015F80024D034E00D4B1B7B012B01D101233B751B
:10160800ED237B824FF4FA733B820A4BFB600A4B53
:10161800BB6024E00C0E0020D4100020040E002033
:101628008010002068120020001000409C0000205C
:10163800501400200000D04000004041B54B1B7DF5
:10164800012B01D101233B7540F277137B824FF4C4
:10165800FA733B82B04BFB60B04BBB6000BF3B7D75
:10166800002B00F0E0807B7DAD4A9B00134493ED96
:10167800007A7B7DAB4AD35607EE903AF8EEE77ACC
:10168800B4EEE77AF1EE10FAC0F288807B7DA44AC6
:101698009B00134493ED007A7B7DA24A134493F98F
:1016A800033007EE903AF8EEE77AB4EEE77AF1EE17
:1016B80010FA73D87C7D7B7D994A9B001344D3ED47
:1016C800007A7B7D974AD35607EE103AB8EEC77A70
:1016D8007B7D944A134493F9033006EE903AF8EE72
:1016E800E66A7B8A06EE103AB8EE466A3B8A05EE51
:1016F800903AF8EE655AB0EE652AF0EE461AB0EE6A
:10170800661AF0EE470AB0EE670A0BF035FBF0EE0A
:10171800407AFCEEE77AC7ED007A3B8899B2804AB6
:1017280004F1080322F813107C7D7B7D7C4A9B0022
:101738001344D3ED007A7B7D7A4AD35607EE103AEC
:10174800B8EEC77A7B7D774A134493F9033006EEE7
:10175800903AF8EEE66A97ED022AD7ED031AB0EE52
:10176800661AF0EE470AB0EE670A0BF005FBF0EEDA
:10177800407A6B4AA31D9B001344C3ED007A7B7D1E
:10178800674A134401221A737B7D654A083332F88D
:1017980013307A7D11461846FFF746FC7B7D604A78
:1017A8009B00134493ED007A7B7D5E4AD35607EE87
:1017B800903AF8EEE77AB4EEE77AF1EE10FA11D53E
:1017C8007B7D574A134400221A737B7D544A0633A3
:1017D8009B0013444FF000021A607B7D19460020DD
:1017E800FFF722FC7B7D4E4A9B00134493ED007A61
:1017F8007B7D4C4A134493F9033007EE903AF8EE98
:10180800E77AB4EEE77AF1EE10FA0CDD7B7D194643
:101818004FF4FA70FFF708FC7B7D414A06339B00C2
:1018280013443E4A1A607B7D01337B757B7D012B17
:101838007FF6DAAE02237B75364B1B7F012B40F017
:1018480091807B7D364A9B00134493ED007A7B7D23
:10185800344AD35607EE903AF8EEE77AB4EEE77AD0
:10186800F1EE10FA14D5304B1B78022B10D87B7D83
:101878001946FC20FFF7D8FB7B7D294A06339B00DD
:1018880013442A4A1A607B7D254A134401221A739D
:101898007B7D234A9B00134493ED007A7B7D214A8C
:1018A800D35607EE903AF8EEE77AB4EEE77AF1EE1F
:1018B80010FA0FD51C4B1B78032B0BD17B7D1946D7
:1018C800D320FFF7B1FB7B7D154A06339B001344F9
:1018D800174A1A607B7D124A9B0013441B681846FE
:1018E800FEF7D2FD04460D467B7D0E4AD3561846B8
:1018F800FEF7B8FD4FF000020E4BFEF767FC0246FC
:101908000B4620462946FFF7A3F80346002B13D1C0
:1019180028E000BF9C000020000008410000404172
:1019280050140020801000206E1200200000C040DB
:101938000000A0400000D03F7B7D0C4A13441B7B75
:10194800012B0FD17B7D19460020FFF76DFB7B7DB6
:10195800064A06339B0013444FF000021A60044BFA
:1019680000221A7000BF1C37BD46F0BD501400207D
:101978006E120020F0B5ADF5017D18AF00F0D2FE73
:1019880000F098F900F012FC00F0FEF900F06CFA93
:1019980000F0A8FA00F000FB00F0D0FB00F034FAE9
:1019A80000F060FB00F094FB0C21B24804F01EFF2D
:1019B8000021B14804F01AFF0421AF4804F016FFD3
:1019C80001224FF480714FF0904001F0A1FB0121FA
:1019D8000020FFF729FB00210020FFF725FB02214B
:1019E8000020FFF721FB08F00FFF002009F064F842
:1019F80000214FF6FF7009F05BFD002009F062FD41
:101A0800012009F0BBF80BF0DDFC002009F054F8C8
:101A18009A4806F0AFFE9A4806F0F6FC032006F056
:101A280015FD002006F012FD012006F00FFD954C73
:101A380007F5CC73184606F0BBFE04F1180307F54A
:101A4800CC7292E8030083E803008E4C07F5CC7350
:101A58000321184606F054FD224607F5CC7393E897
:101A6800030082E80300874C07F5CC730021184671
:101A780006F046FD04F1080307F5CC7292E803006E
:101A880083E803007F4C07F5CC730121184606F064
:101A980037FD04F1100307F5CC7292E8030083E8E0
:101AA8000300794C07F5CC73184606F077FC2246FC
:101AB80007F5CC73196811609B889380734C3B467B
:101AC800184606F0B9FF3B46204619464FF4C9733D
:101AD8001A460BF0ADFC6D4B93F89031184607F0A1
:101AE80087FC6B4804F0C0FD6A4804F0BDFD6A4CF1
:101AF8003B461846FFF756FA3A46234611681960DE
:101B080092889A805F4C3B46184606F051FE3A464A
:101B180004F1180392E8030083E80300594C3B469C
:101B28000321184606F0ECFC3A46234692E80300E7
:101B380083E80300534C3B460021184606F0E0FCBE
:101B48003A4604F1080392E8030083E803004D4C89
:101B58003B460121184606F0D3FC3A4604F110032F
:101B680092E8030083E803004C4C3B4618460BF010
:101B7800C3FB3A4623461168196092889A80434B02
:101B880093F89031042B6ED801A252F823F000BFCD
:101B9800AD1B00086F1C0008151C00083D1C000840
:101BA8003D1C00083C4B1A783D4B1B789A4259D093
:101BB8003C4B9B7B002B09D03B4B1B78022B05D859
:101BC800394B1B780133DAB2374B1A702D4E354B2F
:101BD8000FAC1D460FCD0FC40FCD0FC42B6823606B
:101BE8002D4A0DAB1068186092889A806D4606F1F0
:101BF80010040FCC0FC50FCC0FC50FCC0FC5236831
:101C08002B6096E80F0008F057F92BE0274C384670
:101C1800224B1A68002111469A88002362F30F03A9
:101C28001A4608F043F83A46234611681960928824
:101C38009A8018E0154B93F890111D4D3846174BB4
:101C48001A68002414469B88002263F30F020B468F
:101C5800214607F03BFE3A462B46116819609288E8
:101C68009A8000E000BF0E4B0B4A116819609288F9
:101C78009A803CE788100020500F0020000F0020B9
:101C8800180E00209C00002080100020D410002096
:101C98002410002070120020FC0D00200C0E0020E3
:101CA8009C0F0020501400206E120020040E00200B
:101CB8006812002080B59EB000AF07F150032822BB
:101CC800002118460BF0BFFB07F13C0300221A6005
:101CD8005A609A60DA601A613B463C220021184635
:101CE8000BF0B1FB01F02AFF254A254B1B6A23F0B4
:101CF8001803136206233B650123FB6501233B663A
:101D080010237B660223FB6600233B674FF46013B6
:101D18007B6707F15003184601F020FF0346002BAC
:101D280001D000F0C7FA0F23FB6302233B640023B2
:101D38007B644FF48063BB640023FB6407F13C03BE
:101D48000221184602F012FE0346002B01D000F0D3
:101D5800B1FA0C4B3B6000233B6100233B624FF41C
:101D680080737B603B46184603F036F80346002B29
:101D780001D000F09FFA00BF7837BD4680BD00BF94
:101D8800001002404400010080B500AF1B4B1C4A04
:101D98001A601A4B1B4A5A60184B00229A60174B5C
:101DA8000122DA60154B00221A61144B00225A6195
:101DB800124B00229A61114B0022DA610F4B00226C
:101DC8001A620E4801F0BCF90346002B01D000F05E
:101DD80071FA0021094801F019FE0346002B01D0D1
:101DE80000F068FA0021054801F05BFE0346002B6D
:101DF80001D000F05FFA00BF80BD00BF000F0020D7
:101E080000580040FE09002080B586B000AF3B1D99
:101E180000221A605A609A60DA601A6100233B60F7
:101E28000F4B104A1A600E4B00225A600C4B7F224F
:101E38009A600B4BFF22DA60094B00221A61084BAB
:101E480000225A61064B00229A61054803F074F992
:101E58000346002B01D000F02DFA1837BD4680BD8F
:101E6800041000200028004080B500AF1B4B1C4A1E
:101E78001A601A4B4FF482725A60184B00229A600B
:101E8800164B4FF4E062DA60144B00221A61134BD0
:101E980001225A61114B4FF400729A610F4B0822CC
:101EA800DA610E4B00221A620C4B00225A620B4B6D
:101EB80000229A62094B0722DA62084B00221A6351
:101EC800064B00225A63054803F068FC0346002BC2
:101ED80001D000F0EFF900BF80BD00BF180E002050
:101EE8000038004080B58AB000AF07F11C0300221B
:101EF8001A605A609A603B4600221A605A609A60DB
:101F0800DA601A615A619A61224B4FF080421A6076
:101F1800204B00225A601F4B00229A601D4B4FF441
:101F2800FA72DA601B4B00221A611A4B80229A61FE
:101F3800184804F003FC0346002B01D000F0BAF95E
:101F48000023FB6100237B6207F11C03194611483B
:101F580005F0CAFB0346002B01D000F0ABF9602363
:101F68003B6000237B600023BB6000233B613B4652
:101F78000C221946074804F0EFFE0346002B01D057
:101F880000F098F9034800F0DFFA00BF2837BD4693
:101F980080BD00BF8810002080B58AB000AF07F16F
:101FA8001C0300221A605A609A603B4600221A609D
:101FB8005A609A60DA601A615A619A61274B284A16
:101FC8001A60264B00225A60244B00229A60234B49
:101FD8004FF4FA72DA60214B00221A611F4B8022FB
:101FE8009A611E4804F0AAFB0346002B01D000F0BA
:101FF80061F90023FB6100237B6207F11C0319468A
:10200800164805F071FB0346002B01D000F052F989
:1020180060233B6000237B600023BB6000233B619F
:102028003B46002219460D4804F096FE0346002B55
:1020380001D000F03FF93B4604221946074804F056
:102048008BFE0346002B01D000F034F9034800F062
:102058007BFA00BF2837BD4680BD00BF500F002067
:102068000004004080B584B000AF3B1D00221A6018
:102078005A609A60144B154A1A60134B0A225A6028
:10208800114B00229A60104B42F21072DA600E4B2C
:1020980080229A610C4804F08FFA0346002B01D085
:1020A80000F008F900237B600023FB603B1D194604
:1020B800054805F019FB0346002B01D000F0FAF89B
:1020C80000BF1037BD4680BD24100020001000401E
:1020D80080B584B000AF3B1D00221A605A609A6038
:1020E800144B154A1A60134B0A225A60114B0022EE
:1020F8009A60104B47F23052DA600E4B80229A6198
:102108000C4804F059FA0346002B01D000F0D2F82D
:1021180000237B600023FB603B1D1946054805F042
:10212800E3FA0346002B01D000F0C4F800BF1037D3
:10213800BD4680BD701200200014004080B500AF7D
:10214800184B194A1A60174B4FF416525A60154B20
:1021580000229A60134B0022DA60124B00221A61A7
:10216800104B0C225A610F4B00229A610D4B002232
:10217800DA610C4B00221A620A4B30225A62094B70
:102188004FF480529A63074B4FF40052DA630548C4
:1021980005F048FB0346002B01D000F08BF800BF88
:1021A80080BD00BF7C0E00200048004080B58AB08A
:1021B80000AF07F1140300221A605A609A60DA60CF
:1021C8001A61394A384B5B6943F400235361364B33
:1021D8005B6903F400233B613B69334A324B5B691B
:1021E80043F480035361304B5B6903F48003FB6065
:1021F800FB682D4A2C4B5B6943F4003353612A4B2F
:102208005B6903F40033BB60BB68274A264B5B69F4
:1022180043F480235361244B5B6903F480237B6080
:102228007B6800220321214800F072FF002248F257
:1022380007114FF0904000F06BFF002241F2FB3194
:102248001B4800F065FF03237B610123BB6100236A
:10225800FB6100233B6207F114031946134800F0A1
:10226800DDFD48F207137B610123BB610023FB619D
:1022780000233B6207F1140319464FF0904000F029
:10228800CDFD41F2FB337B610123BB610023FB6180
:1022980000233B6207F114031946054800F0BEFD10
:1022A80000BF2837BD4680BD00100240001400481A
:1022B8000004004880B400AF72B6FEE780B483B073
:1022C80000AF0F4A0E4B9B6943F0010393610C4B1F
:1022D8009B6903F001037B607B68094A084BDB6953
:1022E80043F08053D361064BDB6903F080533B60B6
:1022F8003B6800BF0C37BD465DF8047B704700BFE4
:102308000010024080B58AB000AF786007F114036E
:1023180000221A605A609A60DA601A617B681B684A
:10232800184A934229D1184A174B5B6943F4003382
:102338005361154B5B6903F400333B613B694FF410
:10234800C0637B611223BB610123FB6103233B62F2
:1023580004237B6207F1140319464FF0904000F004
:102368005DFD094A084BDB6943F48003D361064BE2
:10237800DB6903F48003FB60FB6800BF2837BD46B8
:1023880080BD00BF005800400010024080B485B0F6
:1023980000AF78607B681B680D4A934211D14FF4F7
:1023A8000043FB60FB6893FAA3F3BB60BB68B3FA16
:1023B80083F3DBB21A46074B13449B001A460123EA
:1023C800136000BF1437BD465DF8047B704700BF3B
:1023D800002800400081901080B58AB000AF786076
:1023E80007F1140300221A605A609A60DA601A61D1
:1023F8007B681B68174A934228D1174A164BDB693A
:1024080043F48043D361144BDB6903F480433B619D
:102418003B69114A104B5B6943F4802353610E4BAF
:102428005B6903F48023FB60FB684FF460437B61C6
:102438000223BB610023FB6103233B6205237B620C
:1024480007F114031946054800F0E8FC00BF2837D7
:10245800BD4680BD0038004000100240000400481E
:1024680080B485B000AF78607B681B68B3F1804F9B
:102478000CD1124A114BDB6943F00103D3610F4BB6
:10248800DB6903F00103FB60FB6810E07B681B68F5
:102498000B4A93420BD1094A084BDB6943F002030C
:1024A800D361064BDB6903F00203BB60BB6800BF66
:1024B8001437BD465DF8047B704700BF001002402A
:1024C8000004004080B584B000AF78607B681B686A
:1024D8001A4A934214D11A4A194BDB6943F0100384
:1024E800D361174BDB6903F01003FB60FB68002224
:1024F8000021362000F077FA362000F090FA18E034
:102508007B681B680F4A934213D10D4A0C4BDB6959
:1025180043F02003D3610A4BDB6903F02003BB605F
:10252800BB6800220021372000F05DFA372000F058
:1025380076FA00BF1037BD4680BD00BF00100040CE
:10254800001002400014004080B58AB000AF7860E7
:1025580007F1140300221A605A609A60DA601A615F
:102568007B681B68B3F1804F1DD1224A214B5B6900
:1025780043F4003353611F4B5B6903F400333B6141
:102588003B6908237B610223BB610023FB610023B5
:102598003B6201237B6207F1140319464FF0904018
:1025A80000F03CFC21E07B681B68134A93421CD175
:1025B800104A104B5B6943F4003353610D4B5B6960
:1025C80003F40033FB60FB68C0237B610223BB611B
:1025D8000023FB6100233B6202237B6207F11403A3
:1025E80019464FF0904000F019FC00BF2837BD464F
:1025F80080BD00BF001002400004004080B58AB0D2
:1026080000AF786007F1140300221A605A609A60DC
:10261800DA601A617B681B68174A934228D1174A07
:10262800164BDB6943F48023D361144BDB6903F455
:1026380080233B613B69114A104B5B6943F480235B
:1026480053610E4B5B6903F48023FB60FB684FF416
:1026580040637B610223BB610023FB6103233B6270
:1026680007237B6207F114031946054800F0D6FBDF
:1026780000BF2837BD4680BD00480040001002401A
:102688000004004880B400AFFEE780B400AFFEE766
:1026980080B400AFFEE780B400AFFEE780B400AFBF
:1026A800FEE780B400AF00BFBD465DF8047B70470D
:1026B80080B400AF00BFBD465DF8047B704780B4AE
:1026C80000AF00BFBD465DF8047B704780B500AF22
:1026D80000F06EF800BF80BD80B500AF024804F07E
:1026E8001BFA00BF80BD00BF2410002080B500AFDA
:1026F800024804F011FA00BF80BD00BF701200202C
:1027080080B400AF064A064BD3F8883043F4700310
:10271800C2F8883000BFBD465DF8047B704700BF33
:1027280000ED00E080B500AF084A084B1B6843F095
:1027380010031360032000F04BF9002000F008F8A4
:10274800FFF7BCFD0023184680BD00BF00200240F3
:1027580080B582B000AF7860124B1A68124B1B78B4
:1027680019464FF47A73B3FBF1F3B2FBF3F318464F
:1027780000F063F90346002B01D001230EE07B68CB
:102788000F2B0AD8002279684FF0FF3000F02BF9A0
:10279800064A7B681360002300E0012318460837C7
:1027A800BD4680BD00000020080000200400002075
:1027B80080B400AF064B1B781A46064B1B681344BF
:1027C800044A136000BFBD465DF8047B704700BF34
:1027D800080000207414002080B400AF034B1B686D
:1027E8001846BD465DF8047B704700BF741400208E
:1027F80080B584B000AF7860FFF7EEFFB8607B6803
:10280800FB60FB68B3F1FF3F05D0094B1B781A4604
:10281800FB681344FB6000BFFFF7DEFF0246BB689E
:10282800D21AFB689A42F7D300BF1037BD4680BD65
:102838000800002080B485B000AF78607B6803F0A2
:102848000703FB600C4BDB68BB60BA684FF6FF03FD
:102858001340BB60FB681A02BB68134343F0BF63B5
:1028680043F40033BB60044ABB68D36000BF14372D
:10287800BD465DF8047B704700ED00E080B400AF12
:10288800044BDB681B0A03F007031846BD465DF8D6
:10289800047B704700ED00E080B483B000AF0346CE
:1028A800FB7197F90730002B0BDB094997F90730C3
:1028B8005B09FA7902F01F02012000FA02F241F8DE
:1028C800232000BF0C37BD465DF8047B704700BF6E
:1028D80000E100E080B483B000AF03463960FB71CB
:1028E80097F90730002B0ADB0D4997F907303A684A
:1028F800D2B21201D2B20B4483F800230AE009498C
:10290800FB7903F00F03043B3A68D2B21201D2B24A
:102918000B441A7600BF0C37BD465DF8047B704740
:1029280000E100E000ED00E080B489B000AFF8609D
:10293800B9607A60FB6803F00703FB61FB69C3F1C8
:102948000703042B28BF0423BB61FB690433062B50
:1029580002D9FB69033B00E000237B610122BB69CC
:1029680002FA03F35A1EBB681A407B699A40012198
:102978007B6901FA03F3591E7B680B401343184621
:102988002437BD465DF8047B7047000080B582B0EF
:1029980000AF78607B68013BB3F1807F01D30123EE
:1029A8000FE00A4A7B68013B53600F214FF0FF306C
:1029B800FFF790FF054B00229A60044B07221A602C
:1029C800002318460837BD4680BD00BF10E000E070
:1029D80080B582B000AF78607868FFF72BFF00BF42
:1029E8000837BD4680BD80B586B000AF0346B960E4
:1029F8007A60FB7300237B61FFF740FF78617A6898
:102A0800B9687869FFF790FF024697F90F301146C9
:102A18001846FFF75FFF00BF1837BD4680BD80B579
:102A280082B000AF0346FB7197F907301846FFF7ED
:102A380033FF00BF0837BD4680BD80B582B000AF08
:102A480078607868FFF7A2FF034618460837BD4646
:102A580080BD0000F0B587B000AFF860B960C7E985
:102A680000230123FB750023BB7500237B752F4BC7
:102A78001B7E012B01D1022354E02C4B01221A7634
:102A88004CF2503000F0B4F80346FB75FB7D002B88
:102A980044D1FB68012B02D101237B7507E0FB6859
:102AA800022B02D102237B7501E004237B750023EE
:102AB800BB752DE0BB7D5A00BB6802EB030EBB7DE6
:102AC8001901D7E90023C1F12006A1F1200022FA5B
:102AD80001F403FA06F6344323FA00F0044323FA18
:102AE80001F5A3B21946704600F066F84CF2503072
:102AF80000F07EF80346FB750D4A0D4B1B6923F069
:102B080001031361FB7D002B07D1BB7D0133BB752E
:102B1800BA7D7B7D9A42CDD300E000BF034B0022F3
:102B28001A76FB7D18461C37BD46F0BD7814002088
:102B38000020024080B483B000AF0023FB710D4B2E
:102B48001B6903F08003002B0DD00A4B0A4A5A6018
:102B5800084B0A4A5A60074B1B6903F08003002B95
:102B680001D00123FB71FB7918460C37BD465DF88F
:102B7800047B70470020024023016745AB89EFCDF5
:102B880080B400AF054A054B1B6943F0800313610D
:102B980000231846BD465DF8047B704700200240BC
:102BA80080B400AF034BDB691846BD465DF8047B73
:102BB800704700BF7814002080B483B000AF7860FD
:102BC8000B467B80084B0022DA61084A074B1B69D9
:102BD80043F0010313617B687A881A8000BF0C37C1
:102BE800BD465DF8047B7047781400200020024041
:102BF80080B584B000AF7860FFF7EEFDF86010E0B4
:102C08007B68B3F1FF3F0CD07B68002B07D0FFF740
:102C1800E3FD0246FB68D21A7B689A4201D9032376
:102C28001FE0124BDB6803F00103012BE8D00F4BC8
:102C3800DB6803F02003202B02D10C4B2022DA6042
:102C48000A4BDB6803F01003102B05D0074BDB6839
:102C580003F00403042B03D100F00AF8012300E079
:102C6800002318461037BD4680BD00BF0020024033
:102C780080B483B000AF00237B60144BDB6803F0A3
:102C88001003102B09D1124BDB6943F00203104AE1
:102C9800D3617B6843F010037B600C4BDB6803F067
:102CA8000403042B09D10A4BDB6943F00103084AEA
:102CB800D3617B6843F004037B60044A7B68D3607C
:102CC80000BF0C37BD465DF8047B7047002002400A
:102CD8007814002080B584B000AF78603960012393
:102CE800FB730023BB602E4B1B7E012B01D10223FB
:102CF80052E02B4B01221A767B681B68012B15D1F9
:102D08004CF25030FFF774FF0346002B40D100F01F
:102D18004BF84CF25030FFF76BFF0346FB73214A28
:102D2800204B1B6923F00403136131E04CF250304F
:102D3800FFF75EFF0346002B2AD13B684FF0FF32B6
:102D48001A607B685B68BB6019E0B86800F046F8F9
:102D58004CF25030FFF74CFF0346FB73114A114BFE
:102D68001B6923F002031361FB7B002B03D03B6834
:102D7800BA681A600CE0BB6803F50063BB607B6847
:102D88009B68DA027B685B681A44BB689A42DCD8A5
:102D9800034B00221A76FB7B18461037BD4680BDD0
:102DA800781400200020024080B400AF094B0022B4
:102DB800DA61094A084B1B6943F004031361064AA8
:102DC800054B1B6943F04003136100BFBD465DF826
:102DD800047B7047781400200020024080B483B040
:102DE80000AF78600B4B0022DA610B4A0A4B1B6973
:102DF80043F002031361084A7B685361064A064B95
:102E08001B6943F04003136100BF0C37BD465DF8F2
:102E1800047B7047781400200020024080B487B0FB
:102E280000AF7860396000237B6154E13B681A6821
:102E380001217B6901FA03F31340FB60FB68002B57
:102E480000F046813B685B6803F00303012B05D063
:102E58003B685B6803F00303022B30D17B689B68F7
:102E68003B617B695B00032202FA03F3DB433A69A7
:102E780013403B613B68DA687B695B0002FA03F345
:102E88003A6913433B617B683A699A607B685B687F
:102E98003B6101227B6902FA03F3DB433A69134081
:102EA8003B613B685B681B0903F001027B6902FA1E
:102EB80003F33A6913433B617B683A695A603B689C
:102EC8005B6803F00303032B17D07B68DB683B6167
:102ED8007B695B00032202FA03F3DB433A69134080
:102EE8003B613B689A687B695B0002FA03F33A69C5
:102EF80013433B617B683A69DA603B685B6803F0BF
:102F08000303022B23D17B69DA087B68083253F864
:102F180022303B617B6903F007039B000F2202FA12
:102F280003F3DB433A6913403B613B681A697B69E9
:102F380003F007039B0002FA03F33A6913433B616A
:102F48007B69DA087B680832396943F822107B68A4
:102F58001B683B617B695B00032202FA03F3DB43D6
:102F68003A6913403B613B685B6803F003027B6985
:102F78005B0002FA03F33A6913433B617B683A69E1
:102F88001A603B685B6803F44033002B00F0A080B4
:102F9800584A584B9B6943F001039361554B9B6911
:102FA80003F00103BB60BB68534A7B699B0802338B
:102FB80052F823303B617B6903F003039B000F2227
:102FC80002FA03F3DB433A6913403B617B68B3F1D0
:102FD800904F19D07B68494A934213D07B68484A7E
:102FE80093420DD07B68474A934207D07B68464A94
:102FF800934201D1042308E0052306E0032304E0FB
:10300800022302E0012300E000237A6902F00302B0
:10301800920093403A6913433B6137497B699B08A7
:1030280002333A6941F82320384B1B683B61FB683F
:10303800DB433A6913403B613B685B6803F48033C8
:10304800002B03D03A69FB6813433B612F4A3B6965
:1030580013602E4B5B683B61FB68DB433A691340A6
:103068003B613B685B6803F40033002B03D03A698B
:10307800FB6813433B61254A3B695360234B9B68BC
:103088003B61FB68DB433A6913403B613B685B6823
:1030980003F48013002B03D03A69FB6813433B61A8
:1030A8001A4A3B699360194BDB683B61FB68DB4359
:1030B8003A6913403B613B685B6803F40013002BDB
:1030C80003D03A69FB6813433B61104A3B69D360FC
:1030D8007B6901337B613B681A687B6922FA03F3D9
:1030E800002B7FF4A3AE00BF1C37BD465DF8047B00
:1030F800704700BF00100240000001400004004873
:1031080000080048000C0048001000480004014076
:1031180080B483B000AF78600B467B8013467B7029
:103128007B78002B03D07A887B689A6102E07A88E2
:103138007B689A6200BF0C37BD465DF8047B704718
:1031480080B582B000AF78607B68002B01D1012385
:1031580080E07B6893F84130DBB2002B06D17B68B6
:10316800002283F840207868FFF7CCF87B68242297
:1031780083F841207B681B687A681268126822F01D
:1031880001021A607B681B687A68526822F07062D4
:103198001A617B681B687A681268926822F4004298
:1031A8009A607B68DB68012B07D17B681B687A68AB
:1031B800926842F400429A6006E07B681B687A686D
:1031C800926842F404429A607B68DB68022B04D15F
:1031D8007B681B684FF400625A607B681A687B68DA
:1031E8001B685B6843F0007343F4004353607B68DB
:1031F8001B687A681268D26822F40042DA607B6839
:103208001B687A6811697A68526911437A68926909
:1032180012020A43DA607B681B687A68D1697A68A7
:10322800126A0A431A607B681B687A681268126817
:1032380042F001021A607B6800225A647B682022EF
:1032480083F841207B6800221A637B68002283F898
:103258004220002318460837BD4680BD80B588B097
:1032680002AFF8607A601A460B467B8113463B81B1
:10327800FB6893F84130DBB2202B40F0DA80FB6822
:1032880093F84030012B01D10223D3E0FB680122DF
:1032980083F84020FFF7A0FA78617B69009319232F
:1032A80001224FF40041F86800F0E6F90346002BCC
:1032B80001D00123BEE0FB68212283F84120FB688E
:1032C800102283F84220FB6800225A64FB687A685F
:1032D8005A62FB683A895A85FB6800225A63FB6880
:1032E8005B8D9BB2FF2B0ED9FB68FF221A85FB680A
:1032F8001B8DDAB27989514B00934FF08073F868CF
:1033080000F058FB6CE0FB685B8D9AB2FB681A858D
:10331800FB681B8DDAB27989484B00934FF0007334
:10332800F86800F047FB5BE07A69396AF86800F0F2
:10333800E3F90346002B01D001237BE0FB681B68FF
:10334800FA68526A12789A62FB685B6A5A1CFB68D0
:103358005A62FB685B8D9BB2013B9AB2FB685A8547
:10336800FB681B8D013B9AB2FB681A85FB685B8D75
:103378009BB2002B34D0FB681B8D002B30D17B69AE
:1033880000933B6A00228021F86800F075F9034633
:10339800002B01D001234DE0FB685B8D9BB2FF2B16
:1033A8000ED9FB68FF221A85FB681B8DDAB2798972
:1033B800002300934FF08073F86800F0FBFA0FE0E9
:1033C800FB685B8D9AB2FB681A85FB681B8DDAB2C5
:1033D8007989002300934FF00073F86800F0EAFA47
:1033E800FB685B8D9BB2002B9ED17A69396AF868BD
:1033F80000F0C2F90346002B01D001231AE0FB6854
:103408001B682022DA61FB681A68FB681B68596828
:103418000B4B0B405360FB68202283F84120FB686C
:10342800002283F84220FB68002283F84020002312
:1034380000E0022318461837BD4680BD00200080F2
:1034480000E800FE80B588B002AFF8607A601A46DE
:103458000B467B8113463B81FB6893F84130DBB216
:10346800202B40F0DB80FB6893F84030012B01D122
:103478000223D4E0FB68012283F84020FFF7ACF96F
:1034880078617B690093192301224FF40041F868A1
:1034980000F0F2F80346002B01D00123BFE0FB68DF
:1034A800222283F84120FB68102283F84220FB681F
:1034B80000225A64FB687A685A62FB683A895A851E
:1034C800FB6800225A63FB685B8D9BB2FF2B0ED909
:1034D800FB68FF221A85FB681B8DDAB27989524B8B
:1034E80000934FF08073F86800F064FA6DE0FB68B1
:1034F8005B8D9AB2FB681A85FB681B8DDAB27989F5
:10350800494B00934FF00073F86800F053FA5CE001
:103518007A69396AF86800F06BF90346002B01D024
:1035280001237CE0FB685B6AFA681268526AD2B2CF
:103538001A70FB685B6A5A1CFB685A62FB681B8D31
:10354800013B9AB2FB681A85FB685B8D9BB2013B15
:103558009AB2FB685A85FB685B8D9BB2002B34D00E
:10356800FB681B8D002B30D17B6900933B6A0022DE
:103578008021F86800F080F80346002B01D0012371
:103588004DE0FB685B8D9BB2FF2B0ED9FB68FF22D9
:103598001A85FB681B8DDAB27989002300934FF0F6
:1035A8008073F86800F006FA0FE0FB685B8D9AB24A
:1035B800FB681A85FB681B8DDAB2798900230093B2
:1035C8004FF00073F86800F0F5F9FB685B8D9BB26B
:1035D800002B9DD17A69396AF86800F0CDF8034666
:1035E800002B01D001231AE0FB681B682022DA6156
:1035F800FB681A68FB681B6859680C4B0B405360E2
:10360800FB68202283F84120FB68002283F84220CF
:10361800FB68002283F84020002300E002231846BC
:103628001837BD4680BD00BF0024008000E800FEBA
:1036380080B483B000AF78607B681B689B6903F037
:103648000203022B03D17B681B6800229A627B6805
:103658001B689B6903F00103012B07D07B681B687B
:103668007A681268926942F001029A6100BF0C37C9
:10367800BD465DF8047B704780B584B000AFF86044
:10368800B9603B601346FB7122E03B68B3F1FF3F32
:103698001ED0FFF7A1F80246BB69D21A3B689A42CE
:1036A80002D83B68002B13D1FB685B6C43F0200207
:1036B800FB685A64FB68202283F84120FB680022DB
:1036C80083F84220FB68002283F8402001230FE0A2
:1036D800FB681B689A69BB681A40BB689A420CBFB2
:1036E80001230023DBB21A46FB799A42CDD000238E
:1036F80018461037BD4680BD80B584B000AFF8606D
:10370800B9607A602CE07A68B968F86800F0DCF88B
:103718000346002B01D001232AE0BB68B3F1FF3F29
:103728001ED0FFF759F802467B68D21ABB689A4246
:1037380002D8BB68002B13D1FB685B6C43F02002F6
:10374800FB685A64FB68202283F84120FB6800224A
:1037580083F84220FB68002283F84020012307E019
:10376800FB681B689B6903F00203022BCBD1002383
:1037780018461037BD4680BD80B584B000AFF860EC
:10378800B9607A6028E07A68B968F86800F09CF84F
:103798000346002B01D0012326E0FFF71DF802465F
:1037A8007B68D21ABB689A4202D8BB68002B13D137
:1037B800FB685B6C43F02002FB685A64FB682022BC
:1037C80083F84120FB68002283F84220FB6800222E
:1037D80083F84020012307E0FB681B689B6903F01E
:1037E8002003202BCFD1002318461037BD4680BDBB
:1037F80080B584B000AFF860B9607A6055E07A6847
:10380800B968F86800F060F80346002B01D001237E
:1038180053E0FB681B689B6903F02003202B29D128
:10382800FB681B689B6903F00403042B05D1FB6844
:103838001B8D002B01D000233FE0FB681B68202272
:10384800DA61FB681A68FB681B6859681D4B0B40F6
:103858005360FB6800225A64FB68202283F84120E9
:10386800FB68002283F84220FB68002283F840208E
:10387800012322E0FEF7B0FF02467B68D21ABB683C
:103888009A4202D8BB68002B0FD1FB685B6C43F0EF
:103898002002FB685A64FB68202283F84120FB68F9
:1038A800002283F84020012307E0FB681B689B691E
:1038B80003F00403042BA2D1002318461037BD4699
:1038C80080BD00BF00E800FE80B584B000AFF8609E
:1038D800B9607A60FB681B689B6903F01003102BC2
:1038E80061D1FB681B685B6803F00073B3F1007F6C
:1038F8002BD0FB681B68FA681268526842F4804251
:103908005A6022E0BB68B3F1FF3F1ED0FEF764FFA8
:1039180002467B68D21ABB689A4202D8BB68002B61
:1039280013D1FB685B6C43F02002FB685A64FB68A8
:10393800202283F84120FB68002283F84220FB689C
:10394800002283F8402001232EE0FB681B689B6956
:1039580003F02003202BD5D1FB681B681022DA6105
:10396800FB681B682022DA61F868FFF761FEFB68D4
:103978001A68FB681B6859680D4B0B405360FB685D
:103988005B6C43F00402FB685A64FB68202283F8EE
:103998004120FB68002283F84220FB68002283F85C
:1039A8004020012300E0002318461037BD4680BDA3
:1039B80000E800FE80B485B000AFF8607B600B467D
:1039C8007B8113467B72FB681A68FB681B68596821
:1039D800BB695B0D03F480600B4B0343DB43194069
:1039E8007B89C3F309007B7A1B0403F47F03184324
:1039F8007B681843BB6903430B43536000BF14370C
:103A0800BD465DF8047B7047FF63FF0380B483B055
:103A180000AF786039607B6893F84130DBB2202BC7
:103A280038D17B6893F84030012B01D1022332E072
:103A38007B68012283F840207B68242283F8412098
:103A48007B681B687A681268126822F001021A60A3
:103A58007B681B687A681268126822F480521A60C0
:103A68007B681B687A68126811683A680A431A60AA
:103A78007B681B687A681268126842F001021A6053
:103A88007B68202283F841207B68002283F840204D
:103A9800002300E0022318460C37BD465DF8047B7E
:103AA800704780B485B000AF786039607B6893F860
:103AB8004130DBB2202B39D17B6893F84030012BA1
:103AC80001D1022333E07B68012283F840207B6820
:103AD800242283F841207B681B687A681268126880
:103AE80022F001021A607B681B681B68FB60FB6898
:103AF80023F47063FB603B681B02FA681343FB60A6
:103B08007B681B68FA681A607B681B687A681268A9
:103B1800126842F001021A607B68202283F8412073
:103B28007B68002283F84020002300E00223184627
:103B38001437BD465DF8047B7047000080B400AFC1
:103B4800054A054B1B6843F48073136000BFBD46EC
:103B58005DF8047B704700BF0070004080B5ADF58C
:103B6800007D00AF3B1D18603B1D1B68002B02D178
:103B7800012300F0F4BE3B1D1B681B6803F0010322
:103B8800002B00F06A81B34B5B6803F00C03042B35
:103B98000CD0B04B5B6803F00C03082B59D1AD4B2C
:103BA8005B6803F48033B3F5803F52D14FF40033A0
:103BB800C7F8F031D7F8F03193FAA3F3C7F8EC312E
:103BC800D7F8EC31B3FA83F3DBB25B09DBB243F02D
:103BD8000103DBB2012B02D19E4B1B6815E04FF4A9
:103BE8000033C7F8E831D7F8E83193FAA3F3C7F8F8
:103BF800E4314FF40033C7F8E031D7F8E03193FAF5
:103C0800A3F3C7F8DC31934B5B6A4FF40032C7F873
:103C1800D821D7F8D82192FAA2F2C7F8D421D7F838
:103C2800D421B2FA82F2D2B242F02002D2B202F029
:103C38001F02012101FA02F21340002B00F00C814F
:103C48003B1D1B685B68002B40F00681012300F0D8
:103C580086BE3B1D1B685B68B3F5803F06D17D4A75
:103C68007C4B1B6843F48033136030E03B1D1B68BA
:103C78005B68002B0CD1774A764B1B6823F48033A2
:103C88001360744A734B1B6823F4802313601EE08F
:103C98003B1D1B685B68B3F5A02F0CD16D4A6D4BBB
:103CA8001B6843F4802313606A4A6A4B1B6843F419
:103CB800803313600BE0674A664B1B6823F480333C
:103CC8001360644A634B1B6823F4802313606149C3
:103CD800604BDB6A23F00F023B1D1B689B68134394
:103CE800CB623B1D1B685B68002B59D0FEF774FD47
:103CF800C7F8F8010AE0FEF76FFD0246D7F8F83179
:103D0800D31A642B02D9032300F029BE4FF40033E1
:103D1800C7F8D031D7F8D03193FAA3F3C7F8CC312C
:103D2800D7F8CC31B3FA83F3DBB25B09DBB243F0EB
:103D38000103DBB2012B02D1464B1B6815E04FF49F
:103D48000033C7F8C831D7F8C83193FAA3F3C7F8D6
:103D5800C4314FF40033C7F8C031D7F8C03193FAF3
:103D6800A3F3C7F8BC313B4B5B6A4FF40032C7F88A
:103D7800B821D7F8B82192FAA2F2C7F8B421D7F837
:103D8800B421B2FA82F2D2B242F02002D2B202F0E8
:103D98001F02012101FA02F21340002BABD05CE0B4
:103DA800FEF71AFDC7F8F8010AE0FEF715FD02460E
:103DB800D7F8F831D31A642B02D9032300F0CFBD0A
:103DC8004FF40033C7F8B031D7F8B03193FAA3F302
:103DD800C7F8AC31D7F8AC31B3FA83F3DBB25B097F
:103DE800DBB243F00103DBB2012B02D1194B1B6894
:103DF80015E04FF40033C7F8A831D7F8A83193FA83
:103E0800A3F3C7F8A4314FF40033C7F8A031D7F8AB
:103E1800A03193FAA3F3C7F89C310E4B5B6A4FF4B9
:103E28000032C7F89821D7F8982192FAA2F2C7F879
:103E38009421D7F89421B2FA82F2D2B242F0200249
:103E4800D2B202F01F02012101FA02F21340002B44
:103E5800ABD102E00010024000BF3B1D1B681B688D
:103E680003F00203002B00F06F81D04B5B6803F076
:103E78000C03002B0BD0CD4B5B6803F00C03082B15
:103E88006CD1CA4B5B6803F48033002B66D10223E4
:103E9800C7F89031D7F8903193FAA3F3C7F88C316B
:103EA800D7F88C31B3FA83F3DBB25B09DBB243F0AA
:103EB8000103DBB2012B02D1BC4B1B6813E00223C8
:103EC800C7F88831D7F8883193FAA3F3C7F8843153
:103ED8000223C7F88031D7F8803193FAA3F3C7F8E3
:103EE8007C31B24B5B6A0222C7F87821D7F8782177
:103EF80092FAA2F2C7F87421D7F87421B2FA82F2C2
:103F0800D2B242F02002D2B202F01F02012101FA1D
:103F180002F21340002B07D03B1D1B681B69012BC5
:103F280002D0012300F01BBDA048A04B1B6823F062
:103F3800F8023B1D1B685B69F821C7F87011D7F8B8
:103F4800701191FAA1F1C7F86C11D7F86C11B1FA98
:103F580081F1C9B28B4013430360F5E03B1D1B6838
:103F68001B69002B00F085800123C7F86831D7F85A
:103F7800683193FAA3F3C7F86431D7F86431B3FA18
:103F880083F3DBB203F1845303F584139B001A46D1
:103F980001231360FEF720FCC7F8F8010AE0FEF7DA
:103FA8001BFC0246D7F8F831D31A022B02D9032397
:103FB80000F0D5BC0223C7F86031D7F8603193FA16
:103FC800A3F3C7F85C31D7F85C31B3FA83F3DBB2FB
:103FD8005B09DBB243F00103DBB2012B02D1734B67
:103FE8001B6813E00223C7F85831D7F8583193FA01
:103FF800A3F3C7F854310223C7F85031D7F850312A
:1040080093FAA3F3C7F84C31684B5B6A0222C7F8EE
:104018004821D7F8482192FAA2F2C7F84421D7F8E4
:104028004421B2FA82F2D2B242F02002D2B202F0B5
:104038001F02012101FA02F21340002BAFD05B48A6
:104048005A4B1B6823F0F8023B1D1B685B69F8217B
:10405800C7F84011D7F8401191FAA1F1C7F83C11FF
:10406800D7F83C11B1FA81F1C9B28B401343036010
:104078006AE00123C7F83831D7F8383193FAA3F347
:10408800C7F83431D7F83431B3FA83F3DBB203F12C
:10409800845303F584139B001A4600231360FEF72C
:1040A8009BFBC7F8F8010AE0FEF796FB0246D7F833
:1040B800F831D31A022B02D9032300F050BC022393
:1040C800C7F83031D7F8303193FAA3F3C7F82C3159
:1040D800D7F82C31B3FA83F3DBB25B09DBB243F0D8
:1040E8000103DBB2012B02D1304B1B6813E0022322
:1040F800C7F82831D7F8283193FAA3F3C7F8243141
:104108000223C7F82031D7F8203193FAA3F3C7F870
:104118001C31264B5B6A0222C7F81821D7F81821F0
:1041280092FAA2F2C7F81421D7F81421B2FA82F24F
:10413800D2B242F02002D2B202F01F02012101FAEB
:1041480002F21340002BAFD13B1D1B681B6803F024
:104158000803002B00F0DA803B1D1B689B69002BCD
:1041680069D00123C7F81031D7F8103193FAA3F3B7
:10417800C7F80C31D7F80C31B3FA83F3DBB21A461F
:104188000B4B13449B001A4601231360FEF724FBD4
:10419800C7F8F8010EE0FEF71FFB0246D7F8F83122
:1041A800D31A022B06D90323D9E300BF001002401B
:1041B800208190100223C7F80831D7F8083193FA04
:1041C800A3F3C7F8043107F5807302221A6007F5D4
:1041D80080731B6893FAA3F207F1FC031A6007F1D6
:1041E800F80302221A6007F1F8031B6893FAA3F296
:1041F80007F1F4031A60A54B5A6A07F1F00302218C
:10420800196007F1F0031B6893FAA3F107F1EC03B7
:10421800196007F1EC031B68B3FA83F3DBB243F0D0
:104228006003DBB203F01F03012101FA03F313401B
:10423800002BB0D06AE007F1E80301221A6007F109
:10424800E8031B6893FAA3F207F1E4031A6007F185
:10425800E4031B68B3FA83F3DBB21A468C4B1344AE
:104268009B001A4600231360FEF7B6FAC7F8F80158
:1042780009E0FEF7B1FA0246D7F8F831D31A022B53
:1042880001D903236BE307F1E00302221A6007F167
:10429800E0031B6893FAA3F207F1DC031A6007F145
:1042A800D80302221A6007F1D8031B6893FAA3F215
:1042B80007F1D4031A6007F1D00302221A6007F14C
:1042C800D0031B6893FAA3F207F1CC031A606F4B73
:1042D8005A6A07F1C8030221196007F1C8031B686D
:1042E80093FAA3F107F1C403196007F1C4031B682B
:1042F800B3FA83F3DBB243F06003DBB203F01F03CE
:10430800012101FA03F31340002BB2D13B1D1B68B6
:104318001B6803F00403002B00F05881002387F882
:10432800FF315A4BDB6903F08053002B12D1574AF7
:10433800564BDB6943F08053D361544BDB6903F080
:10434800805207F108031A6007F108031B6801236C
:1043580087F8FF314F4B1B6803F48073002B1AD189
:104368004C4A4C4B1B6843F480731360FEF734FAD5
:10437800C7F8F80109E0FEF72FFA0246D7F8F83136
:10438800D31A642B01D90323E9E2424B1B6803F4D7
:104398008073002BEFD03B1D1B68DB68012B06D117
:1043A8003A4A3A4B1B6A43F0010313622FE03B1D64
:1043B8001B68DB68002B0CD1344A344B1B6A23F092
:1043C80001031362314A314B1B6A23F00403136261
:1043D8001DE03B1D1B68DB68052B0CD12B4A2B4BC2
:1043E8001B6A43F004031362284A284B1B6A43F0F4
:1043F800010313620BE0254A244B1B6A23F00103D7
:104408001362224A214B1B6A23F0040313623B1DEB
:104418001B68DB68002B6BD0FEF7DEF9C7F8F801E4
:104428000BE0FEF7D9F90246D7F8F831D31A41F272
:104438008832934201D9032391E207F1C003022293
:104448001A6007F1C0031B6893FAA3F207F1BC03D3
:104458001A6007F1B80302221A6007F1B8031B6853
:1044680093FAA3F207F1B4031A6007F1B4031B68C7
:10447800B3FA83F3DBB25B09DBB243F00203DBB2CE
:10448800022B09D1014B1B6A14E000BF0010024047
:10449800208190100070004007F1B00302221A60DA
:1044A80007F1B0031B6893FAA3F207F1AC031A6093
:1044B800BB4B5B6A07F1A8020221116007F1A80251
:1044C800126892FAA2F107F1A402116007F1A4029E
:1044D8001268B2FA82F2D2B242F04002D2B202F0CC
:1044E8001F02012101FA02F21340002B99D063E068
:1044F800FEF772F9C7F8F8010BE0FEF76DF902460E
:10450800D7F8F831D31A41F28832934201D90323FC
:1045180025E207F1A00302221A6007F1A0031B6835
:1045280093FAA3F207F19C031A6007F19803022299
:104538001A6007F198031B6893FAA3F207F1940332
:104548001A6007F194031B68B3FA83F3DBB25B09C3
:10455800DBB243F00203DBB2022B02D1904B1B6AA1
:104568000DE007F1900302221A6007F190031B681F
:1045780093FAA3F207F18C031A60894B5B6A07F17F
:1045880088020221116007F18802126892FAA2F1EA
:1045980007F18402116007F184021268B2FA82F20C
:1045A800D2B242F04002D2B202F01F02012101FA57
:1045B80002F21340002BA0D197F8FF31012B05D14F
:1045C800774A774BDB6923F08053D3613B1D1B6827
:1045D800DB69002B00F0C281714B5B6803F00C03B0
:1045E800082B00F09C813B1D1B68DB69022B40F007
:1045F800148107F180034FF080721A6007F180037D
:104608001B6893FAA3F207F17C031A6007F17C0395
:104618001B68B3FA83F3DBB203F1845303F5841305
:104628009B001A4600231360FEF7D6F8C7F8F80176
:1046380009E0FEF7D1F80246D7F8F831D31A022B71
:1046480001D903238BE107F178034FF000721A6058
:1046580007F178031B6893FAA3F207F174031A6051
:1046680007F174031B68B3FA83F3DBB25B09DBB2AF
:1046780043F00103DBB2012B02D1494B1B681BE05D
:1046880007F170034FF000721A6007F170031B689E
:1046980093FAA3F207F16C031A6007F168034FF06D
:1046A80000721A6007F168031B6893FAA3F207F116
:1046B80064031A603A4B5B6A07F160024FF00071BD
:1046C800116007F16002126892FAA2F107F15C0228
:1046D800116007F15C021268B2FA82F2D2B242F0BB
:1046E8002002D2B202F01F02012101FA02F21340A5
:1046F800002B9ED12A482A4B5B6823F474123B1D79
:104708001B68596A3B1D1B681B6A0B4313434360B4
:1047180007F158034FF080721A6007F158031B68BD
:1047280093FAA3F207F154031A6007F154031B68C4
:10473800B3FA83F3DBB203F1845303F584139B00CC
:104748001A4601231360FEF747F8C7F8F80109E095
:10475800FEF742F80246D7F8F831D31A022B01D9EE
:104768000323FCE007F150034FF000721A6007F1D1
:1047780050031B6893FAA3F207F14C031A6007F180
:104788004C031B68B3FA83F3DBB25B09DBB243F07B
:104798000103DBB2012B05D1014B1B681EE000BFF2
:1047A8000010024007F148034FF000721A6007F149
:1047B80048031B6893FAA3F207F144031A6007F150
:1047C80040034FF000721A6007F140031B6893FA28
:1047D800A3F207F13C031A60634B5B6A07F13802E6
:1047E8004FF00071116007F13802126892FAA2F1D5
:1047F80007F13402116007F134021268B2FA82F24A
:10480800D2B242F02002D2B202F01F02012101FA14
:1048180002F21340002B9BD0A0E007F130034FF0C9
:1048280080721A6007F130031B6893FAA3F207F14C
:104838002C031A6007F12C031B68B3FA83F3DBB26D
:1048480003F1845303F584139B001A460023136075
:10485800FDF7C2FFC7F8F80109E0FDF7BDFF024602
:10486800D7F8F831D31A022B01D9032377E007F1DF
:1048780028034FF000721A6007F128031B6893FAA7
:10488800A3F207F124031A6007F124031B68B3FAA3
:1048980083F3DBB25B09DBB243F00103DBB2012B2C
:1048A80002D1314B1B681BE007F120034FF0007267
:1048B8001A6007F120031B6893FAA3F207F11C039F
:1048C8001A6007F118034FF000721A6007F1180315
:1048D8001B6893FAA3F207F114031A60224B5B6A70
:1048E80007F110024FF00071116007F11002126811
:1048F80092FAA2F107F10C02116007F10C0212689A
:10490800B2FA82F2D2B242F02002D2B202F01F0210
:10491800012101FA02F21340002B9ED11EE03B1D3B
:104928001B68DB69012B01D1012318E00E4B5B6882
:10493800C7F8F431D7F8F43103F480323B1D1B6813
:104948001B6A9A4208D1D7F8F43103F470123B1D60
:104958001B685B6A9A4201D0012300E000231846D5
:1049680007F50077BD4680BD0010024080B59EB0B7
:1049780000AF7860396000237B677B68002B01D12A
:10498800012362E1904B1B6803F007023B689A42DF
:1049980010D28D498C4B1B6823F007023B681343E8
:1049A8000B60894B1B6803F007023B689A4201D0F1
:1049B80001234AE17B681B6803F00203002B08D03F
:1049C8008249824B5B6823F0F0027B689B68134343
:1049D8004B607B681B6803F00103002B00F0DC8050
:1049E8007B685B68012B3CD14FF400333B673B6F1E
:1049F80093FAA3F3FB66FB6EB3FA83F3DBB25B09AE
:104A0800DBB243F00103DBB2012B02D16F4B1B6811
:104A18000FE04FF40033BB66BB6E93FAA3F37B66DB
:104A28004FF400333B663B6E93FAA3F3FB65674B89
:104A38005B6A4FF40032BA65BA6D92FAA2F27A65EF
:104A48007A6DB2FA82F2D2B242F02002D2B202F009
:104A58001F02012101FA02F21340002B7BD101232E
:104A6800F3E07B685B68022B3CD14FF000733B6539
:104A78003B6D93FAA3F3FB64FB6CB3FA83F3DBB2ED
:104A88005B09DBB243F00103DBB2012B02D14F4BD0
:104A98001B680FE04FF00073BB64BB6C93FAA3F381
:104AA8007B644FF000733B643B6C93FAA3F3FB63A6
:104AB800464B5B6A4FF00072BA63BA6B92FAA2F285
:104AC8007A637A6BB2FA82F2D2B242F02002D2B2A0
:104AD80002F01F02012101FA02F21340002B3AD121
:104AE8000123B2E002233B633B6B93FAA3F3FB621F
:104AF800FB6AB3FA83F3DBB25B09DBB243F0010371
:104B0800DBB2012B02D1314B1B680DE00223BB62E3
:104B1800BB6A93FAA3F37B6202233B623B6A93FA74
:104B2800A3F3FB61294B5B6A0222BA61BA6992FA64
:104B3800A2F27A617A69B2FA82F2D2B242F0200223
:104B4800D2B202F01F02012101FA02F21340002B37
:104B580001D1012379E01D491C4B5B6823F0030256
:104B68007B685B6813434B60FDF736FE78670AE0A5
:104B7800FDF732FE02467B6FD31A41F28832934228
:104B880001D9032361E0114B5B6803F00C027B68D9
:104B98005B689B009A42EBD10B4B1B6803F0070242
:104BA8003B689A4214D90849074B1B6823F007024F
:104BB8003B6813430B60044B1B6803F007023B6818
:104BC8009A4205D0012340E0002002400010024034
:104BD8007B681B6803F00403002B08D01D491D4B9C
:104BE8005B6823F4E0627B68DB6813434B607B6897
:104BF8001B6803F00803002B09D01649154B5B68A6
:104C080023F460527B681B69DB0013434B6000F0A0
:104C180029F801460F4B5B6803F0F003F0223A6174
:104C28003A6992FAA2F2FA60FA68B2FA82F2D2B259
:104C3800D340094AD35C21FA03F3084A1360084BAE
:104C48001B681846FDF784FD002318467837BD46D3
:104C580080BD00BF00100240A8D800080000002056
:104C68000400002080B48BB000AF0023FB61002358
:104C7800BB6100237B6200237B6100233B62294BDD
:104C88005B68FB61FB6903F00C03042B02D0082B63
:104C980003D03CE0244B3B623CE0FB6903F4701317
:104CA8004FF47012BA60BA6892FAA2F27A607A681F
:104CB800B2FA82F2D2B2D3401C4AD35C7B61194B60
:104CC800DB6A03F00F030F223A613A6992FAA2F203
:104CD800FA60FA68B2FA82F2D2B2D340144AD35CCC
:104CE800BB61FB6903F48033002B08D00E4ABB6913
:104CF800B2FBF3F37A6902FB03F37B6204E07B699E
:104D08000C4A02FB03F37B627B6A3B6202E0064BC0
:104D18003B6200BF3B6A18462C37BD465DF8047BF2
:104D2800704700BF0010024000127A00C0D8000887
:104D3800D0D8000800093D0080B400AF034B1B68C1
:104D48001846BD465DF8047B704700BF0000002090
:104D580080B582B000AFFFF7EFFF01460B4B5B68F1
:104D680003F4E0634FF4E0627A607A6892FAA2F2A0
:104D78003A603A68B2FA82F2D2B2D340044AD35CBB
:104D880021FA03F318460837BD4680BD00100240DB
:104D9800B8D8000880B582B000AFFFF7CDFF014654
:104DA8000B4B5B6803F460534FF460527A607A6887
:104DB80092FAA2F23A603A68B2FA82F2D2B2D340D8
:104DC800044AD35C21FA03F318460837BD4680BD70
:104DD80000100240B8D8000880B592B000AF7860E3
:104DE80000233B640023FB63002387F847307B687C
:104DF8001B6803F48033002B00F0D4804E4BDB6932
:104E080003F08053002B0ED14B4A4B4BDB6943F028
:104E18008053D361484BDB6903F08053BB60BB68A8
:104E2800012387F84730454B1B6803F48073002B38
:104E380018D1424A414B1B6843F480731360FDF755
:104E4800CBFC386408E0FDF7C7FC02463B6CD31A7C
:104E5800642B01D9032369E1384B1B6803F4807381
:104E6800002BF0D0344B1B6A03F44073FB63FB6BDD
:104E7800002B00F084807B685B6803F44072FB6B56
:104E88009A427CD02C4B1B6A23F44073FB634FF48B
:104E980080333B633B6B93FAA3F3FB62FB6AB3FA81
:104EA80083F3DBB21A46264B13449B001A460123B0
:104EB80013604FF48033BB63BB6B93FAA3F37B633C
:104EC8007B6BB3FA83F3DBB21A461D4B13449B008A
:104ED8001A4600231360184AFB6B1362FB6B03F03E
:104EE8000103002B4BD0FDF777FC38640AE0FDF78F
:104EF80073FC02463B6CD31A41F28832934201D9C3
:104F0800032313E10223BB62BB6A93FAA3F37B6218
:104F180002233B623B6A93FAA3F3FB61FB69B3FA92
:104F280083F3DBB25B09DBB243F00203DBB2022B93
:104F380008D1014B1B6A0DE00010024000700040D0
:104F4800008190100223BB61BB6993FAA3F37B61D4
:104F5800784B5B6A02223A613A6992FAA2F2FA60E5
:104F6800FA68B2FA82F2D2B242F04002D2B202F049
:104F78001F02012101FA02F21340002BB7D06D493C
:104F88006C4B1B6A23F440727B685B6813430B62AB
:104F980097F84730012B05D1664A664BDB6923F049
:104FA8008053D3617B681B6803F00103002B08D092
:104FB8006049604B1B6B23F003027B689B681343BB
:104FC8000B637B681B6803F00203002B08D0594968
:104FD800584B1B6B23F440327B68DB6813430B632D
:104FE8007B681B6803F00403002B08D05149514B20
:104FF8001B6B23F440227B681B6913430B637B689C
:105008001B6803F02003002B08D04A49494B1B6B4F
:1050180023F010027B68DB6913430B637B681B6812
:1050280003F40033002B08D04249424B5B6823F459
:1050380080027B689B6B13434B607B681B6803F0A3
:105048004003002B08D03B493A4B1B6B23F020024E
:105058007B681B6A13430B637B681B6803F00803B8
:10506800002B08D03349334B1B6B23F440127B6869
:105078005B6913430B637B681B6803F01003002B09
:1050880008D02C492B4B1B6B23F440027B689B698F
:1050980013430B637B681B6803F40073002B08D071
:1050A8002449244B5B6823F400027B68DB6A1343C2
:1050B8004B607B681B6803F08003002B08D01D49F8
:1050C8001C4BDB6A23F4F8727B685B6A1343CB6280
:1050D8007B681B6803F48073002B08D01549154BB7
:1050E800DB6A23F478527B689B6A1343CB627B6844
:1050F8001B6803F48053002B08D00E490D4B1B6B23
:1051080023F480727B681B6B13430B637B681B68FB
:1051180003F40053002B08D00649064B1B6B23F4FD
:1051280000727B685B6B13430B6300231846483798
:10513800BD4680BD0010024080B582B000AF7860E7
:105148007B68002B01D1012383E07B685B7FDBB2A6
:10515800002B05D17B6800221A777868FDF716F9CD
:105168007B6802225A777B681B68CA225A627B686E
:105178001B6853225A62786800F0A8FA0346002B8D
:1051880008D07B681B68FF225A627B6804225A7722
:1051980001235EE07B681A687B681B689B6823F4C0
:1051A800E00323F0400393607B681B687A68126809
:1051B80091687A6850687A68126910437A68526907
:1051C80002430A439A607B681B687A68D2681A614E
:1051D8007B681B687A68126811697A689268120499
:1051E8000A431A617B681B687A681268D26822F0E1
:1051F8008002DA607B681B689B6803F02003002B41
:105208000ED1786800F03AFA0346002B08D07B6884
:105218001B68FF225A627B6804225A77012318E030
:105228007B681B687A681268126C22F480221A6400
:105238007B681B687A681268116C7A6892690A43FD
:105248001A647B681B68FF225A627B6801225A77BE
:10525800002318460837BD4680BD90B587B000AF1B
:10526800F860B9607A6000237B61FB681B7F012BC3
:1052780001D10223AAE0FB6801221A77FB68022207
:105288005A777B68002B26D1FB681B689B6803F064
:105298004003002B02D1BB680022DA70BB681B7880
:1052A800184600F03FFA03461C04BB685B781846B2
:1052B80000F038FA03461B021C43BB689B7818466B
:1052C80000F030FA034644EA0302BB68DB781B04AB
:1052D80013437B6118E0FB681B689B6803F040037D
:1052E800002B02D1BB680022DA70BB681B781A0455
:1052F800BB685B781B021343BA6892781A43BB6891
:10530800DB781B0413437B61FB681B68CA225A6263
:10531800FB681B6853225A62F86800F0D7F9034605
:10532800002B0BD0FB681B68FF225A62FB68042223
:105338005A77FB6800221A77012347E0FB681A684E
:105348007B6903F07F3323F0FE431360FB681B681F
:10535800FA681268926822F480229A60FB681B68D7
:10536800FA6812689168BA68D068BA681269024324
:105378000A439A60FB681B68FA681268D26822F0D0
:105388008002DA60FB681B689B6803F02003002B2F
:1053980011D1F86800F072F90346002B0BD0FB68B6
:1053A8001B68FF225A62FB6804225A77FB680022B6
:1053B8001A7701230AE0FB681B68FF225A62FB6820
:1053C80001225A77FB6800221A77002318461C37F7
:1053D800BD4690BD80B586B000AFF860B9607A6010
:1053E80000237B61FB681B689A6ABB685A60FB688C
:1053F8001B681B69C3F30E02BB689A60FB681B68D5
:105408001B6803F07F3323F0FE437B617B691B0C31
:10541800DBB203F03F03DAB2BB681A707B691B0A80
:10542800DBB203F07F03DAB2BB685A707B69DBB288
:1054380003F07F03DAB2BB689A707B691B0CDBB29E
:1054480003F04003DAB2BB68DA707B68002B1AD12C
:10545800BB681B78184600F083F903461A46BB68F8
:105468001A70BB685B78184600F07AF903461A464A
:10547800BB685A70BB689B78184600F071F9034600
:105488001A46BB689A70002318461837BD4680BD77
:1054980090B587B000AFF860B9607A6000237B618F
:1054A800FB681B7F012B01D1022394E0FB680122DA
:1054B8001A77FB6802225A777B68002B0ED1BB68EB
:1054C8005B7803F01003002B08D0BB685B7823F0EF
:1054D8001003DBB20A33DAB2BB685A707B68002B60
:1054E8001CD1BB68DB78184600F01CF903461C0485
:1054F800BB685B78184600F015F903461B021C438D
:10550800BB689B78184600F00DF9034644EA03028D
:10551800BB681B785B0313437B610EE0BB68DB78D9
:105528001A04BB685B781B021343BA6892781A4363
:10553800BB681B785B0313437B61FB681B68CA224B
:105548005A62FB681B6853225A62F86800F0BEF87A
:105558000346002B0BD0FB681B68FF225A62FB68CE
:1055680004225A77FB6800221A77012333E0FB688C
:105578001A687B6923F07F4323F0C0035360FB68FC
:105588001B68FA681268D26822F08002DA60FB6849
:105598001B689B6803F02003002B11D1F86800F00A
:1055A8006DF80346002B0BD0FB681B68FF225A627C
:1055B800FB6804225A77FB6800221A7701230AE065
:1055C800FB681B68FF225A62FB6801225A77FB6856
:1055D80000221A77002318461C37BD4690BD80B5B7
:1055E80086B000AFF860B9607A6000237B61FB6821
:1055F8001B685B6823F07F4323F0C0037B617B69F2
:105608001B0CDAB2BB68DA707B691B0ADBB203F0E9
:105618001F03DAB2BB685A707B69DBB203F03F0341
:10562800DAB2BB689A707B695B0BDBB203F00703E5
:10563800DAB2BB681A707B68002B1AD1BB68DB78BA
:10564800184600F08DF803461A46BB68DA70BB6846
:105658005B78184600F084F803461A46BB685A700F
:10566800BB689B78184600F07BF803461A46BB686F
:105678009A70002318461837BD4680BD80B584B09F
:1056880000AF78600023FB607B681B687A6812684B
:10569800D26822F0A002DA60FDF79EF8F86009E00F
:1056A800FDF79AF80246FB68D31AB3F57A7F01D959
:1056B800032307E07B681B68DB6803F02003002BEB
:1056C800EED0002318461037BD4680BD80B584B0A3
:1056D80000AF78600023FB607B681B68DB6803F021
:1056E8004003002B19D17B681B684FF0FF32DA604A
:1056F800FDF772F8F86009E0FDF76EF80246FB68FE
:10570800D31AB3F57A7F01D9032307E07B681B68B6
:10571800DB6803F04003002BEED000231846103757
:10572800BD4680BD80B485B000AF0346FB71002341
:10573800FB6005E0FB680133FB60FB790A3BFB710A
:10574800FB79092BF6D8FB68DBB21B01DAB2FB79CF
:105758001343DBB218461437BD465DF8047B704727
:1057680080B485B000AF0346FB710023FB60FB7972
:105778001B09DBB21A4613469B0013445B00FB600F
:10578800FB7903F00F03DAB2FB68DBB21344DBB238
:1057980018461437BD465DF8047B704780B584B061
:1057A80000AF78607B68002B01D101239BE07B6808
:1057B8005B6A002B08D17B685B68B3F5827F09D0F0
:1057C8007B680022DA6105E07B6800221A617B6849
:1057D80000225A617B6800229A627B6893F85D30E8
:1057E800DBB2002B06D17B68002283F85C20786846
:1057F800FCF7F2FD7B68022283F85D207B681B685A
:105808007A681268126822F040021A607B68DB68C6
:10581800B3F5E06F02D90023FB6002E04FF4805338
:10582800FB607B68DB68B3F5706F07D07B68DB686B
:10583800B3F5E06F02D07B6800229A627B681B6830
:105848007A68526802F482717A68926802F40442B3
:1058580011437A68126902F0020211437A685269A8
:1058680002F0010211437A68926902F4007211434E
:105878007A68D26902F0380211437A68126A02F033
:10588800800211437A68926A02F400520A431A604D
:105898007B681B687A689269120C02F004017A68C6
:1058A800526A02F0100211437A68526B02F0080241
:1058B80011437A68D26802F470621143FA6802F4FC
:1058C80080520A435A607B681B687A681268D269FA
:1058D80022F40062DA617B6800221A667B68012282
:1058E80083F85D20002318461037BD4680BD80B57B
:1058F80088B000AFF860B9603B601346FB800023B6
:10590800FB77FB6893F85C30012B01D1022356E149
:10591800FB68012283F85C20FCF75EFFB861FB8816
:10592800FB82FB6893F85D30DBB2012B02D00223C7
:10593800FB773BE1BB68002B02D0FB88002B02D130
:105948000123FB7732E1FB68032283F85D20FB68C3
:1059580000221A66FB68BA689A63FB68FA889A8715
:10596800FB68FA88DA87FB6800221A64FB68002261
:10597800A3F84420FB680022A3F84620FB68002215
:105988001A65FB680022DA64FB689B68B3F5004F70
:105998000FD1FB681B68FA681268126822F040028F
:1059A8001A60FB681B68FA681268126842F4804241
:1059B8001A60FB681B681B6803F04003402B07D084
:1059C800FB681B68FA681268126842F040021A60A5
:1059D800FB68DB68B3F5E06F4BD9FB685B68002BAD
:1059E80002D0FB8A012B3ED1FB681B68FA68926BD8
:1059F8001288DA60FB689B6B9A1CFB689A63FB68E9
:105A0800DB8F9BB2013B9AB2FB68DA872BE0FB681D
:105A18001B689B6803F00203022B12D1FB681B680A
:105A2800FA68926B1288DA60FB689B6B9A1CFB68B9
:105A38009A63FB68DB8F9BB2013B9AB2FB68DA87FB
:105A480011E0FCF7C9FE0246BB69D21A3B689A42CC
:105A580003D33B68B3F1FF3F02D13B68002B02D16F
:105A68000323FB77A2E0FB68DB8F9BB2002BCED130
:105A78007CE0FB685B68002B02D0FB8A012B70D1AD
:105A8800FB68DB8F9BB2012B12D9FB681B68FA6895
:105A9800926B1288DA60FB689B6B9A1CFB689A63AE
:105AA800FB68DB8F9BB2023B9AB2FB68DA8758E04F
:105AB800FB681B680C33FA68926B12781A70FB68E3
:105AC8009B6B5A1CFB689A63FB68DB8F9BB2013B9C
