:020000040800F2
:1000000000200020852E0008AD0A0008AF0A000875
:1000100000000000000000000000000000000000E0
:10002000000000000000000000000000B10A00080D
:100030000000000000000000B30A0008B50A000834
:10004000D52E0008D52E0008D52E0008D52E000884
:10005000D52E0008D52E0008D52E0008D52E000874
:10006000D52E0008D52E0008D52E0008D52E000864
:10007000D52E0008D52E000800000000D52E00085F
:1000800000000000D52E0008000000000000000065
:10009000D52E000800000000D52E0008D52E00083F
:1000A000D52E0008D52E0008D52E0008D52E000824
:1000B000BD0A0008D52E0008D52E0008D52E000850
:1000C00010B5064C2378002B07D1054B002B02D02E
:1000D000044800E000BF0123237010BD1000002081
:1000E00000000000682F0008044B10B5002B03D05F
:1000F0000349044800E000BF10BDC04600000000F6
:1001000014000020682F00080023C25C0133002A7D
:10011000FBD1581E70470000002243088B4274D365
:1001200003098B425FD3030A8B4244D3030B8B42F8
:1001300028D3030C8B420DD3FF22090212BA030C01
:100140008B4202D31212090265D0030B8B4219D3E2
:1001500000E0090AC30B8B4201D3CB03C01A524102
:10016000830B8B4201D38B03C01A5241430B8B424A
:1001700001D34B03C01A5241030B8B4201D30B0333
:10018000C01A5241C30A8B4201D3CB02C01A52415A
:10019000830A8B4201D38B02C01A5241430A8B421D
:1001A00001D34B02C01A5241030A8B4201D30B0206
:1001B000C01A5241CDD2C3098B4201D3CB01C01A20
:1001C000524183098B4201D38B01C01A524143092A
:1001D0008B4201D34B01C01A524103098B4201D318
:1001E0000B01C01A5241C3088B4201D3CB00C01A85
:1001F000524183088B4201D38B00C01A52414308FD
:100200008B4201D34B00C01A5241411A00D2014621
:10021000524110467047FFE701B5002000F006F894
:1002200002BDC0460029F7D076E770477047C04648
:10023000844608006146FFE71FB500F0FBF900287F
:1002400001D40021C8421FBD10B500F087F940421B
:10025000013010BD10B500F0EDF9002801DB0020E1
:1002600010BD012010BDC04610B500F0E3F9002814
:1002700001DD002010BD012010BDC04610B500F00A
:1002800093F9002801DC002010BD012010BDC046FC
:1002900010B500F089F9002801DA002010BD012016
:1002A00010BDC046002B15D1002A13D1002906DB52
:1002B00001DC002806D00020C043410802E0802174
:1002C0000906002007B4024801A14018029003BDAE
:1002D0005DFFFFFF03B4684601B5029800F020F906
:1002E000019B9E4602B00CBC7047C046002B11D14A
:1002F000002A0FD1002900D1002802D00021C943D3
:10030000080007B4024802A14018029003BDC0468D
:100310001DFFFFFF03B4684601B5029800F034F8F2
:10032000019B9E4602B00CBC7047C046F0B5CE465D
:10033000474680B5070099463B0C9C4613041B0CAE
:100340001D000E0061460004140C000C45434B4395
:1003500060436143C0182C0C20188C46834203D99B
:1003600080235B029846C444494679437243030C98
:1003700063442D042D0CC918000440198918C0BC11
:10038000B946B046F0BDC046F0B557464E46454664
:10039000DE46E0B504000D009246994683B08B42DC
:1003A00030D82DD04946504600F010FA29000600FA
:1003B000200000F00BFA331A9846203B9B4633D4BA
:1003C0005A465346934042461F00534693401E00F0
:1003D000AF423AD8AF4200D178E05B46A41BBD41A2
:1003E000002B00DA75E00022002300920193012324
:1003F0005A4693400193012342469340009328E0DC
:100400008242CFD900220023009201930C9B002B43
:1004100001D01C605D600098019903B0F0BCBB4640
:10042000B246A946A046F0BD424620239B1A52463A
:10043000DA40414613004A468A40170042461F43AD
:10044000534693401E00AF42C4D9002200230092BD
:1004500001934346002BD9D0FB0772081A43464646
:100460007B080EE0AB4201D1A2420CD8A41A9D41F8
:10047000012024196D410021013E24184D41002E18
:1004800006D0AB42EED9013E24196D41002EF8D1C1
:10049000009801995B4600196941002B24DB2B0071
:1004A0005A464446D3402A00E2401C005B461500F1
:1004B000002B2ADB26009E40330026004746BE4024
:1004C0003200801A9941009001919FE7A342BCD865
:1004D00083E74246202300219B1A002200910192CB
:1004E0000122DA40019286E7424620239B1A2A0025
:1004F00046469A402300F340444613432A00E24014
:100500001C005B461500002BD4DA42462F00202346
:10051000260097409B1ADE403B003343CDE7C046A0
:10052000F8B5CE46474680B59146984604000D0082
:1005300000F058F907000E0002000B004846414643
:10054000FFF7F4FE241A8D41089B380031001C602F
:100550005D60C0BCB946B046F8BDC04670B542004B
:1005600045024E024C00C30F6D0A0120120E760A9E
:10057000240EC90FFF2A06D0FF2C03D0A24201D1BE
:10058000B54206D070BD002DFCD1FF2CFAD1002E53
:10059000F8D18B4206D00120002AF3D12800431E57
:1005A0009841EFE70020EDE770B5420045024E02AA
:1005B0004C00C30F6D0A120E760A240EC80FFF2AD4
:1005C0001BD0FF2C0ED0002A1BD1002C01D1002EF5
:1005D0001CD0002D0CD083421CD00221581E084094
:1005E000013870BD002E22D1002AF4D1002DF2D1A5
:1005F0000028F6D101204042F3E7002D17D1FF2C4F
:10060000F0D0002CE7D1002EE5D1E6E70020002D48
:10061000E7D0E2E7A24205DCEADBB54202D8E7D345
:100620000020DEE74342584140000138D9E702206C
:100630004042D6E770B5420045024E024C00C30F5F
:100640006D0A120E760A240EC80FFF2A0BD0FF2C5B
:100650000DD0002A1FD1002C16D1002E14D100205D
:10066000002D10D009E0002D0CD1FF2C13D1002E4D
:1006700008D1002A08D0834212D00221581E084017
:10068000013800E0022070BD002DF4D10028FAD11D
:1006900001204042F7E7002CEDD1002EEBD1ECE732
:1006A000A24205DCF2DBB54202D8EFD30020EAE734
:1006B0004342584140000138E5E7C04602004B0084
:1006C000F0B55B0D0C033D4E640A400F5F1CC90F73
:1006D0000443D50037420AD039481E18FE2E16DDD5
:1006E000FF200024C0052043C9070843F0BD002BAC
:1006F00006D12C4326D005229201540AD8B2F1E744
:100700002543EDD08020C0030443FF20EAE7002EFC
:100710001BDD9201531E9A41E4006D0F22432A43D0
:10072000530748D00F231340042B00D004328023FA
:10073000DB0413403FD0701CFE2ED1D09201540A2E
:10074000C0B2CFE700200024CCE73200173222DB12
:100750008020000420431E24A41B1F2C1DDD022228
:100760005242961B0200F2401600202C04D0154A7B
:1007700094466344984005432A00531E9A413243ED
:1007800000265307CED180241300E4040120234027
:100790002242D3D1B0E70023ADE70B4A94462A00AA
:1007A000E24014002A0063449A409840551EAA4132
:1007B00002432243E4E733009EE7C046FE07000001
:1007C00080FCFFFFA2FCFFFF82FCFFFF10B50029A9
:1007D00003D100F0EDF8203002E0080000F0E8F866
:1007E00010BDC046F0B557464E464546DE46E0B51C
:1007F0000F001900002306009846100083B0002F58
:1008000007DA33003C0000275E42A74101235B4228
:100810009846002907DA4346DB430C00984603005C
:1008200000215842A14134003D0082468946B94228
:100830006AD867D049465046FFF7C8FF834639005B
:100840003000FFF7C3FF5B461B1A9C46203B9B46CC
:100850006BD458465146814060460B00514681405A
:100860000A00BB4200D972E0BB4200D179E03400FB
:100870003D005946A41A9D41002900DA74E0002188
:10088000002001260090019159468E400196614654
:1008900001268E406146009600295FD0D907560890
:1008A0000E435F086146012200230CE0AF4201D1F4
:1008B000A6420AD8A41BBD4124196D410139A418D0
:1008C0005D41002906D0AF42F0D9013924196D41AC
:1008D0000029F8D1009801995B4600196941002B65
:1008E0004DDB2E002C00DE406346DC405B46002BD7
:1008F00055DB34009C4023006446A6403200801A39
:10090000994103E0B04295D9002000214346002BD5
:1009100004D003000C0000215842A14103B0F0BCF8
:10092000BB46B246A946A046F0BD624648462023D3
:10093000514690409B1AD9400300009100996046AF
:100940000B43514681400A00BB4200D88CE700218E
:10095000002000900191614600299FD100980199E3
:10096000D4E7B142F3D882E7614620260127761A00
:1009700000200021F74000900191019787E762462F
:1009800020239B1A2A009A40260013006246D64074
:100990002C001E436346DC405B46002BA9DA62460E
:1009A0002023350094409B1ADD4023002B43A3E70E
:1009B0001C2101231B04984201D3000C10391B0A8F
:1009C000984201D3000A08391B09984201D3000953
:1009D000043902A2105C40187047C04604030202AA
:1009E00001010101000000000000000072B6FEE7F6
:1009F00000B59DB0382200210EA802F09AFA142208
:100A0000002109A802F095FA24220021684602F08C
:100A100090FA1A490B681A4A1A4080231B011343A3
:100A20000B6010230E930F3B159300231693A02207
:100A30001202179218930EA800F0D2FB002817D1CB
:100A40000F23099300230A930B930C930D9300211A
:100A500009A800F089FE00280CD10223009300238E
:100A60000493684600F092FF002805D11DB000BD38
:100A7000FFF7BCFFFFF7BAFFFFF7B8FF00700040B9
:100A8000FFE7FFFF10B500F02DFBFFF7B1FF01F00E
:100A9000C5F901F005FA02F07BF8034802F054F8BA
:100AA00002F098F9FCE7C04664300008FEE7FEE774
:100AB0007047704710B500F029FB10BD10B502F06B
:100AC0009FF810BD054B5A6B01210A435A63996B7D
:100AD000802252050A439A637047C04600100240C4
:100AE00010B5EFF3108C012282F3108801680B68B7
:100AF000124C23400B608CF31088EFF3108C82F3C0
:100B0000108801688B6893438B608CF31088036EA8
:100B1000012B06D080232022C25000230366836667
:100B200010BDEFF3108183F310880268136832342C
:100B3000FF34A343136081F31088EBE7DFFEFFFF70
:100B4000D0B5040001688368026913434269134306
:100B5000C26913430A689448024013430B60226839
:100B6000536892490B40E1680B435360A1692268C6
:100B70008F4B9A4201D0236A194393688D480340F2
:100B80000B43936022688C4B9A4216D08B4B9A424F
:100B900024D0874B9A4232D0102385498A425CD0B8
:100BA000E06980221202904200D193E0082B00D924
:100BB000F4E09B00824AD3589F46824BD96C0323B2
:100BC0000B40022B33D005D8002B32D0012B32D171
:100BD0000333E2E7032B30D10533DEE7794BD96CE1
:100BE0000C230B40082B2AD005D8002B29D0042B2E
:100BF000D3D01023D1E70C2B25D1043BCDE7714B8B
:100C0000DB6CC02109010B40802109018B421CD003
:100C100007D8002B1BD08021C9008B4219D1042397
:100C2000BBE7C02109018B4215D10823B5E7022398
:100C3000B3E70123B1E71023AFE71023ADE70223A9
:100C4000ABE70023A9E71023A7E70223A5E70023CA
:100C5000A3E71023A1E710239FE7042B35D00BD87F
:100C6000002B2CD0022B05D1564B1B68DB062FD452
:100C7000554805E0012070E0082B1ED180200002BD
:100C8000626853009B18834200D97BE013038342C0
:100C900000D279E0070E0602500800218019794140
:100CA0000023FFF723FB494BC218494B9A4200D956
:100CB0006CE02368D86000204FE001204DE000F098
:100CC00045FE0028DCD1002047E000F031FAF8E7CB
:100CD0004048D5E7082B5BD89B003F4AD3589F4636
:100CE00000F034FE002855D0400063685B08C0184F
:100CF0006168FFF711FA0200103A384B9A424BD85C
:100D000082B20F239A434008083B184010432368DF
:100D1000D860002021E000F029FEE3E7294B1B68A2
:100D2000DB0604D42848DFE700F002FADAE72948B6
:100D3000DAE700F00BFE002832D063685B08181871
:100D40006168FFF7E9F90200103A244B9A4229D86A
:100D500023680004000CD86000200023A366E3662B
:100D6000D0BD00F003FEE6E7164B1B68DB0607D498
:100D70001548E2E700F0DCF9DDE780200002DCE75F
:100D80001448DAE70120E8E70120E6E70120E4E77C
:100D90000120E2E70020E0E70120DEE70120DCE7B8
:100DA0000020DAE70120D8E7F369FFEFFFCFFFFF6C
:100DB00000480040FFF4FFFF0038014000440040BD
:100DC0007C300008001002400024F40000FDFFFF0A
:100DD000FFFC0F0000093D00A0300008EFFF0000FD
:100DE000436ADB0706D5026853682C490B40816AC9
:100DF0000B435360436A9B0706D502685368284932
:100E00000B40C16A0B435360436A5B0706D5026817
:100E1000536824490B40016B0B435360436A1B0723
:100E200006D50268536820490B40416B0B43536061
:100E3000436ADB0606D5026893681C490B40816B48
:100E40000B439360436A9B0606D502689368184972
:100E50000B40C16B0B439360436A5B060BD5026882
:100E6000536814490B40016C0B43536080235B03B0
:100E7000026C9A420AD0436A1B0606D50268536880
:100E80000D490B40816C0B435360704702685368F7
:100E90000A490B40416C0B435360ECE7FFFFFDFF39
:100EA000FFFFFEFFFFFFFBFFFF7FFFFFFFEFFFFFE7
:100EB000FFDFFFFFFFFFEFFFFFFFF7FFFFFF9FFFDA
:100EC000F8B5CE46474680B506000D001700994696
:100ED000089B98463368DC692C40641B63425C4184
:100EE000BC422FD143460133F4D000F01BF94B46EE
:100EF000C01A40452BD84346002B2AD033681A68C5
:100F00005207E7D5DA69120710D4DA691205E1D57C
:100F1000802212011A623000FFF7E2FD84232022B2
:100F2000F2500C3B0022F25403200CE008241C6217
:100F30003000FFF7D5FD8423F4500C3B0022F2541F
:100F4000012000E00020C0BCB946B046F8BD032037
:100F5000F9E70320F7E7000030B583B004008423ED
:100F60000022C25000F0DEF8050022681268130764
:100F70000FD423681B685B0729D42023E3678022F2
:100F8000A350002323666366083AA354002003B0ED
:100F900030BD8021224B00930300002289032000F2
:100FA000FFF78EFF0028E4D0EFF31081012383F3D5
:100FB00010882268136880208343136081F31088AF
:100FC0002023E36758330022E2547D38DFE7802195
:100FD000134B00932B000022C9032000FFF770FF82
:100FE0000028CAD0EFF31080012282F31088216814
:100FF0000B680C4D2B400B6080F31088EFF31080D2
:1010000082F3108821688B6893438B6080F310888B
:1010100080231F32E250083B0022E2540320B6E74F
:10102000FFFFFF01DFFEFFFF10B5041E2ED0C36FD0
:10103000002B21D02423E3672268136801218B430E
:1010400013602000FFF77CFD012814D0636A002B99
:1010500018D1226853680E490B4053602268936888
:101060002A218B4393602268136829390B4313604C
:101070002000FFF771FF10BD78330022C25400F04A
:101080002DFFD7E72000FFF7ABFEE2E70120F2E7F4
:10109000FFB7FFFF10B504000F4B1978FA2080004E
:1010A000FFF73AF801000D4B1868FFF735F800F02C
:1010B00097FE00280DD1032C01D901200AE0013050
:1010C00000222100404200F04FFE054B1C60002032
:1010D00000E0012010BDC0460000002008000020F4
:1010E0000400002010B5084A136840210B43136028
:1010F0000020FFF7CFFF041E02D00124200010BD06
:10110000FFF7E0FCFAE7C04600200240034A1168FE
:10111000034B1B785B1813607047C0462C000020FF
:1011200000000020014B18687047C0462C000020CA
:1011300010B5264BDA680C231340082B42D00C2B39
:1011400011D0042B09D0214B5A68520B07231340AE
:10115000013380200002984010BD1C4B1B68DB0649
:1011600032D51B48F8E7910C0F230B401949C85C96
:10117000920D03231A40541C144BDB68DB0309D582
:10118000154A00230021FFF7D1F822000023FFF7C2
:10119000ADF8E1E70D4B1B68DB0609D50C4A0023CF
:1011A0000021FFF7C3F822000023FFF79FF8D3E7E1
:1011B0000A4A00230021FFF7B9F822000023FFF7B5
:1011C00095F8C9E70448C7E70448C5E7001002409E
:1011D00000093D00DC30000800127A000024F40011
:1011E000F0B583B0041E00D197E2C14BDA680C253C
:1011F0001540DE6880235B021E400368DB0736D59E
:10120000082D2CD00C2D28D06368802252029342E6
:101210004DD0A022D202934250D0B54B1A68B549A6
:101220000A401A601A68802149020A400192019A14
:101230001A68B1490A401A606368002B4AD0FFF768
:1012400071FF0700AA4B1B689B0310D4FFF76AFFCE
:10125000C01B6428F6D9032060E2002ED4D0A44B32
:101260001B689B0303D56368002B00D158E22368F9
:101270009B0765D5E368042D3CD00C2D38D0002B9E
:1012800000D1B0E09A490A680920824313430B60F9
:10129000FFF748FF0600964B1B685B0700D599E0F7
:1012A000FFF740FF801B0228F5D9032036E2904A61
:1012B000116880235B020B431360BDE78C4B1968F8
:1012C0008022D2020A431A601968802252020A431D
:1012D0001A60B1E7FFF726FF0700854B1B689B03E9
:1012E000C5D5FFF71FFFC01B6428F6D9032015E200
:1012F000002EC4D17E4A1268520702D5002B00D1BD
:1013000010E27B4E72687D490A40216909020A4356
:101310007260326809218A4313433360FFF708FF84
:10132000F26812090F231340754AD35CD840754BFD
:101330001860754B1868FFF7ADFE002800D0EDE18E
:101340002368DB062DD5002D60D1694B1B689B05FA
:1013500003D5E369002B00D1E6E1654A53686B4988
:101360000B40616A0B43536053681B021B0A216ADE
:1013700009060B435360636A590B013180231B023A
:101380008B40D16809090F220A405D498A5CD3402D
:101390005C4A13605C4B1868FFF77CFE002800D0A5
:1013A000BCE123681B077DD56369002B67D0504AD9
:1013B000136D01210B431365FFF7B4FE06004C4B80
:1013C0001B6D9B076ED4FFF7ADFE801B0228F6D97C
:1013D0000320A3E146494B68484A134022691202A0
:1013E00013434B60ACE7424A136801218B431360FF
:1013F000FFF798FE06003E4B1B685B07A0D5FFF782
:1014000091FE801B0228F6D9032087E1E369002BB7
:1014100022D0374A116880235B000B431360FFF72B
:1014200081FE0600324B1B689B0506D4FFF77AFE4F
:10143000801B0228F6D9032070E12D4A53683349F6
:101440000B40616A0B43536053681B021B0A216AFD
:1014500009060B435360A4E7254A13682C490B4047
:101460001360FFF75FFE0600214B1B689B0598D5B4
:10147000FFF758FE801B0228F6D903204EE11C4AD4
:10148000136D01218B431365FFF74CFE0600184BCB
:101490001B6D9B0706D5FFF745FE801B0228F6D97A
:1014A00003203BE123685B0700D48EE0104B9B6B6D
:1014B000DB001BD40E4A916B80235B050B439363C7
:1014C0000126144B1B68DB0528D5A3688022520037
:1014D000934237D0002B4DD1054B1A6D0C490A4071
:1014E0001A651A6D0C490A401A6531E00026E8E7D2
:1014F00000100240FFFFFEFFFFFFFBFFFFE0FFFFCA
:10150000C43000080800002004000020FF1FFFFF77
:10151000FFFEFFFF00700040FFFBFFFF884A1168DD
:1015200080235B000B431360FFF7FCFD0700844B37
:101530001B68DB05C9D4FFF7F5FDC01B6428F6D98D
:101540000320EBE07F4A116D80235B000B431365A2
:10155000A368002B28D0FFF7E5FD0700794B1B6D32
:101560009B0530D4FFF7DEFDC01B774B9842F5D9C1
:101570000320D3E0A022D200934209D0714B1A6D10
:1015800072490A401A651A6D71490A401A65DFE707
:101590006C4B196D013AFF3A0A431A65196D8022A6
:1015A00052000A431A65D3E7FFF7BCFD0700654BFD
:1015B0001B6D9B0507D5FFF7B5FDC01B624B98421D
:1015C000F5D90320AAE0012E21D023689B063CD543
:1015D000A369002B21D05B4B9968012001439960DE
:1015E0005A6B02435A635B4A116A80239B010B4387
:1015F0001362FFF797FD0600524B9B689B0724D4AC
:10160000FFF790FD801B0228F6D9032086E04D4AA3
:10161000936B51490B409363D7E74A4A9368012182
:101620008B4393604B4A136A4C490B401362FFF79C
:1016300079FD0600434B9B689B0706D5FFF772FDBB
:10164000801B0228F6D9032068E0A36A002B00D192
:101650006CE00C2D49D0022B12D03A4A1368404955
:101660000B401360FFF75EFD0400364B1B689B01C7
:1016700039D5FFF757FD001B0228F6D903204DE0AE
:10168000304A136836490B401360FFF74BFD0500E5
:101690002C4B1B689B0106D5FFF744FD401B02281D
:1016A000F6D903203AE02749CB682E4A1340E26A74
:1016B000206B0243606B02431343CB600A688023B4
:1016C0005B0413430B60FFF72DFD04001D4B1B68EB
:1016D0009B0106D4FFF726FD001B0228F6D9032044
:1016E0001CE000201AE0002018E0012B20D0154B50
:1016F000DA6880235B021340E16A8B421AD1F0233F
:101700009B031340216B8B4216D1C0231B041A404C
:10171000636B9A4212D1002000E0012003B0F0BDBB
:101720000120FBE70120F9E70120F7E70020F5E7BA
:101730000120F3E70120F1E70120EFE70120EDE7C9
:10174000007000400010024088130000FFFEFFFF01
:10175000FFFBFFFF00000140FFFFFFEFFFDFFFFF88
:10176000FFFFFFFEFFFF02FF70B505000C00002821
:1017700000D1D1E06A4B1A68012313408B4219D380
:101780002B689B0706D5674AD368F0218B43A9686D
:101790000B43D3602B68DB077BD56B68022B20D013
:1017A000032B40D0012B44D05E4A126892051DD411
:1017B000012099E05A4A136801218B4323431360A7
:1017C000FFF7B0FC0600564B1A6801231340A342F2
:1017D000D6D0FFF7A7FC801B534A9042F3D90320D1
:1017E00082E0504A1268920300D497E04D49CA68DB
:1017F000032082431343CB60FFF794FC06006B6821
:10180000022B1CD0032B28D0012B34D0454BDB6896
:101810000C221A423DD0FFF785FC801B424B9842B8
:10182000F4D9032060E03F4A12689201DED401201F
:101830005AE03C4A12685207D8D4012054E0394B90
:10184000DA680C231340082B23D0FFF76BFC801BB6
:10185000354A9042F3D9032046E0324BDA680C2334
:1018600013400C2B15D0FFF75DFC801B2E4B9842CC
:10187000F3D9032038E02B4BDA680C231340042BF8
:1018800007D0FFF74FFC801B274B9842F3D903206A
:101890002AE0234B1A6801231340A34225D82B6862
:1018A0005B0706D51F4AD36820490B40E9680B4304
:1018B000D3602B681B0707D51A49CB681C4A134015
:1018C0002A69D2001343CB60FFF732FC154BDA686C
:1018D00012090F231340174AD35CD840164B1860E7
:1018E000164B1868FFF7D6FB70BD0D4A136801212F
:1018F0008B4323431360FFF715FC0600084B1A685F
:1019000001231340A342CAD0FFF70CFC801B064BF7
:101910009842F3D90320E7E70120E5E70120E3E758
:10192000002002400010024088130000FFF8FFFF73
:10193000FFC7FFFFC430000808000020040000209B
:10194000014B18687047C0460800002010B5FFF72B
:10195000F7FF044BDA68120A07231340024AD35CEC
:10196000D84010BD00100240D430000810B5FFF779
:10197000E7FF044BDA68D20A07231340024AD35C1C
:10198000D84010BD00100240D430000870B50400EB
:1019900082231B0102681A4272D0814B9B6BDB00D1
:1019A00000D5ABE07E4A916B80235B050B439363CC
:1019B00001257C4B1B68DB0500D4A1E0784B1A683D
:1019C000C0239B031A4061680B40934200D1ACE0F6
:1019D000C0239B020A001A409A4200D1ADE0704B2E
:1019E0001A6DC0239B02100018401A421FD01940E4
:1019F000814202D023689B0608D4C0239B02A268C0
:101A00001340834213D023681B0510D5644B186D17
:101A1000654A02401E6D8021090331431965196D25
:101A2000624E314019651A65C30500D58CE0236804
:101A30001B050FD5A368C0229202190011409142E4
:101A400000D191E056490B6DC0229202A06802407D
:101A500013430B6523689B060FD56368C02292026F
:101A600019001140914200D188E04D490B6DC02210
:101A700092026068024013430B65012D00D187E09C
:101A80002368DB0706D5464AD36C03218B43E16804
:101A90000B43D36423689B0706D5414AD36C0C21C2
:101AA0008B4321690B43D36423685B0706D53C4A0B
:101AB000D36C3F490B4061690B43D36423681B0718
:101AC00006D5374AD36C3B490B40A1690B43D3641D
:101AD00023685B0606D5324AD36C37490B40216A2E
:101AE0000B43D36423681B0658D52D4AD36C334966
:101AF0000B40E1690B43D364002050E0002558E718
:101B0000284A116880235B000B431360FFF70AFB30
:101B10000600244B1B68DB0500D54FE7FFF702FBEF
:101B2000801B6428F5D9032039E0C0239B03A068FB
:101B30000340934200D04BE751E7194B1B689B03CE
:101B400000D44CE701202AE0FFF7ECFA0600144B22
:101B50001B6D9B0500D56AE7FFF7E4FA801B184B65
:101B60009842F4D903201AE00D490A68154802404A
:101B7000C0208003034013430B6063E708490A68F1
:101B800010480240C0208003034013430B606CE701
:101B9000034A936B0C490B40936371E7002070BDBF
:101BA0000010024000700040FFFFFCFFFFFFF7FF46
:101BB000FFF3FFFFFFCFFFFFFFFFFFFBFFFFF3FF81
:101BC00088130000FFFFCFFFFFFFFFEFF0B50023FA
:101BD00057E084685F000326BE40B4432600CC680B
:101BE000BC4034438460446894434A681609012227
:101BF00032409A402243426053E0DC080834A4009B
:101C0000265805321A4092000F279740BE430F69AD
:101C100097403A003243225057E0052600E0002664
:101C2000A64034003C4302329200454E9451454A4E
:101C30009468EA432600AE434F68FF0201D52C4367
:101C40002600404CA660E468260016404F68BF029C
:101C500001D52C4326003B4CE66064682600164004
:101C60004F68BF0301D52C432600364C66602468BC
:101C700022404E68F60301D52A002243314C2260EF
:101C800001330C682200DA4058D001229A40250026
:101C900015401442F4D003244E683440013C012C1A
:101CA00097D903224C682240032A09D0C2685E00FB
:101CB0000324B440A24314008A68B2402243C260A5
:101CC00003224C682240022A97D004685E00032257
:101CD0001700B740BC434F683A40B240224302600D
:101CE000C02292024C681442CAD0174C626B012683
:101CF000324362639A08941CA400114EA75903262C
:101D00001E40B4000F26A640B743A026F605B042F9
:101D100085D00E4EB0420BD00D4EB0420AD00D4EC3
:101D2000B04209D00C4EB04200D176E7062677E7E4
:101D3000012675E7022673E7032671E7F0BDC0466A
:101D40000000014000040140001002400004005067
:101D500000080050000C0050001C0050002A01D068
:101D6000816170478162FCE770B5002811DB830850
:101D7000134EC0339B009D5903242040C000FF2216
:101D800014008440A54389010A4082402A439A51A5
:101D900070BD0F230340083B9B0806339B00094A94
:101DA000944663445C6803221040C000FC32150076
:101DB0008540AC4389010A40824022435A60E7E7EC
:101DC00000E100E000ED00E0002805DB1F231840E3
:101DD0001E3B8340014A13607047C04600E100E0AB
:101DE000013880235B0498420FD2094A50600948A9
:101DF000036A1B021B0AC02109060B43036200236E
:101E0000936007331360002070470120FCE7C04651
:101E100010E000E000ED00E07047000070B588B011
:101E20001422002103A801F084F81B4BD96A042274
:101E30001143D962D96A0A400092009AD96A802275
:101E40001143D962D96A0A400192019ADA6A0125DE
:101E50002A43DA62DB6A2B400293029BA026F60536
:101E6000002220213000FFF779FF80239B0103939C
:101E700084239B0304930024059403A90748FFF7D8
:101E8000A5FE2023039304950594069403A930002E
:101E9000FFF79CFE08B070BD001002400008005023
:101EA00010B50C480C4B0360E1235B024360002338
:101EB0008360C36003610C2242618361C36103627A
:101EC0004362FFF7B1F8002800D110BDFEF78EFD88
:101ED000FBE7C046300000200044004010B586B04B
:101EE00004001422002101A801F023F82268144BF9
:101EF0009A4201D006B010BD124B996B802292021B
:101F00000A439A63D96A01221143D962DB6A1A40F3
:101F10000092009B0C2301930A3B0293013304932C
:101F200001330593A02001A9C005FFF74FFE002251
:101F300000211C20FFF718FF1C20FFF745FFD9E701
:101F4000004400400010024003000800994200DAFB
:101F50001800704730B500230B724B7220228A7430
:101F60000B704B70040004E02D220A7200224A72AA
:101F70001C00631C6278002A18D0203AD5B2102DBC
:101F800014D8AA00714DAA5897460A7A5442624161
:101F90004A72EDE72B220A70EAE70A78002AE7D1B5
:101FA00020320A70E4E723224A70E1E700228A70B7
:101FB0001A782A2A02D000224A600EE002238B708F
:101FC000A31C0FE001228A704C68A2001219520073
:101FD0001C78303C12194A6001331A78303AD2B278
:101FE000092AEFD90022CA608A721A782E2A0BD0E9
:101FF00000220A745D1C1A784C3AD4B22E2C3BD8BD
:10200000A200534CA25897465C1C5A782A2A05D045
:102010002D2A07D001238B7223000DE0283A8A7203
:102020000233E5E7023307E0CD68AA0052195200F7
:102030000133303C1219CA601C782200303AD2B207
:10204000092AF1D9D4E701220A745A78682A01D002
:102050002B0011E0653A0A7402330DE004220A7481
:102060005A786C2A01D02B0006E0673A0A740233D2
:1020700002E002230B742B005A1C1B78253BDCB2B8
:10208000532C61D8A300334CE3589F4606230B74AE
:102090002B00F1E707230B742B00EDE708230B74EB
:1020A0002B00E9E7042312E000234B748B7216E047
:1020B00001234B7400238B7211E002234B74002325
:1020C0004B720CE0032302E000238B74013B5C1C89
:1020D0000BD04B748B7A002B01D000234B72101A5B
:1020E00030BD0623F3E70523F3E70523F1E70023DB
:1020F0008B7408234B748B7A002BF0D10633CB60A2
:10210000EDE700238B7409234B748B7A002BE6D107
:102110000633CB60E3E700238B740A234B748B7A7E
:10212000002BDCD10633CB60D9E700238B740B2363
:102130004B748B7A002BD2D10633CB60CFE70723C9
:102140004B7400238B72CAE70020C9E7E83000080F
:102150002C310008E8310008E0B5CE46474680B58E
:10216000060091461D1E1DDB0123984600270A220A
:10217000002348462900FEF795F841464A4330328D
:10218000327001360A22002348462900FEF78AF8F9
:1021900081460D0001370143E9D13800C0BCB94682
:1021A000B046E0BD01235B429846DFE7F0B5DE466E
:1021B0004F464646C0B582B0060015001C000A9B7B
:1021C0009846002712E0D2B23032D2B2731C9B463E
:1021D00032704246002328002100FEF787F80137BD
:1021E000A14518D814D005000C005E464346019363
:1021F00000239946424628002100FEF777F8092A75
:10220000E1D90B9B9C466244D2B23732D2B2DDE7B1
:10221000019BAB42E7D9380002B0E0BCBB46B146F7
:10222000A846F0BDF0B5D6464F464646C0B58EB07E
:102230000B90904699460020049C059D04E00BAB52
:102240001A5C0DAB1A5401300328F8D90494059593
:102250000D9BDA0DFF2010400200963A282A00DD7F
:10226000ABE05B025B0A802424041C43A446002AE2
:102270002EDD20235B42D31825D49C40A246634622
:1022800093400B6053464B605A383B283AD8202382
:102290005B42C31831D461469940634683401800BD
:1022A000020009010B09810F8C4699006446214305
:1022B0008000801859410018494103000A0000219C
:1022C0000800190031E020239B1ADC40A246D6E723
:1022D000002A03DB0C6000234B60D5E7173204DAD9
:1022E000002200230A604B60CEE796231B1A2200CF
:1022F000DA400A6000234B60C6E720231B1A6146C0
:10230000D940CAE700200021CAE701300C001201C1
:1023100015098B0FAF001F438E0032003B001219CE
:102320006B4192185B4111001A000B00134301D05E
:10233000130FEAD00B004946086000260020002158
:10234000B446049329E0830F8E0001961E43019644
:1023500083000093009E019F801979410018494134
:10236000130F069300230793069E079F8019794158
:10237000049C12011509A30FAA0003921A430392A9
:10238000A3000293029A039B12196B4192185B41BE
:1023900004921A0001239946CC44049B134302D0B3
:1023A0006346072BCFDD43461860596001200EB00D
:1023B000E0BCBA46B146A846F0BD0020F7E70000F1
:1023C000F0B58BB00600019114001D000023032B13
:1023D00005D801AAD15C09AAD1540133F7E7099ABB
:1023E000D30DDBB2FF2B09D003AB04AA06A90198D9
:1023F000FFF718FF002821D0340034E052020CD13E
:10240000002312E02C4AD25C1219327001330136DB
:10241000022BF7DD032040424CE00023F8E7274A77
:10242000D25C1219327001330136022BF7DDF1E76D
:10243000234B1B5C1B193370013001360228F7DD7A
:102440000320404236E00A220023FDF74FFF671CBD
:10245000303222700A22002304980599FDF746FFC6
:10246000049005913C000498059903000B43EAD1C0
:1024700002E0302323700134039A531E0393002A91
:10248000F7DCA31B2B60651C2E2323700A2200237C
:1024900006980799FDF72AFF30322A7001350A2283
:1024A000002306980799FDF721FF06900791014345
:1024B000ECD1A81B0BB0F0BD383300083C3300084A
:1024C0004033000810B58B6801338B600B68496896
:1024D000984710BD10B5C0B200F0F2FB10BD00006F
:1024E000F0B5DE4657464E464546E0B599B0150074
:1024F0000593109011910023129305E06C1C28782D
:1025000010A9FFF7DFFF25002B78002B00D10FE388
:10251000252BF3D113A92800FFF71CFD0028EDD0CF
:102520002D1813AB9B78022B0FD013AB9B7A022B89
:102530001AD00023079313AB5B7C99460B2B00D971
:10254000F5E19B00CF4AD3589F4613AA013B9370F5
:10255000059B191D05911B681493002BE5DA5B425E
:10256000536001231372E0E713AA00239372059BC3
:10257000191D05911B681693002BDADB130001224D
:102580009A72D6E708AF25233B70002304930026F8
:102590009B46012413AB9B78012B00D1DFE1002384
:1025A0009A4613AB5B7C9846022B00D1FCE1049B5E
:1025B000002B00D02CE24346082B00D1F2E1210091
:1025C000169B591A0020FFF7BFFC0390EEE1059B14
:1025D0001A1D05921B7808AF3B7000230493002658
:1025E0009B4601249946D5E7059B1A1D05921F6855
:1025F0003B00002401E0013301341A789146002A9F
:1026000000D19CE113AA927A002AF4D0169AA24231
:10261000F1DC0023049300269B469946BAE713ABEE
:102620001B7C082B5BD89B00974AD3589F46059B81
:102630001A1D05921A68D317002B53DB13A90978CA
:102640008946110019434E424E41F6B2002903D18A
:1026500013A9897A012948D008A8FFF77DFD040055
:10266000002304939B4608AF94E7059B1A1D05922F
:1026700000229B5E1A00DB17DEE7059B1A1D059200
:102680001A68D317D8E7059B1A1D05921A780023FC
:10269000D2E7059B1A1D05921A68D317CCE7059B54
:1026A0000733072293431A00083205921A685B68C1
:1026B000C2E7059B0733072293431A0008320592AD
:1026C0001A685B68B8E7059B1A1D05921A68D3174C
:1026D000B2E7059B1A1D05921A68D317ACE70022D2
:1026E0001300ABE72D218946ABE7169C002CB3D134
:1026F0000494A34608AF4DE713AB1B7C082B00D90D
:1027000085E09B00614AD3589F46059B1A1D0592A0
:102710001F680023984643463B435E425E41F6B243
:10272000002B03D113AB9B7A012B74D013AB5B7CD2
:10273000042B00D17FE0052B7BD00A2313AA927CC7
:10274000019200933A00434608A8FFF72FFD0400CA
:1027500043463B4307D013AB5B78002B03D013AB4E
:102760005B7C042B69D043461F4300D1ECE013ABE4
:102770005B789946002B00D1ECE013AB5B7C052B1A
:1027800060D0002304939B46994608AF02E7059B5F
:102790001A1D05921F8800239846BCE7059B1A1D49
:1027A00005921F6800239846B5E7059B1A1D059200
:1027B0001F7800239846AEE7059B1A1D05921F68F7
:1027C00000239846A7E7059B0733072293431A0087
:1027D000083205921F685B6898469CE7059B0733A3
:1027E000072293431A00083205921F685B689846D7
:1027F00091E7059B1A1D05921F68002398468AE7FA
:10280000059B1A1D05921F680023984683E7012641
:102810000027B84686E7169C002C87D113AB5B7C5B
:10282000042B95D113AB5B78002B91D00123169329
:102830008EE70B3382E7082380E708AB30221A5576
:10284000013490E713AB9B7C582293469B440023B2
:102850000493994608AF9DE6059B1A1D05921A68D8
:1028600020230193103B0093002308A8FFF79EFC50
:10287000040000230493002678339B4600239946E6
:1028800008AF87E644330008743300089833000823
:1028900013AB1B7C022B33D0059B073307229343DA
:1028A0001A000832059218685968FDF707FF041CE2
:1028B0000021201CFDF7CEFC00282ED113AB1B7885
:1028C000994601260021201CFDF7BEFC002800D1FE
:1028D0000026F6B213AB9A7C07AB211C08A8FFF7C1
:1028E0006FFD041E1CDB079B169A991A0020FFF748
:1028F0002BFB08AB1F18241A002304939B4649E6C0
:10290000059B0733072293431A0008320592186883
:102910005968FDF7D3FE041CCAE72D239946D0E77A
:1029200044420123049300239B4608AF32E6002370
:1029300004931E009B461C00994608AF2AE600231C
:10294000049300269B4625E6002304939B46994664
:1029500008AF1FE6002304939B4608AF1AE613ABAB
:102960005B7A002B12D013AB5B7C022B11D913AB1B
:102970009B7A012B02D030239A4612E6169B002B3D
:102980000AD1002E0BD130339A460AE620239A460C
:1029900007E600239A4604E630239A4601E6202300
:1029A0009A46FEE507990BE600230393149B191B37
:1029B0004B465A1E9341C91A5B46002B00D0023980
:1029C0004346082B27D0039BC91A0020FFF7BCFA07
:1029D000804613AB1E7A002E02D15346002B23D122
:1029E0005B46002B51D113AB5B7C022B5ED04B4678
:1029F000002B5DD113AB5B7C082B64D1169B002BA5
:102A00006DD113AB5B78002B69D10137013C66E0D7
:102A100000230393CAE7169B002BD4D113AB5B783A
:102A2000002BD0D10131CEE7302B01D0434619E045
:102A30004B46002B0BD15B46002BF7D010A9302062
:102A4000FFF740FD10A95846FFF73CFDEEE710A93F
:102A50004846FFF737FDB146EDE710A95046FFF7AE
:102A600031FD43465A1E9046002BF6DC5346302B70
:102A7000B9D05B46002BB6D010A93020FFF722FD5D
:102A800010A95846FFF71EFDADE710A93020FFF74B
:102A900019FD10A95846FFF715FDA4E7B85D10A968
:102AA000FFF710FD0136B442F8DC1FE00026FAE71C
:102AB00010A94846FFF706FD9CE710A93020FFF754
:102AC00001FD4B460393039B5A1E9146002BF4DCF9
:102AD000039204E0B85D10A9FFF7F4FC3400661E11
:102AE000002CF7DC13AB5B7C082B13D013AB1B7AE9
:102AF000002B00D108E55346002B00D104E54346E6
:102B00005C1E002B00DCFFE410A95046FFF7DAFC46
:102B1000A046F4E7049B002BE8D104E010A9302084
:102B2000FFF7D0FC0394039B5C1E002BF6DCDDE773
:102B3000129819B0F0BCBB46B246A946A046F0BDFB
:102B400010B500F0BDF810BD0FB400B583B004ABF4
:102B500004CB019300210548FFF7C2FC0A20FFF7D0
:102B6000EFFF03B008BC04B01847C046D5240008E6
:102B70000FB400B583B004AB04CB0193002103482C
:102B8000FFF7AEFC03B008BC04B01847D52400081A
:102B9000134B1968134A116000221348026013484E
:102BA000026013480260134802600A682020024352
:102BB0000A6019680A68104802400A6019680A68C1
:102BC0004230FF3082430A6019680A683038824315
:102BD0000A601A68936809490B4093607047C046C1
:102BE0003000002008020020000200200402002023
:102BF000F8000020FC000020FFFEFFFFFFFBFFFFAE
:102C000030B51A4B1968CB69194A1268082010624E
:102C1000063810622630184210D0486AC0B29C07AD
:102C20000CD4144C256801353F242C40124D2D68DE
:102C3000A54203D00F4D2C60104D28551B060FD513
:102C40000F4B18680F4B1B6898420AD00D4802685A
:102C50000132FF23134003600B4AD35CDBB28B626B
:102C600030BD136880218B431360F9E70802002010
:102C700030000020F8000020FC000020B8000020F8
:102C8000000200200402002000010020094B1A6805
:102C9000094B1B689A420AD007490A6801323F2350
:102CA00013400B60054AD35C03700120704700207D
:102CB000FCE7C046F8000020FC000020B80000201F
:102CC0000B4B1A680132FF2313400A4A12689A42DA
:102CD0000BD0094AD054064A1360084B1A6813688F
:102CE00080210B431360012070470020FCE7C046A1
:102CF000000200200402002000010020300000201B
:102D000010B50248FFF720FF10BDC046BC330008D5
:102D100010B50248FFF718FF10BDC046C8330008C1
:102D2000F0B5BBB00700E422114901A800F0F8F8A3
:102D3000002400E00134022C12DC4C25654301AB79
:102D40009C4665442800FDF7DFF9060002002900D3
:102D5000380000F0F6F80028ECD1AB6CB8199847B1
:102D6000032C01D03BB0F0BD0248FFF7EDFEF9E7C0
:102D7000802F0008E033000810B5441C02220F49E0
:102D8000200000F0DEF800280DD003220C492000BE
:102D900000F0D7F800280DD10A4B00221A700A481B
:102DA000FFF7D2FE10BD074B01221A700748FFF74C
:102DB000CBFEF7E70648FFF7C7FEF3E7F03300085E
:102DC000043400080C00002008340008F433000824
:102DD0001834000800B583B06B46D81DFFF756FFC6
:102DE000002818D06B46D87908281AD00D2823D18E
:102DF0001D48FFF7A9FE1D4B1B781D4A0021D15429
:102E0000002B0AD01000FFF78BFF184B00221A701E
:102E10001548FFF799FE03B000BD1648FFF794FE72
:102E2000F3E7124B1B78002BF5D0013B0F4A1370D0
:102E30001148FFF79DFEEEE70C4B1B78452B0BD896
:102E40000B4AD0540133094A13700C4B1B78002BEA
:102E5000E1D0FFF775FEDEE70948FFF775FE034B8B
:102E600000221A70D7E7C046783000080C02002014
:102E70001002002040340008543400080C000020E8
:102E8000583400080D488546FEF7C6FF0C480D492A
:102E90000D4A002302E0D458C4500433C4188C42B5
:102EA000F9D30A4A0A4C002301E013600432A2421B
:102EB000FBD300F011F8FDF7E5FDFEE70020002050
:102EC00000000020100000208834000810000020BE
:102ED00058020020FEE7000070B500260C4D0D4C96
:102EE000641BA410A64209D1002600F03DF80A4D4B
:102EF0000A4C641BA410A64205D170BDB300EB5868
:102F000098470136EEE7B300EB5898470136F2E7F1
:102F100080340008803400088034000884340008BD
:102F2000002310B59A4200D110BDCC5CC4540133CB
:102F3000F8E703008218934200D1704719700133FB
:102F4000F9E730B50500101E08D00024013A2B5DCA
:102F5000085D834201D1944201D1181A30BD013479
:102F6000002BF4D1F9E70000F8B5C046F8BC08BC66
:102F70009E467047F8B5C046F8BC08BC9E467047F0
:102F80007072696E742076657273696F6E000000EE
:102F90000000000000000000000000000000000031
:102FA0000000000000000000000000000000000021
:102FB0000000000000000000000000000000000011
:102FC0000000000000000000112D0008736179204E
:102FD00068656C6C6F0000000000000000000000DD
:102FE00000000000000000000000000000000000E1
:102FF00000000000000000000000000000000000D1
:1030000000000000000000000000000000000000C0
:1030100000000000012D0008736574206563686F6F
:1030200000000000000000000000000000000000A0
:103030000000000000000000000000000000000090
:103040000000000000000000000000000000000080
:103050000000000000000000000000000000000070
:10306000792D00085374617274696E6720636F6E06
:10307000736F6C65202E2E2E00000000320D0008AC
:10308000620D0008680D00089C0D0008740D000812
:103090009C0D00089C0D00089C0D00087A0D00088E
:1030A000E00C0008160D00081C0D0008900D00082B
:1030B000280D0008900D0008900D0008900D0008E4
:1030C000E80C0008000000000000000001020304FA
:1030D00006070809000000000102030403040608B3
:1030E0000C101820300000009A1F0008AC1F0008C8
:1030F000AC1F0008A61F0008AC1F0008AC1F00088A
:10310000AC1F0008AC1F0008AC1F0008AC1F000873
:10311000AC1F0008941F0008AC1F0008681F0008BF
:10312000AC1F0008AC1F00088A1F000872200008AE
:10313000782000087820000878200008782000080F
:1031400078200008782000087820000878200008FF
:1031500078200008782000087820000878200008EF
:1031600078200008782000087820000878200008DF
:1031700078200008782000087820000878200008CF
:1031800078200008782000087820000878200008BF
:1031900078200008782000087820000846200008E1
:1031A000782000088C200008782000085C200008A7
:1031B000782000087820000878200008782000088F
:1031C0007820000878200008782000089C2000085B
:1031D000782000087820000878200008782000086F
:1031E0007820000894200008A82000084821000842
:1031F000482100084821000848210008482100080B
:1032000048210008482100084821000848210008FA
:1032100048210008482100084821000848210008EA
:1032200048210008482100084821000848210008DA
:1032300048210008482100084821000848210008CA
:1032400048210008482100084821000848210008BA
:1032500048210008482100082A21000848210008C8
:10326000482100084821000802210008EE2000083B
:1032700016210008482100084821000848210008BC
:10328000482100084821000848210008482100087A
:10329000482100084821000848210008482100086A
:1032A000482100084821000848210008482100085A
:1032B00048210008C82000084821000848210008CB
:1032C000482100084821000848210008482100083A
:1032D00048210008482100082E2100084821000844
:1032E000B0200008C420000806210008F2200008D1
:1032F0001A21000848210008C420000848210008BD
:1033000048210008482100084821000848210008F9
:10331000A42000083E210008482100084821000898
:10332000BA20000848210008E220000848210008CF
:1033300048210008E62000084E414E00464E490054
:10334000524F4F0084250008CE250008E8250008CC
:103350001E260008F8260008F8260008F8260008AF
:103360005828000890280008902800089028000895
:10337000902800082E2600086A2600087A260008F1
:1033800086260008922600089E260008B22600081D
:10339000C6260008D22600080A2700088E27000843
:1033A0009C270008AA270008B8270008C62700089D
:1033B000DC270008F22700080028000848656C6C2C
:1033C0006F207468657265006669726D77617265F9
:1033D0002076657273696F6E20302E310000000018
:1033E000496E76616C696420636F6D6D616E640017
:1033F0006F6E00006563686F20656E61626C656466
:10340000000000006F6666006563686F2064697382
:1034100061626C6564000000496E76616C696420CD
:10342000706172616D207C206563686F20706172CD
:10343000616D733A206F6E2C206F6666000000008D
:10344000436F6D6D616E6420697320656D70747972
:1034500000000000082008000A436F6D6D616E6473
:1034600020697320616C726561647920746F6F20CC
:083470006C6F6E6700000000A4
:0834780010CFFF7F01000000EE
:04348000E900000857
:04348400C10000087B
:10348800010000000400000000002000010000000E
:0400000508002E853C
:00000001FF
